:100000000C9453000C947B000C947B000C947B00AC
:100010000C947B000C947B000C947B000C947B0074
:100020000C947B000C947B000C947B000C947B0064
:100030000C947B000C947B000C947B000C947B0054
:100040000C948C020C947B000C945A020C94340295
:100050000C947B000C947B000C947B000C947B0034
:100060000C947B000C947B0000000000250028000D
:100070002B0000000000240027002A0004040404D0
:100080000404040402020202020203030303030342
:10009000010204081020408001020408102001021F
:1000A00004081020D60211241FBECFEFD8E0DEBF17
:1000B000CDBF22E0A2E4B1E001C01D92A233B2079D
:1000C000E1F711E0A0E0B1E0E8E6FAE002C0059057
:1000D0000D92A234B107D9F710E0C3E5D0E004C017
:1000E0002197FE010E942C05C235D107C9F70E9455
:1000F00015030C9432050C940000EFE4F1E0A089A4
:10010000B18982E08C93A485B5851C92A685B785BC
:100110008FEC8C93108EA489B58986E08C93A2898C
:10012000B3898C9180618C93A289B3898C9188600A
:100130008C93A289B3898C9180688C930288F3890F
:10014000E02D80818F7D80830895AF92BF92CF9202
:10015000DF92EF92FF920F931F93CF93DF936C0187
:100160007B018B01040F151FEB015E01AE18BF0868
:10017000C017D10759F06991D601ED91FC9101901A
:10018000F081E02DC6010995892B79F7C501DF9132
:10019000CF911F910F91FF90EF90DF90CF90BF9084
:1001A000AF900895FC01538D448D252F30E0842FAE
:1001B00090E0821B930B541710F0CF96089501978F
:1001C0000895FC01918D828D981761F0A28DAE0F7C
:1001D000BF2FB11D5D968C91928D9F5F9F73928F03
:1001E00090E008958FEF9FEF0895FC01918D828D2F
:1001F000981731F0828DE80FF11D858D90E00895FC
:100200008FEF9FEF0895FC01918D228D892F90E053
:10021000805C9F4F821B91098F73992708958FE40B
:1002200091E00E94030121E0892B09F420E0822F54
:10023000089580E090E0892B29F00E940F01811140
:100240000C9400000895FC01A48DA80FB92FB11DD6
:10025000A35ABF4F2C91848D90E001968F739927FC
:10026000848FA689B7892C93A089B1898C918370DA
:1002700080648C93938D848D981306C00288F389D3
:10028000E02D80818F7D80830895EF92FF920F9300
:100290001F93CF93DF93EC0181E0888F9B8D8C8D32
:1002A00098131AC0E889F989808185FF15C09FB726
:1002B000F894EE89FF896083E889F98980818370E9
:1002C000806480839FBF81E090E0DF91CF911F9198
:1002D0000F91FF90EF900895F62E0B8D10E00F5FB9
:1002E0001F4F0F731127E02E8C8D8E110CC00FB68F
:1002F00007FCFACFE889F989808185FFF5CFCE0127
:100300000E942301F1CFEB8DEC0FFD2FF11DE35A7D
:10031000FF4FF0829FB7F8940B8FEA89FB898081A9
:100320008062CFCFCF93DF93EC01888D8823B9F023
:10033000AA89BB89E889F9898C9185FD03C08081F0
:1003400086FD0DC00FB607FCF7CF8C9185FFF2CF6D
:10035000808185FFEDCFCE010E942301E9CFDF919F
:10036000CF9108953FB7F89480914701909148014B
:10037000A0914901B0914A0126B5A89B05C02F3F25
:1003800019F00196A11DB11D3FBFBA2FA92F982FBB
:100390008827BC01CD01620F711D811D911D42E0B6
:1003A000660F771F881F991F4A95D1F708952FB7B9
:1003B000F8946091430170914401809145019091BE
:1003C00046012FBF0895FC0101900020E9F7319705
:1003D000AF01481B590BBC018FE491E00C94A500C0
:1003E0008F929F92AF92BF920F931F93CF93DF9301
:1003F000CDB7DEB7A1970FB6F894DEBF0FBECDBF65
:1004000019A2423008F44AE08E010F5D1F4F842E7E
:10041000912CB12CA12CA50194010E940A05E62F74
:10042000B901CA01EA30F4F4E05DD801EE938D0120
:10043000232B242B252B79F790E080E0109719F0DF
:10044000CD010E94E301A1960FB6F894DEBF0FBE66
:10045000CDBFDF91CF911F910F91BF90AF909F9033
:100460008F900895E95CE1CF1F920F920FB60F9223
:1004700011242F933F934F935F936F937F938F93A9
:100480009F93AF93BF93EF93FF938FE491E00E940C
:100490002301FF91EF91BF91AF919F918F917F9138
:1004A0006F915F914F913F912F910F900FBE0F90E1
:1004B0001F9018951F920F920FB60F9211242F9331
:1004C0008F939F93EF93FF93E0915F01F091600111
:1004D0008081E0916501F091660182FD1BC09081F1
:1004E000809168018F5F8F7320916901821741F0BD
:1004F000E0916801F0E0E15BFE4F958F8093680129
:10050000FF91EF919F918F912F910F900FBE0F90C0
:100510001F9018958081F4CF1F920F920FB60F9203
:1005200011242F933F938F939F93AF93BF93809109
:10053000430190914401A0914501B0914601309151
:10054000420123E0230F2D3758F50196A11DB11D5F
:10055000209342018093430190934401A09345016D
:10056000B09346018091470190914801A0914901C3
:10057000B0914A010196A11DB11D8093470190934E
:100580004801A0934901B0934A01BF91AF919F9157
:100590008F913F912F910F900FBE0F901F90189544
:1005A00026E8230F0296A11DB11DD2CFEFE4F1E0A2
:1005B0001382128288EE93E0A0E0B0E084839583FA
:1005C000A683B78384E091E09183808385EC90E0FB
:1005D0009587848784EC90E09787868780EC90E00D
:1005E000918B808B81EC90E0938B828B82EC90E0FE
:1005F000958B848B86EC90E0978B868B118E128E78
:10060000138E148EECEEF1E016821782108611869E
:10061000128613861486158616861786108A118A06
:10062000128A138A148A158A0895789484B5826090
:1006300084BD84B5816084BD85B5826085BD85B586
:10064000816085BD80916E00816080936E00109204
:10065000810080918100826080938100809181007F
:100660008160809381008091800081608093800010
:100670008091B10084608093B1008091B00081606E
:100680008093B00080917A00846080937A0080919A
:100690007A00826080937A0080917A0081608093F2
:1006A0007A0080917A00806880937A001092C1006D
:1006B00010922E0210922F021092300210923102EC
:1006C0001092EE011092EF011092F0011092F101E0
:1006D0000E94D7016B017C014B015C0128EB820E6B
:1006E0002BE0921EA11CB11C0E94D7016C157D0548
:1006F0008E059F0528F086169706A806B906A0F76E
:100700000E94B2014B015C0148EEC42E43E0D42E9E
:10071000E12CF12C0E94B201681979098A099B0920
:10072000683E734081059105A8F331E0C31AD108F2
:10073000E108F10848EE840E43E0941EA11CB11CB0
:10074000C114D104E104F10429F70E947D000E9444
:10075000D7016093EE017093EF018093F0019093C5
:10076000F10182E191E00E94E3010E94D7016B0157
:100770007C014B015C018AE0880E911CA11CB11C1C
:100780000E94D7016C157D058E059F0528F0861601
:100790009706A806B906A0F781E0809302020E949E
:1007A0007D00EDE9F0E02491E9E8F0E08491882310
:1007B00099F090E0880F991FFC01EE58FF4FA5912A
:1007C000B491FC01E859FF4F859194918FB7F8944B
:1007D000EC91E22BEC938FBF83E291E00E94E30166
:1007E0008AE291E00E94E3014AE065E070E080E087
:1007F00090E00E94F0018AE291E00E94E301C0E0F3
:10080000D0E084EF882E99249394A12CB12C0E94DF
:10081000D701672B682B692B09F4E0C00E94D70130
:10082000C0904B01D0904C01E0904D01F0904E01F2
:100830006C157D058E059F0508F4E3C0C0904B0143
:10084000D0904C01E0904D01F0904E019B01AC0125
:100850002C193D094E095F0969017A013AEFC31667
:10086000D104E104F10408F4C1C060934B0170931A
:100870004C0180934D0190934E018092FA01909229
:10088000FB01A092FC01B092FD011092FE011092BA
:10089000FF0110920002109201028091F2019091EA
:1008A000F301A091F401B091F5018093F6019093CA
:1008B000F701A093F801B093F9010E94D70160936A
:1008C000F2017093F3018093F4019093F5010E947B
:1008D000D7016093EE017093EF018093F001909344
:1008E000F1010E94D7016B017C018DE291E00E9431
:1008F000E3014AE061E070E080E090E00E94F001F6
:1009000084E391E00E94E3014AE0C701B6010E943E
:10091000F00186E391E00E94E3018091F201909161
:10092000F301A091F401B091F501A7019601281BF4
:10093000390B4A0B5B0BCA01B9014AE00E94F00176
:1009400086E391E00E94E3016091F2017091F3016E
:100950008091F4019091F501C090F601D090F701DB
:10096000E090F801F090F9016C197D098E099F095A
:100970004AE00E94F00188E391E00E94E3010E94B6
:10098000D7014AE00E94F0018AE391E00E94E3016E
:100990008AE291E00E94E3010E94D7012B013C0111
:1009A0007C016B0135E0C30ED11CE11CF11C0E94DF
:1009B000D701641575058605970528F0C616D70674
:1009C000E806F906A0F70E94D7016093F201709340
:1009D000F3018093F4019093F50108C00E94D701C0
:1009E000623071058105910508F018CF209709F450
:1009F0000ECF0E940F01882309F409CF0E94000046
:100A000006CF60934B0170934C0180934D019093FE
:100A10004E0114CFA1E21A2EAA1BBB1BFD010DC073
:100A2000AA1FBB1FEE1FFF1FA217B307E407F5079E
:100A300020F0A21BB30BE40BF50B661F771F881F7A
:100A4000991F1A9469F760957095809590959B0110
:100A5000AC01BD01CF010895EE0FFF1F0590F49189
:080A6000E02D0994F894FFCF8A
:100A6800000000004501A500D20092010301E10049
:100A7800F500564D4450565F317C315F564D445019
:100A8800560A006B7572756375000D0A00564D4461
:100A980050455F003A323A007C005F564D4450455D
:020AA80000004C
:00000001FF
