:100000000C9453000C947B000C947B000C947B00AC
:100010000C947B000C947B000C947B000C947B0074
:100020000C947B000C947B000C947B000C947B0064
:100030000C947B000C947B000C947B000C947B0054
:100040000C948C020C947B000C945A020C94340295
:100050000C947B000C947B000C947B000C947B0034
:100060000C947B000C947B0000000000250028000D
:100070002B0000000000240027002A0004040404D0
:100080000404040402020202020203030303030342
:10009000010204081020408001020408102001021F
:1000A00004081020D60211241FBECFEFD8E0DEBF17
:1000B000CDBF22E0A2E4B1E001C01D92A233B2079D
:1000C000E1F711E0A0E0B1E0E8E6FAE002C0059057
:1000D0000D92A234B107D9F710E0C3E5D0E004C017
:1000E0002197FE010E942C05C235D107C9F70E9455
:1000F00015030C9432050C940000EFE4F1E0A089A4
:10010000B18982E08C93A485B5851C92A685B785BC
:100110008FEC8C93108EA489B58986E08C93A2898C
:10012000B3898C9180618C93A289B3898C9188600A
:100130008C93A289B3898C9180688C930288F3890F
:10014000E02D80818F7D80830895AF92BF92CF9202
:10015000DF92EF92FF920F931F93CF93DF936C0187
:100160007B018B01040F151FEB015E01AE18BF0868
:10017000C017D10759F06991D601ED91FC9101901A
:10018000F081E02DC6010995892B79F7C501DF9132
:10019000CF911F910F91FF90EF90DF90CF90BF9084
:1001A000AF900895FC01538D448D252F30E0842FAE
:1001B00090E0821B930B541710F0CF96089501978F
:1001C0000895FC01918D828D981761F0A28DAE0F7C
:1001D000BF2FB11D5D968C91928D9F5F9F73928F03
:1001E00090E008958FEF9FEF0895FC01918D828D2F
:1001F000981731F0828DE80FF11D858D90E00895FC
:100200008FEF9FEF0895FC01918D228D892F90E053
:10021000805C9F4F821B91098F73992708958FE40B
:1002200091E00E94030121E0892B09F420E0822F54
:10023000089580E090E0892B29F00E940F01811140
:100240000C9400000895FC01A48DA80FB92FB11DD6
:10025000A35ABF4F2C91848D90E001968F739927FC
:10026000848FA689B7892C93A089B1898C918370DA
:1002700080648C93938D848D981306C00288F389D3
:10028000E02D80818F7D80830895EF92FF920F9300
:100290001F93CF93DF93EC0181E0888F9B8D8C8D32
:1002A00098131AC0E889F989808185FF15C09FB726
:1002B000F894EE89FF896083E889F98980818370E9
:1002C000806480839FBF81E090E0DF91CF911F9198
:1002D0000F91FF90EF900895F62E0B8D10E00F5FB9
:1002E0001F4F0F731127E02E8C8D8E110CC00FB68F
:1002F00007FCFACFE889F989808185FFF5CFCE0127
:100300000E942301F1CFEB8DEC0FFD2FF11DE35A7D
:10031000FF4FF0829FB7F8940B8FEA89FB898081A9
:100320008062CFCFCF93DF93EC01888D8823B9F023
:10033000AA89BB89E889F9898C9185FD03C08081F0
:1003400086FD0DC00FB607FCF7CF8C9185FFF2CF6D
:10035000808185FFEDCFCE010E942301E9CFDF919F
:10036000CF9108953FB7F89480914701909148014B
:10037000A0914901B0914A0126B5A89B05C02F3F25
:1003800019F00196A11DB11D3FBFBA2FA92F982FBB
:100390008827BC01CD01620F711D811D911D42E0B6
:1003A000660F771F881F991F4A95D1F708952FB7B9
:1003B000F8946091430170914401809145019091BE
:1003C00046012FBF0895FC0101900020E9F7319705
:1003D000AF01481B590BBC018FE491E00C94A500C0
:1003E0008F929F92AF92BF920F931F93CF93DF9301
:1003F000CDB7DEB7A1970FB6F894DEBF0FBECDBF65
:1004000019A2423008F44AE08E010F5D1F4F842E7E
:10041000912CB12CA12CA50194010E940A05E62F74
:10042000B901CA01EA30F4F4E05DD801EE938D0120
:10043000232B242B252B79F790E080E0109719F0DF
:10044000CD010E94E301A1960FB6F894DEBF0FBE66
:10045000CDBFDF91CF911F910F91BF90AF909F9033
:100460008F900895E95CE1CF1F920F920FB60F9223
:1004700011242F933F934F935F936F937F938F93A9
:100480009F93AF93BF93EF93FF938FE491E00E940C
:100490002301FF91EF91BF91AF919F918F917F9138
:1004A0006F915F914F913F912F910F900FBE0F90E1
:1004B0001F9018951F920F920FB60F9211242F9331
:1004C0008F939F93EF93FF93E0915F01F091600111
:1004D0008081E0916501F091660182FD1BC09081F1
:1004E000809168018F5F8F7320916901821741F0BD
:1004F000E0916801F0E0E15BFE4F958F8093680129
:10050000FF91EF919F918F912F910F900FBE0F90C0
:100510001F9018958081F4CF1F920F920FB60F9203
:1005200011242F933F938F939F93AF93BF93809109
:10053000430190914401A0914501B0914601309151
:10054000420123E0230F2D3758F50196A11DB11D5F
:10055000209342018093430190934401A09345016D
:10056000B09346018091470190914801A0914901C3
:10057000B0914A010196A11DB11D8093470190934E
:100580004801A0934901B0934A01BF91AF919F9157
:100590008F913F912F910F900FBE0F901F90189544
:1005A00026E8230F0296A11DB11DD2CFEFE4F1E0A2
:1005B0001382128288EE93E0A0E0B0E084839583FA
:1005C000A683B78384E091E09183808385EC90E0FB
:1005D0009587848784EC90E09787868780EC90E00D
:1005E000918B808B81EC90E0938B828B82EC90E0FE
:1005F000958B848B86EC90E0978B868B118E128E78
:10060000138E148EECEEF1E016821782108611869E
:10061000128613861486158616861786108A118A06
:10062000128A138A148A158A0895789484B5826090
:1006300084BD84B5816084BD85B5826085BD85B586
:10064000816085BD80916E00816080936E00109204
:10065000810080918100826080938100809181007F
:100660008160809381008091800081608093800010
:100670008091B10084608093B1008091B00081606E
:100680008093B00080917A00846080937A0080919A
:100690007A00826080937A0080917A0081608093F2
:1006A0007A0080917A00806880937A001092C1006D
:1006B00010922E0210922F021092300210923102EC
:1006C0001092EE011092EF011092F0011092F101E0
:1006D0000E94D7016B017C014B015C0128EB820E6B
:1006E0002BE0921EA11CB11C0E94D7016C157D0548
:1006F0008E059F0528F086169706A806B906A0F76E
:100700000E94B2014B015C0148EEC42E43E0D42E9E
:10071000E12CF12C0E94B201681979098A099B0920
:10072000683E734081059105A8F331E0C31AD108F2
:10073000E108F10848EE840E43E0941EA11CB11CB0
:10074000C114D104E104F10429F70E947D000E9444
:10075000D7016093EE017093EF018093F0019093C5
:10076000F10182E191E00E94E3010E94D7016B0157
:100770007C014B015C018AE0880E911CA11CB11C1C
:100780000E94D7016C157D058E059F0528F0861601
:100790009706A806B906A0F781E0809302020E949E
:1007A0007D00EDE9F0E02491E9E8F0E08491882310
:1007B00099F090E0880F991FFC01EE58FF4FA5912A
:1007C000B491FC01E859FF4F859194918FB7F8944B
:1007D000EC91E22BEC938FBF83E291E00E94E30166
:1007E0008AE291E00E94E3014AE065E070E080E087
:1007F00090E00E94F0018AE291E00E94E301C0E0F3
:10080000D0E084EF882E99249394A12CB12C0E94DF
:10081000D701672B682B692B09F4E0C00E94D70130
:10082000C0904B01D0904C01E0904D01F0904E01F2
:100830006C157D058E059F0508F4E3C0C0904B0143
:10084000D0904C01E0904D01F0904E019B01AC0125
:100850002C193D094E095F0969017A013AEFC31667
:10086000D104E104F10408F4C1C060934B0170931A
:100870004C0180934D0190934E018092FA01909229
:10088000FB01A092FC01B092FD011092FE011092BA
:10089000FF0110920002109201028091F2019091EA
:1008A000F301A091F401B091F5018093F6019093CA
:1008B000F701A093F801B093F9010E94D70160936A
:1008C000F2017093F3018093F4019093F5010E947B
:1008D000D7016093EE017093EF018093F001909344
:1008E000F1010E94D7016B017C018DE291E00E9431
:1008F000E3014AE061E070E080E090E00E94F001F6
:1009000084E391E00E94E3014AE0C701B6010E943E
:10091000F00186E391E00E94E3018091F201909161
:10092000F301A091F401B091F501A7019601281BF4
:10093000390B4A0B5B0BCA01B9014AE00E94F00176
:1009400086E391E00E94E3016091F2017091F3016E
:100950008091F4019091F501C090F601D090F701DB
:10096000E090F801F090F9016C197D098E099F095A
:100970004AE00E94F00188E391E00E94E3010E94B6
:10098000D7014AE00E94F0018AE391E00E94E3016E
:100990008AE291E00E94E3010E94D7012B013C0111
:1009A0007C016B0135E0C30ED11CE11CF11C0E94DF
:1009B000D701641575058605970528F0C616D70674
:1009C000E806F906A0F70E94D7016093F201709340
:1009D000F3018093F4019093F50108C00E94D701C0
:1009E000623071058105910508F018CF209709F450
:1009F0000ECF0E940F01882309F409CF0E94000046
:100A000006CF60934B0170934C0180934D019093FE
:100A10004E0114CFA1E21A2EAA1BBB1BFD010DC073
:100A2000AA1FBB1FEE1FFF1FA217B307E407F5079E
:100A300020F0A21BB30BE40BF50B661F771F881F7A
:100A4000991F1A9469F760957095809590959B0110
:100A5000AC01BD01CF010895EE0FFF1F0590F49189
:080A6000E02D0994F894FFCF8A
:100A6800000000004501A500D20092010301E10049
:100A7800F500564D4450565F317C315F564D445019
:100A8800560A006B7572756375000D0A00564D4461
:100A980050455F003A323A007C005F564D4450455D
:020AA80000004C
:107800000C94343C0C94513C0C94513C0C94513CE1
:107810000C94513C0C94513C0C94513C0C94513CB4
:107820000C94513C0C94513C0C94513C0C94513CA4
:107830000C94513C0C94513C0C94513C0C94513C94
:107840000C94513C0C94513C0C94513C0C94513C84
:107850000C94513C0C94513C0C94513C0C94513C74
:107860000C94513C0C94513C11241FBECFEFD8E036
:10787000DEBFCDBF11E0A0E0B1E0ECE9FFE702C060
:1078800005900D92A230B107D9F712E0A2E0B1E065
:1078900001C01D92AD30B107E1F70E942D3D0C945F
:1078A000CC3F0C94003C982F959595959595959582
:1078B000905D8F708A307CF0282F295A8091C0000B
:1078C00085FFFCCF9093C6008091C00085FFFCCF60
:1078D0002093C6000895282F205DF0CF982F809127
:1078E000C00085FFFCCF9093C6000895EF92FF92F1
:1078F0000F931F93EE24FF2487018091C00087FD22
:1079000017C00894E11CF11C011D111D81E4E8164B
:1079100082E4F8068FE0080780E0180770F3E09132
:107920000401F091050109958091C00087FFE9CF1E
:107930008091C6001F910F91FF90EF9008950E94D3
:10794000763C982F8091C00085FFFCCF9093C600B5
:1079500091362CF490330CF09053892F089597555D
:10796000892F08951F930E949F3C182F0E949F3CCF
:107970001295107F810F1F9108951F93182F882350
:1079800021F00E94763C1150E1F71F9108951F935A
:10799000182F0E94763C803249F0809103018F5F5E
:1079A000809303018530C1F01F9108958091C0003C
:1079B00085FFFCCF84E18093C6008091C00085FFE5
:1079C000FCCF1093C6008091C00085FFFCCF80E102
:1079D0008093C6001F910895E0910401F091050184
:1079E00009951F9108950E94763C803241F0809164
:1079F00003018F5F80930301853081F008958091AA
:107A0000C00085FFFCCF84E18093C6008091C00058
:107A100085FFFCCF80E18093C6000895E0910401CA
:107A2000F09105010995089540E951E08823A1F0FE
:107A30002D9A28EE33E0FA013197F1F721503040CA
:107A4000D1F72D9828EE33E0FA013197F1F7215064
:107A50003040D1F7815061F708953F924F925F9285
:107A60006F927F928F929F92AF92BF92CF92DF924E
:107A7000EF92FF920F931F93CF93DF93000080E16B
:107A80008093C4001092C50088E18093C10086E015
:107A90008093C2005098589A259A81E00E94143D24
:107AA00024E1F22E9EE1E92E85E9D82E0FE0C02ECA
:107AB00010E1B12EAA24A394B1E49B2EA6E58A2E50
:107AC000F2E57F2EE0E26E2E79E4572E63E5462E36
:107AD00050E5352E0E94763C8033B1F18133B9F107
:107AE000803409F46FC0813409F476C0823409F41B
:107AF00085C0853409F488C0803531F1823521F1A3
:107B0000813511F1853509F485C0863509F48DC0BC
:107B1000843609F496C0843709F403C1853709F423
:107B200072C1863709F466C0809103018F5F80932C
:107B30000301853079F6E0910401F0910501099582
:107B40000E94763C803351F60E94F33CC3CF0E94E2
:107B5000763C803249F78091C00085FFFCCFF092DF
:107B6000C6008091C00085FFFCCF9092C600809136
:107B7000C00085FFFCCF8092C6008091C00085FFC9
:107B8000FCCF7092C6008091C00085FFFCCF609250
:107B9000C6008091C00085FFFCCF5092C600809146
:107BA000C00085FFFCCF4092C6008091C00085FFD9
:107BB000FCCF3092C6008091C00085FFFCCFB09210
:107BC000C60088CF0E94763C863808F4BDCF0E945C
:107BD000763C0E94F33C7ECF0E94763C803809F4CC
:107BE0009CC0813809F40BC1823809F43CC1883942
:107BF00009F48FC080E00E94C73C6CCF84E10E94F2
:107C0000BD3C0E94F33C66CF85E00E94BD3C0E94D3
:107C1000F33C60CF0E94763C809306010E94763C44
:107C2000809307010E94F33C55CF0E94763C80333D
:107C300009F41DC183E00E94BD3C80E00E94C73C66
:107C400049CF0E94763C809309020E94763C809343
:107C5000080280910C028E7F80930C020E94763C79
:107C6000853409F415C18091080290910902892B8D
:107C700089F000E010E00E94763CF801E85FFE4FDA
:107C800080830F5F1F4F80910802909109020817AF
:107C9000190788F30E94763C803209F045CF809125
:107CA0000C0280FF01C16091060170910701660F0F
:107CB000771F7093070160930601A0910802B091AD
:107CC00009021097C9F0E8E0F1E09B01AD014E0F09
:107CD0005F1FF999FECF32BD21BD819180BDFA9A17
:107CE000F99A2F5F3F4FE417F50799F76A0F7B1F4B
:107CF00070930701609306018091C00085FFFCCF5F
:107D0000F092C6008091C00085FFFCCFB092C60003
:107D1000E1CE83E00E94C73CDDCE82E00E94C73CFA
:107D2000D9CE0E94763C809309020E94763C8093D3
:107D300008028091060190910701880F991F909386
:107D40000701809306010E94763C853409F4A6C0A1
:107D500080910C028E7F80930C020E94763C8032D0
:107D600009F0B8CE8091C00085FFFCCFF092C6002C
:107D7000609108027091090261157105B9F140E046
:107D800050E080910C02A82FA170B82FB27011C0E2
:107D9000BB2309F45CC0E0910601F0910701319624
:107DA000F0930701E09306014F5F5F4F46175707B7
:107DB000E8F4AA2369F3F999FECF209106013091E6
:107DC000070132BD21BDF89A90B58091C00085FFB2
:107DD000FCCF9093C6002F5F3F4F30930701209355
:107DE00006014F5F5F4F4617570718F38091C00099
:107DF00085FDE5CE8091C00085FFF8CFE0CE81E023
:107E00000E94C73C67CE0E94763C803209F08CCE3F
:107E10008091C00085FFFCCFF092C6008091C00029
:107E200085FFFCCFE092C6008091C00085FFFCCFAB
:107E3000D092C6008091C00085FFFCCFC092C600E2
:107E40008091C00085FFFCCFB092C60043CEE09188
:107E50000601F091070194918091C00085FFFCCF4D
:107E60009093C6009CCF80E10E94C73C33CE0E9415
:107E7000763C0E94763C182F0E94763C112309F430
:107E800083C0113009F484C08FE00E94C73C22CE29
:107E900080910C02816080930C02E5CE80910C02EF
:107EA000816080930C0259CF809107018823880F4D
:107EB000880B8A2180930B02809106019091070123
:107EC000880F991F90930701809306018091080203
:107ED00080FF09C080910802909109020196909359
:107EE000090280930802F894F999FECF1127E091D6
:107EF0000601F0910701C8E0D1E08091080290915D
:107F00000902103091F40091570001700130D9F34B
:107F100003E000935700E89500915700017001308D
:107F2000D9F301E100935700E89509901990009169
:107F3000570001700130D9F301E000935700E89534
:107F40001395103498F011270091570001700130FB
:107F5000D9F305E000935700E895009157000170B0
:107F60000130D9F301E100935700E895329602976A
:107F700009F0C7CF103011F00296E5CF112480919F
:107F8000C00085FFB9CEBCCE8EE10E94C73CA2CD19
:0C7F900085E90E94C73C9ECDF894FFCF0D
:027F9C00800063
:040000030000780081
:00000001FF