:100000000C9462000C948A000C948A000C948A0070
:100010000C948A000C948A000C948A000C948A0038
:100020000C948A000C948A000C948A000C948A0028
:100030000C948A000C948A000C948A000C948A0018
:100040000C9421070C948A000C94EF060C94C906BA
:100050000C948A000C948A000C948A000C948A00F8
:100060000C948A000C948A000000000024002700F1
:100070002A0000000000250028002B0000000000DE
:1000800023002600290004040404040404040202DA
:100090000202020203030303030301020408102007
:1000A0004080010204081020010204081020000012
:1000B0000008000201000003040700000000000027
:1000C00000006B0711241FBECFEFD8E0DEBFCDBF0D
:1000D00022E0AEEAB1E001C01D92A43AB207E1F716
:1000E00011E0A0E0B1E0E6E4FEE102C005900D926F
:1000F000AE3AB107D9F710E0C2E6D0E004C02197CC
:10010000FE010E94300DC136D107C9F70E94AA072F
:100110000C94210F0C940000EDEBF1E0A089B18963
:1001200082E08C93A485B5851C92A685B7858FEC5B
:100130008C93108EA489B58986E08C93A289B389AB
:100140008C9180618C93A289B3898C9188608C9307
:10015000A289B3898C9180688C930288F389E02D01
:1001600080818F7D80830895AF92BF92CF92DF927E
:10017000EF92FF920F931F93CF93DF936C017B015C
:100180008B01040F151FEB015E01AE18BF08C017ED
:10019000D10759F06991D601ED91FC910190F08160
:1001A000E02DC6010995892B79F7C501DF91CF9123
:1001B0001F910F91FF90EF90DF90CF90BF90AF9085
:1001C0000895FC01538D448D252F30E0842F90E05D
:1001D000821B930B541710F0CF9608950197089542
:1001E000FC01918D828D981761F0A28DAE0FBF2F0B
:1001F000B11D5D968C91928D9F5F9F73928F90E061
:1002000008958FEF9FEF0895FC01918D828D9817CF
:1002100031F0828DE80FF11D858D90E008958FEF0C
:100220009FEF0895FC01918D228D892F90E0805CD5
:100230009F4F821B91098F73992708958DEB91E051
:100240000E94120121E0892B09F420E0822F0895F9
:1002500080E090E0892B29F00E941E0181110C940E
:1002600000000895FC01A48DA80FB92FB11DA35A59
:10027000BF4F2C91848D90E001968F739927848FC6
:10028000A689B7892C93A089B1898C9183708064E9
:100290008C93938D848D981306C00288F389E02D8A
:1002A00080818F7D80830895EF92FF920F931F933B
:1002B000CF93DF93EC0181E0888F9B8D8C8D981319
:1002C0001AC0E889F989808185FF15C09FB7F89425
:1002D000EE89FF896083E889F98980818370806471
:1002E00080839FBF81E090E0DF91CF911F910F91BC
:1002F000FF90EF900895F62E0B8D10E00F5F1F4FCB
:100300000F731127E02E8C8D8E110CC00FB607FCD9
:10031000FACFE889F989808185FFF5CFCE010E9467
:100320003201F1CFEB8DEC0FFD2FF11DE35AFF4FA2
:10033000F0829FB7F8940B8FEA89FB8980818062F5
:10034000CFCF682F8DEB91E00C945401CF93DF93C6
:10035000EC01888D8823B9F0AA89BB89E889F989DD
:100360008C9185FD03C0808186FD0DC00FB607FC12
:10037000F7CF8C9185FFF2CF808185FFEDCFCE0145
:100380000E943201E9CFDF91CF910895833081F04F
:1003900028F4813099F08230A9F008958730A9F0CF
:1003A0008830C9F08430B1F4809180008F7D03C023
:1003B000809180008F7780938000089584B58F7737
:1003C00084BD089584B58F7DFBCF8091B0008F7779
:1003D0008093B00008958091B0008F7DF9CFCF93C6
:1003E000DF93282F30E0F901E255FF4F8491F901A6
:1003F000E656FF4FD491F901EA57FF4FC491CC2341
:10040000A1F081110E94C601EC2FF0E0EE0FFF1F5A
:10041000E458FF4FA591B491EC91ED2381E090E079
:1004200009F480E0DF91CF91089580E090E0FACF69
:100430001F93CF93DF93282F30E0F901E255FF4F50
:100440008491F901E656FF4FD491F901EA57FF4F25
:10045000C491CC23A9F0162F81110E94C601EC2F64
:10046000F0E0EE0FFF1FEE58FF4FA591B4918FB74C
:10047000F894EC91111108C0D095DE23DC938FBF66
:10048000DF91CF911F910895DE2BF8CFCF93DF93AB
:1004900090E0FC01E656FF4F24918A579F4FFC01E4
:1004A00084918823D1F090E0880F991FFC01E859CE
:1004B000FF4FA591B491FC01EE58FF4FC591D49127
:1004C00061110EC09FB7F8948C91E22FE0958E23B6
:1004D0008C932881E223E8839FBFDF91CF91089519
:1004E0008FB7F894EC91E22BEC938FBFF6CF3FB728
:1004F000F8948091B3019091B401A091B501B091AD
:10050000B60126B5A89B05C02F3F19F00196A11D85
:10051000B11D3FBFBA2FA92F982F8827BC01CD014D
:10052000620F711D811D911D42E0660F771F881FAC
:10053000991F4A95D1F708958F929F92AF92BF92DB
:10054000CF92DF92EF92FF924B015C010E94770203
:100550006B017C010E9477026C197D098E099F094D
:10056000683E734081059105A8F321E0821A910845
:10057000A108B10888EEC80E83E0D81EE11CF11C6A
:1005800081149104A104B10429F7FF90EF90DF904A
:10059000CF90BF90AF909F908F9008952FB7F89411
:1005A0006091AF017091B0018091B1019091B20161
:1005B0002FBF08954F925F926F927F929F92AF925A
:1005C000BF92CF92DF92EF92FF920F931F93CF9340
:1005D000DF93EC016B01142F022F8B859C85892BF7
:1005E00031F08A85813099F0823009F475C0DF914D
:1005F000CF911F910F91FF90EF90DF90CF90BF9020
:10060000AF909F907F906F905F904F900895F42EE1
:100610008D85F816E8F4AF2CB12C88899989F501FD
:10062000EE0FFF1FEC0DFD1D91838083EB85FC8594
:10063000EA0DFB1D61E080810E944602EB85FC858E
:10064000EA0DFB1D61E080810E941802F00EE0CFF0
:1006500083E290E00197F1F7F8940E9477022B0172
:10066000F12E8D85F81650F4EB85FC85EF0DF11D0C
:1006700060E080810E944602F00EF3CF7894B12CA6
:10068000A12C88899989A816B90608F0B0CFF894EA
:100690000E9477025B01A418B508912E8D859816EB
:1006A000C8F4E92CF12CEB85FC85EE0DFF1D808153
:1006B0000E94EF01892B61F4EE0CFF1CF601EE0D98
:1006C000FF1D80819181A816B90610F4B182A08225
:1006D000900EE4CF7894D5CF842F9D85891750F460
:1006E000E82FF0E0EE0FFF1FEC0DFD1D11821082D0
:1006F000800FF3CF20E08A89281770F5912F8D8520
:10070000981740F5E92FF0E0AB85BC85AE0FBF1F11
:100710008C918E3008F08E508770806480937C00BE
:1007200080917A00806480937A0080917A0086FDBF
:10073000FCCF6091780040917900EE0FFF1FEC0D27
:10074000FD1D742F40815181460F571F51834083F7
:10075000900FD5CF2F5FCFCF8D85181708F047CFDB
:10076000E12FF0E0EE0FFF1FEC0DFD1D6A8970E038
:10077000CB019595879520813181820F931F0E942F
:10078000F60C71836083100FE7CFFF920F931F93D6
:10079000CF93DF93EC01162FF42E662331F08D8971
:1007A000823079F500E0613089F48B898F3F51F018
:1007B0000E94EF01019731F460E08B890E941802DA
:1007C00001E001C000E08D898230B9F41D7FA9F4F9
:1007D0008C898F3F91F00E94EF01019771F460E0E6
:1007E0008C890E941802FF2061F08E89882379F09D
:1007F0008BEB92E10197F1F704C0FF2011F001119A
:10080000F4CFDF91CF911F910F91FF9008958BE16D
:1008100093E0F0CFFC0101900020E9F73197AF01A0
:10082000481B590BBC018DEB91E00C94B40080E2A5
:1008300091E00C940A048F929F92AF92BF920F9313
:100840001F93CF93DF93CDB7DEB7A1970FB6F89480
:10085000DEBF0FBECDBF19A2423008F44AE08E01C0
:100860000F5D1F4F842E912CB12CA12CA50194015A
:100870000E944D0CE62FB901CA01EA30F4F4E05DA4
:10088000D801EE938D01232B242B252B79F790E0B3
:1008900080E0109719F0CD010E940A04A1960FB6CE
:1008A000F894DEBF0FBECDBFDF91CF911F910F91A6
:1008B000BF90AF909F908F900895E95CE1CF0C942A
:1008C0000A04CF93DF930E940A04EC010E941704EC
:1008D0008C0F9D1FDF91CF910895CF92DF92EF9201
:1008E000FF92CF93DF936C01990FEE08FF08F7FE9C
:1008F0001BC08DE20E94A101EC0166277727CB0186
:100900006C197D098E099F094AE00E941B04C80FDB
:10091000D91F0E9417048C0F9D1FDF91CF91FF906C
:10092000EF90DF90CF9008954AE0C701B6010E9492
:100930001B04EC01EECFCF92DF92EF92FF920F9368
:100940001F93CF93DF938C01C62FFC0186898823E8
:1009500069F0862F0E94EF01019741F460E08C2F2F
:100960000E9418028BEB92E10197F1F761E08C2F66
:100970000E9418020E9477026B01F8018689882381
:10098000A1F08789882389F0F894D0E0F80187895D
:10099000D81750F460E08C2F0E94180261E08C2F71
:1009A0000E941802DF5FF2CF7894C601DF91CF91E9
:1009B0001F910F91FF90EF90DF90CF900895EF92ED
:1009C000FF920F931F93CF93DF93EC01162F6623B3
:1009D00031F18D89823009F100E08D898230A9F5ED
:1009E0001D7F99F58C898F3F81F19E89992349F16B
:1009F0006C89CE010E949B047C018E89882371F151
:100A0000C3E2D0E00E9477026E197F096C32714018
:100A1000F0F4CE010197F1F7F5CF6130E9F68B895B
:100A20008F3FD1F29E89992339F06B89CE010E94C4
:100A30009B047C0101E0D1CF0E94EF01892BA9F337
:100A4000CBCF0E94EF01892B99F20111D6CFDF9114
:100A5000CF911F910F91FF90EF9008958BE193E05C
:100A60000197F1F7F4CF4F925F926F927F928F923E
:100A70009F92AF92BF92CF92DF92EF92FF920F932D
:100A80001F93CF93DF93CDB7DEB7C85FD1090FB601
:100A9000F894DEBF0FBECDBF8C017B01C42EDB01FD
:100AA0008C9181115FC01396AD90BC90F801658563
:100AB00070E0660F771FC5010E945B0ED701149688
:100AC0009C938E931397892BD9F4C5010E94D20D64
:100AD000C850DF4F0FB6F894DEBF0FBECDBFDF9119
:100AE000CF911F910F91FF90EF90DF90CF90BF902B
:100AF000AF909F908F907F906F905F904F900895F0
:100B0000F701A180B280D8011D966C9170E0660F4C
:100B1000771FC5010E945B0EAC01F70192838183B0
:100B200090E04115510589F2D8011D968C919817D6
:100B3000B0F4292F30E0220F331FD7011396ED9127
:100B4000FC91E20FF31F11821082F8016089718914
:100B5000240F351FD9016D937C939F5FE5CF81E012
:100B6000F7018083D12C43E2A42EB12CF1E0CF1603
:100B700040F082E08C1508F03FC093E0C91609F4FC
:100B80007AC041E060E0C8010E94C50321E040E076
:100B9000BE01615C7F4FC8010E94DA02D8011D9638
:100BA0006C90DE01A554BF4F2E01EDE74E0E511C97
:100BB0009E01215C3F4F712C4D01B201671409F475
:100BC000B3C0F901819191919F01DD2009F4A3C087
:100BD000F201408151814817590708F49CC04D919A
:100BE0005C9111978417950708F49AC07394129634
:100BF000F2E04F0E511CE2CF60E0C8010E94DF041A
:100C000021E040E0BE01615C7F4FC8010E94DA0232
:100C100041E060E0C8010E94C503F2E0CF12BECF00
:100C200021E040E0BE016F5F7F4FC8010E94DA0201
:100C3000D8011D967C91FE01FF96CE0101964C01D4
:100C400060E0761709F4AACFD80150962D913C9117
:100C5000D4014D915D914D0180819181820F931F4F
:100C6000841B950B2817390708F452C091838083A1
:100C70006F5F3296E6CF40E062E0C8010E94C50394
:100C80000E9477022B0161E0C8010E94DF04D801B5
:100C900056968C91882359F00E9477026419750941
:100CA000603B744020F4C5010197F1F7F5CF22E0D5
:100CB00040E0BE01615C7F4FC8010E94DA0240E063
:100CC00061E0C8010E94C5030E9477022B0162E027
:100CD000C8010E94DF04F8018689882359F00E9428
:100CE000770264197509603B744020F4C5010197CF
:100CF000F1F7F5CF22E041E0BE01615C7F4FC80112
:100D00000E94DA0241E060E0C8010E94C50346CFBC
:100D100031832083ADCFF20191838083D1105FCFE7
:100D200011969C938E9362CFD3948AE0D8121ECFF3
:100D300020E0D8011D968C91281708F0C9CE822F8B
:100D400090E0880F991FF401E80FF91F408151814D
:100D5000D7011396ED91FC91E80FF91FA081B181A5
:100D6000A417B50710F451834083FB01E80FF91F66
:100D700040815181D7011196ED91FC91E80FF91F47
:100D8000808191814817590710F4518340832F5F68
:100D9000D0CF1F920F920FB60F9211242F933F9333
:100DA0004F935F936F937F938F939F93AF93BF9373
:100DB000EF93FF938DEB91E00E943201FF91EF9151
:100DC000BF91AF919F918F917F916F915F914F9163
:100DD0003F912F910F900FBE0F901F9018951F926B
:100DE0000F920FB60F9211242F938F939F93EF932F
:100DF000FF93E091CD01F091CE018081E091D3018C
:100E0000F091D40182FD1BC090818091D6018F5F4B
:100E10008F732091D701821741F0E091D601F0E065
:100E2000E354FE4F958F8093D601FF91EF919F91F0
:100E30008F912F910F900FBE0F901F90189580816A
:100E4000F4CF1F920F920FB60F9211242F933F935E
:100E50008F939F93AF93BF938091AF019091B00117
:100E6000A091B101B091B2013091AE0123E0230F06
:100E70002D3758F50196A11DB11D2093AE01809329
:100E8000AF019093B001A093B101B093B2018091F2
:100E9000B3019091B401A091B501B091B601019652
:100EA000A11DB11D8093B3019093B401A093B5012E
:100EB000B093B601BF91AF919F918F913F912F91C8
:100EC0000F900FBE0F901F90189526E8230F0296E3
:100ED000A11DB11DD2CFEDEBF1E01382128288EE9D
:100EE00093E0A0E0B0E084839583A683B78382E19A
:100EF00091E09183808385EC90E09587848784ECF2
:100F000090E09787868780EC90E0918B808B81ECD6
:100F100090E0938B828B82EC90E0958B848B86ECB7
:100F200090E0978B868B118E128E138E148EEAE5CD
:100F3000F2E01682178210861186128613861486B6
:100F4000158616861786108A118A128A138A148AC1
:100F5000158A0895789484B5826084BD84B58160D3
:100F600084BD85B5826085BD85B5816085BD809174
:100F70006E00816080936E001092810080918100EC
:100F800082608093810080918100816080938100E4
:100F9000809180008160809380008091B1008460A6
:100FA0008093B1008091B00081608093B000809107
:100FB0007A00846080937A0080917A0082608093C6
:100FC0007A0080917A00816080937A0080917A0023
:100FD000806880937A001092C10010929C02109257
:100FE0009D0210929E0210929F0210925C0210923B
:100FF0005D0210925E0210925F020E94CE026B01AF
:101000007C014B015C0128EB820E2BE0921EA11C9F
:10101000B11C0E94CE026C157D058E059F0528F03F
:1010200086169706A806B906A0F768EE73E080E07A
:1010300090E00E949C020E948C000E94CE0260936D
:101040005C0270935D0280935E0290935F0283E284
:1010500091E00E945F040E94CE026B017C014B0173
:101060005C013AE0830E911CA11CB11C0E94CE02CF
:101070006C157D058E059F0528F086169706A80637
:10108000B906A0F711E0109370020E948C0084E072
:1010900090E00E94360D7C0184E391E00E9461049F
:1010A0008FE290E00E94360DEC0118821A821982BC
:1010B0001C821B821D821F821E82198618861C8636
:1010C0001B861D8684EC99E09F878E8784E08A8B3F
:1010D0008FEF8B8B8C8B1D8A1E8B1F8A198E188E1F
:1010E00082E08A878FEF93E0998B888B68E070E0CD
:1010F00090E080E00E945B0E9C878B87892B91F0AB
:10110000A6E0B1E090E080E02D91EB85FC85E80F52
:10111000F91F2083019688309105B1F788E08D870B
:1011200018821D8261E08DE00E94460261E08DE040
:101130000E94180204E610E041E0BE01CE010E94C8
:10114000330501501109C1F760E08DE00E941802DB
:101150000E948C00D12CC12CE981FA81EC0DFD1D7F
:101160006081718190E080E04AE00E941B0480E28F
:101170000E94A10142E0C40ED11C50E1C516D10469
:1011800059F70E941704EB81FC81E00FF11F608189
:10119000718190E080E04AE00E941B0480E20E949E
:1011A000A1010E5F1F4F0031110569F70E9417045E
:1011B0000E94170468EE73E080E090E00E949C02B9
:1011C000D701CD93DC938FE391E00E945F04D701B8
:1011D000ED91FC9183A594A50E946D0484E090E0BC
:1011E0000E94360DEC01F7010081118186E591E046
:1011F0000E9461041B830A83198218828EE591E0A4
:101200000E945F04EA81FB8183A594A50E946D047E
:10121000D7011396DC93CE931297F092B801E09227
:10122000B7010E94CE02672B682B692B09F4DFC03F
:101230000E94CE020091B9011091BA012091BB0128
:101240003091BC01601771078207930708F431C120
:101250000091B9011091BA012091BB013091BC01FC
:101260006B017C01C01AD10AE20AF30A97018601D8
:101270000A3F11052105310508F4C1C06093B90189
:101280007093BA018093BB019093BC0124EF31E0CD
:1012900040E050E0209368023093690240936A0274
:1012A00050936B0210926C0210926D0210926E02BB
:1012B00010926F028091600290916102A09162028F
:1012C000B09163028093640290936502A0936602DA
:1012D000B09367020E94CE02609360027093610235
:1012E00080936202909363020E94CE0260935C023C
:1012F00070935D0280935E0290935F020E94CE0223
:101300006B017C0182E791E00E945F044AE061E0AA
:1013100070E080E090E00E941B0489E791E00E9469
:101320005F044AE0C701B6010E941B048BE791E00D
:101330000E945F048091600290916102A09162021C
:10134000B0916302A7019601281B390B4A0B5B0B76
:10135000CA01B9014AE00E941B048BE791E00E9498
:101360005F046091600270916102809162029091CD
:10137000630200916402109165022091660230912F
:101380006702601B710B820B930B4AE00E941B04E7
:101390008DE791E00E945F040E94CE024AE00E9425
:1013A0001B048FE791E00E9461040E94CE024B0172
:1013B0005C017C016B0135E0C30ED11CE11CF11C0A
:1013C0000E94CE02681579058A059B0528F0C6168D
:1013D000D706E806F906A0F70E94CE0260936002E5
:1013E00070936102809362029093630208C00E942E
:1013F000CE02623071058105910508F019CF209069
:10140000B7013090B801D101CD91DC918E01055E1C
:101410001F4F8881882309F455C060E0CE010E94E7
:10142000DF0421E040E0B801CE010E94DA0241E091
:1014300060E0CE010E94C503D12C8D85D81608F03E
:1014400041C0ED2CF12CEE0CFF1CE981FA81EE0D70
:10145000FF1D80819181EB81FC81EE0DFF1D0190CC
:10146000F081E02DE81BF90BE00EF11E3097D1F072
:10147000D7012D913C9150E040E0281B390B4109E8
:101480005109A8EEB3E00E946F0C9F0150E040E0CC
:101490000E940A0D293EB3E03B0714F028EE33E02A
:1014A00037FF02C030E020E0F70131832083D3947E
:1014B000C4CF6093B9017093BA018093BB0190933C
:1014C000BC01C6CEDD842801F12CE12CC12C50E0FA
:1014D00040E0812C912C5401712CDC14E9F0D201F4
:1014E000ED91FD912D01E93CF10598F4E333F1050F
:1014F00050F09F01D7010E94290D860E971EA81E4D
:10150000B91E4E0F5F1FC394B8E1EB1ABCEFFB0A84
:10151000E4CF77247394EDCF7110B9C0ED2DE15075
:10152000FF0B34EFC32EDD24D394EC9D9001ED9D91
:10153000300DFC9D300D1124488D598D70E060E018
:101540004217530758F028EEE22E23E0F22EEE9DCC
:10155000B001EF9D700DFE9D700D11247CA76BA74F
:101560007EA76DA70E941704AB96D801CD90DD90A1
:101570008D010D2C000CEE08FF084AE0C701B601F2
:10158000F7FE0BC08DE20E94A10166277727CB01F1
:101590006C197D098E099F094AE00E941B0489E0AD
:1015A0000E94A101C017D10701F70E941704F101A1
:1015B000C281D3810E9417048EE591E00E945F04EE
:1015C000EA81FB8183A594A50E946D040E94170403
:1015D000EA81FB8105A516A56801012E000CEE0825
:1015E000FF08B601C7010E94540B27E137EB41ED1C
:1015F00058E30E948F0B4B015C0188819981B801EF
:10160000681B790B072E000C880B990B0E94540B5A
:101610002DEC3CEC4CEC5DE30E948F0B0E94C00C67
:101620002B01C701B6010E94540B2AE037ED43E2BB
:101630005DE30E948F0B0E94C00C460E571EC50131
:10164000B4010E94C00C460E571E1983088386E819
:1016500091E00E94610481EA91E00E945F04C2016E
:101660000E946D0464EF71E080E090E00E949C02B3
:1016700080E0C82E80E0D82ECD2809F4D2CD0E947B
:101680001E01882309F4CDCD0E940000CACD9A0125
:1016900050E040E0C501B4010E944D0CB901398F02
:1016A000288F5CCFE89409C097FB3EF49095809515
:1016B000709561957F4F8F4F9F4F9923A9F0F92F18
:1016C00096E9BB279395F695879577956795B79596
:1016D000F111F8CFFAF4BB0F11F460FF1BC06F5F7C
:1016E0007F4F8F4F9F4F16C0882311F096E911C08E
:1016F000772321F09EE8872F762F05C0662371F0AF
:1017000096E8862F70E060E02AF09A95660F771FC2
:10171000881FDAF7880F9695879597F908950E94A4
:10172000A20B0C94130C0E94050C38F00E940C0CB8
:1017300020F0952311F00C94FC0B0C94020C112456
:101740000C94470C0E94240C70F3959FC1F3950FE5
:1017500050E0551F629FF001729FBB27F00DB11D35
:10176000639FAA27F00DB11DAA1F649F6627B00DC5
:10177000A11D661F829F2227B00DA11D621F739FAE
:10178000B00DA11D621F839FA00D611D221F749FBC
:101790003327A00D611D231F849F600D211D822F03
:1017A000762F6A2F11249F5750409AF0F1F088232A
:1017B0004AF0EE0FFF1FBB1F661F771F881F915057
:1017C0005040A9F79E3F510580F00C94FC0B0C94FF
:1017D000470C5F3FE4F3983ED4F386957795679581
:1017E000B795F795E7959F5FC1F7FE2B880F911D81
:1017F0009695879597F9089597F99F6780E870E027
:1018000060E008959FEF80EC089500240A94161676
:10181000170618060906089500240A9412161306DE
:10182000140605060895092E0394000C11F488236C
:1018300052F0BB0F40F4BF2B11F460FF04C06F5F88
:101840007F4F8F4F9F4F089557FD9058440F551F5E
:1018500059F05F3F71F04795880F97FB991F61F032
:101860009F3F79F087950895121613061406551FA9
:10187000F2CF4695F1DF08C0161617061806991F15
:10188000F1CF86957105610508940895E894BB270A
:1018900066277727CB0197F90895A1E21A2EAA1B94
:1018A000BB1BFD010DC0AA1FBB1FEE1FFF1FA21710
:1018B000B307E407F50720F0A21BB30BE40BF50B0D
:1018C000661F771F881F991F1A9469F76095709596
:1018D000809590959B01AC01BD01CF0108950E94B8
:1018E000B10CA59F900DB49F900DA49F800D911DEC
:1018F000112408952F923F924F925F926F927F92A0
:101900008F929F92AF92BF92CF92DF92EF92FF920F
:101910000F931F93CF93DF93CDB7DEB7CA1BDB0BBB
:101920000FB6F894DEBF0FBECDBF09942A88398860
:1019300048885F846E847D848C849B84AA84B98467
:10194000C884DF80EE80FD800C811B81AA81B98173
:10195000CE0FD11D0FB6F894DEBF0FBECDBFED0187
:101960000895A29FB001B39FC001A39F700D811D78
:101970001124911DB29F700D811D1124911D089598
:101980000E94C70C6894B1110C94470C08950E94F2
:101990002C0C88F09F5798F0B92F9927B751B0F0C9
:1019A000E1F0660F771F881F991F1AF0BA95C9F7E3
:1019B00014C0B13091F00E94460CB1E008950C942F
:1019C000460C672F782F8827B85F39F0B93FCCF3E2
:1019D000869577956795B395D9F73EF49095809560
:1019E000709561957F4F8F4F9F4F0895AA1BBB1B2A
:1019F00051E107C0AA1FBB1FA617B70710F0A61B0F
:101A0000B70B881F991F5A95A9F780959095BC012F
:101A1000CD010895052E97FB1EF400940E94210D20
:101A200057FD07D00E944D0C07FC03D04EF40C94D8
:101A3000210D50954095309521953F4F4F4F5F4F69
:101A4000089590958095709561957F4F8F4F9F4F2A
:101A500008950E94B10CB7FF0895821B930B08955F
:101A6000EE0FFF1F0590F491E02D09940F931F9343
:101A7000CF93DF938230910510F482E090E0E09103
:101A8000A202F091A30230E020E0B0E0A0E03097A5
:101A900099F42115310509F44AC0281B390B24306B
:101AA0003105D8F58A819B816115710589F1FB01AA
:101AB00093838283FE0111C0408151810281138191
:101AC00048175907E0F04817590799F4109761F043
:101AD00012960C93129713961C933296CF01DF91B6
:101AE000CF911F910F9108950093A2021093A3022A
:101AF000F4CF2115310551F04217530738F0A901F1
:101B0000DB019A01BD01DF01F801C1CFEF01F9CF7F
:101B10009093A3028093A202CDCFFE01E20FF31FA8
:101B2000819391932250310939832883D7CF209113
:101B3000A0023091A102232B41F4209102013091A7
:101B400003013093A1022093A00220910001309163
:101B500001012115310541F42DB73EB74091040133
:101B600050910501241B350BE091A002F091A102D8
:101B7000E217F307A0F42E1B3F0B2817390778F064
:101B8000AC014E5F5F4F2417350748F04E0F5F1FC3
:101B90005093A1024093A002819391939FCFF0E0D4
:101BA000E0E09CCFCF93DF930097E9F0FC01329700
:101BB00013821282A091A202B091A302ED0130E043
:101BC00020E01097A1F420813181820F931F209192
:101BD000A0023091A1022817390709F061C0F093E3
:101BE000A102E093A002DF91CF910895EA01CE1700
:101BF000DF07E8F54A815B819E0141155105B1F788
:101C0000E901FB83EA8349915991C40FD51FEC1771
:101C1000FD0761F4808191810296840F951FE9018F
:101C200099838883828193819B838A83F0E0E0E0BB
:101C300012968D919C9113970097B9F52D913C9137
:101C40001197CD010296820F931F2091A00230912F
:101C5000A1022817390739F6309751F51092A302DF
:101C60001092A202B093A102A093A002BCCFD38392
:101C7000C28340815181840F951FC817D90761F431
:101C80004E5F5F4F88819981480F591F5183408370
:101C90008A819B81938382832115310509F0B0CF1E
:101CA000F093A302E093A2029ECFFD01DC01C0CF1E
:101CB00013821282D7CFB0E0A0E0E1E6FEE00C9400
:101CC0007C0C8C01009751F4CB010E94360D8C01E5
:101CD000C801CDB7DEB7E0E10C94980CFC01E60F2B
:101CE000F71F9C0122503109E217F30708F49DC049
:101CF000D901CD91DC911197C617D70798F0C5305F
:101D0000D10530F3CE0104978617970708F3C61B59
:101D1000D70B2297C193D1936D937C93CF010E94EF
:101D2000D20DD6CF5B01AC1ABD0A4C018C0E9D1EA4
:101D3000A091A202B091A302512C412CF12CE12CD4
:101D4000109731F58091A0029091A1028815990514
:101D500009F05CC04616570608F058C08091000193
:101D600090910101009741F48DB79EB74091040115
:101D700050910501841B950BE817F90708F055C031
:101D8000F093A102E093A002F90171836083A0CFD8
:101D90008D919C91119712966C90129713967C904E
:101DA0001397A815B90559F56C0142E0C40ED11C72
:101DB000CA14DB0420F1AC014A195B09DA0112965E
:101DC000159780F06282738251834083D9016D93AD
:101DD0007C93E114F10471F0D7011396FC93EE9318
:101DE000129776CF22968C0F9D1FF90191838083E5
:101DF000F301EFCFF093A302E093A20269CF48165C
:101E0000590608F42C017D01D3019ACFCB010E9421
:101E1000360D7C01009749F0AE01B8010E94180F01
:101E2000C8010E94D20D870153CF10E000E050CFCF
:101E3000FB01DC0102C001900D9241505040D8F7E7
:061E40000895F894FFCFA5
:101E46000000A40280001514131211100F0E0000DA
:101E560000005401B400E100A6011201F0000401E3
:101E66000D0A00564D4450565F317C315F564D4445
:101E760050560A006D616E616765206B7572006D64
:101E8600616E616765206C696E652E706F7369742B
:101E9600696F6E3A2000706964206B757200706914
:101EA60064206C696E652E706F736974696F6E3A23
:101EB6002000564D4450455F003A323A007C005FA0
:101EC600564D4450450067656E6572616C65766572
:101ED6006E74207069642E63616C63756C617465E1
:0E1EE600006C65667420647574793A20000003
:00000001FF
