:100000000C9435000C945D000C945D000C945D0024
:100010000C945D000C945D000C945D000C945D00EC
:100020000C945D000C945D000C945D000C945D00DC
:100030000C945D000C945D000C945D000C945D00CC
:100040000C946E020C945D000C943C020C9416020D
:100050000C945D000C945D000C945D000C945D00AC
:100060000C945D000C945D00B80211241FBECFEF0C
:10007000D8E0DEBFCDBF22E0AAE3B1E001C01D920F
:10008000AE32B207E1F711E0A0E0B1E0E4E2FAE05D
:1000900002C005900D92AA33B107D9F710E0C5E36D
:1000A000D0E004C02197FE010E940A05C433D107A5
:1000B000C9F70E9401030C9410050C940000E7E4BA
:1000C000F1E0A089B18982E08C93A485B5851C926A
:1000D000A685B7858FEC8C93108EA489B58986E0B0
:1000E0008C93A289B3898C9180618C93A289B38906
:1000F0008C9188608C93A289B3898C9180688C9351
:100100000288F389E02D80818F7D80830895AF92EE
:10011000BF92CF92DF92EF92FF920F931F93CF93F4
:10012000DF936C017B018B01040F151FEB015E0156
:10013000AE18BF08C017D10759F06991D601ED91EB
:10014000FC910190F081E02DC6010995892B79F78A
:10015000C501DF91CF911F910F91FF90EF90DF903C
:10016000CF90BF90AF900895FC01538D448D252F03
:1001700030E0842F90E0821B930B541710F0CF9641
:10018000089501970895FC01918D828D981761F073
:10019000A28DAE0FBF2FB11D5D968C91928D9F5F8A
:1001A0009F73928F90E008958FEF9FEF0895FC0169
:1001B000918D828D981731F0828DE80FF11D858D1C
:1001C00090E008958FEF9FEF0895FC01918D228DAF
:1001D000892F90E0805C9F4F821B91098F73992734
:1001E000089587E491E00E94E50021E0892B09F45D
:1001F00020E0822F089580E090E0892B29F00E9472
:10020000F10081110C9400000895FC01A48DA80F49
:10021000B92FB11DA35ABF4F2C91848D90E0019648
:100220008F739927848FA689B7892C93A089B18968
:100230008C91837080648C93938D848D981306C009
:100240000288F389E02D80818F7D80830895EF926D
:10025000FF920F931F93CF93DF93EC0181E0888F80
:100260009B8D8C8D98131AC0E889F989808185FF50
:1002700015C09FB7F894EE89FF896083E889F989F2
:1002800080818370806480839FBF81E090E0DF91F4
:10029000CF911F910F91FF90EF900895F62E0B8D47
:1002A00010E00F5F1F4F0F731127E02E8C8D8E1102
:1002B0000CC00FB607FCFACFE889F989808185FF69
:1002C000F5CFCE010E940501F1CFEB8DEC0FFD2F94
:1002D000F11DE35AFF4FF0829FB7F8940B8FEA8924
:1002E000FB8980818062CFCFCF93DF93EC01888D33
:1002F0008823B9F0AA89BB89E889F9898C9185FDA1
:1003000003C0808186FD0DC00FB607FCF7CF8C912E
:1003100085FFF2CF808185FFEDCFCE010E940501E0
:10032000E9CFDF91CF9108953FB7F89480913F01D5
:1003300090914001A0914101B091420126B5A89B46
:1003400005C02F3F19F00196A11DB11D3FBFBA2F67
:10035000A92F982F8827BC01CD01620F711D811D27
:10036000911D42E0660F771F881F991F4A95D1F7AC
:1003700008952FB7F89460913B0170913C018091F2
:100380003D0190913E012FBF0895FC010190002096
:10039000E9F73197AF01481B590BBC0187E491E0A5
:1003A0000C9487008F929F92AF92BF920F931F93EE
:1003B000CF93DF93CDB7DEB7A1970FB6F894DEBF2A
:1003C0000FBECDBF19A2423008F44AE08E010F5D86
:1003D0001F4F842E912CB12CA12CA50194010E94B9
:1003E000E804E62FB901CA01EA30F4F4E05DD8016F
:1003F000EE938D01232B242B252B79F790E080E0C1
:10040000109719F0CD010E94C501A1960FB6F8947E
:10041000DEBF0FBECDBFDF91CF911F910F91BF9077
:10042000AF909F908F900895E95CE1CF1F920F925B
:100430000FB60F9211242F933F934F935F936F93B7
:100440007F938F939F93AF93BF93EF93FF9387E433
:1004500091E00E940501FF91EF91BF91AF919F91B3
:100460008F917F916F915F914F913F912F910F905D
:100470000FBE0F901F9018951F920F920FB60F92FC
:1004800011242F938F939F93EF93FF93E091570144
:10049000F09158018081E0915D01F0915E0182FD53
:1004A0001BC09081809160018F5F8F7320916101EB
:1004B000821741F0E0916001F0E0E95BFE4F958F1B
:1004C00080936001FF91EF919F918F912F910F90F9
:1004D0000FBE0F901F9018958081F4CF1F920F923E
:1004E0000FB60F9211242F933F938F939F93AF9347
:1004F000BF9380913B0190913C01A0913D01B0914F
:100500003E0130913A0123E0230F2D3758F5019633
:10051000A11DB11D20933A0180933B0190933C01B2
:10052000A0933D01B0933E0180913F019091400125
:10053000A0914101B09142010196A11DB11D80938E
:100540003F0190934001A0934101B0934201BF91BC
:10055000AF919F918F913F912F910F900FBE0F9070
:100560001F90189526E8230F0296A11DB11DD2CF2A
:10057000E7E4F1E01382128288EE93E0A0E0B0E0BD
:1005800084839583A683B78384E091E091838083FD
:1005900085EC90E09587848784EC90E09787868748
:1005A00080EC90E0918B808B81EC90E0938B828B40
:1005B00082EC90E0958B848B86EC90E0978B868B19
:1005C000118E128E138E148EE4EEF1E016821782D5
:1005D000108611861286138614861586168617864F
:1005E000108A118A128A138A148A158AEAE2F2E0C2
:1005F00081E090E09183808382E090E09383828326
:100600000895789484B5826084BD84B5816084BD8A
:1006100085B5826085BD85B5816085BD80916E00A0
:10062000816080936E0010928100809181008260D1
:10063000809381008091810081608093810080910E
:1006400080008160809380008091B10084608093FD
:10065000B1008091B00081608093B00080917A00F9
:10066000846080937A0080917A00826080937A001F
:1006700080917A00816080937A0080917A0080680E
:1006800080937A001092C1001092260210922702E5
:1006900010922802109229021092E6011092E701AE
:1006A0001092E8011092E9010E94B9016B017C01EE
:1006B0004B015C0128EB820E2BE0921EA11CB11CA9
:1006C0000E94B9016C157D058E059F0528F08616E0
:1006D0009706A806B906A0F70E9494014B015C0199
:1006E00098EEC92E93E0D92EE12CF12C0E949401B2
:1006F000681979098A099B09683E7340810591054B
:10070000A8F331E0C31AD108E108F10848EE840EDD
:1007100043E0941EA11CB11CC114D104E104F104F6
:1007200029F70E945F000E94B9016093E60170936F
:10073000E7018093E8019093E90182E191E00E9452
:10074000C5010E94B9016B017C014B015C018AE08B
:10075000880E911CA11CB11C0E94B9016C157D056D
:100760008E059F0528F086169706A806B906A0F7FD
:1007700081E08093FA010E945F00C0902A02D0902D
:100780002B020D2C000CEE08FF084AE0C701B60151
:10079000F7FE0DC06DE287E491E00E942701662715
:1007A0007727CB016C197D098E099F094AE00E94C9
:1007B000D20183E291E00E94C501C0E0D0E084EF65
:1007C000882E99249394A12CB12C0E94B901672BF7
:1007D000682B692B09F4E0C00E94B901C090430165
:1007E000D0904401E0904501F09046016C157D05E4
:1007F0008E059F0508F4E3C0C0904301D0904401EA
:10080000E0904501F09046019B01AC012C193D0997
:100810004E095F0969017A013AEFC316D104E10478
:10082000F10408F4C1C060934301709344018093C4
:100830004501909346018092F2019092F301A092BB
:10084000F401B092F5011092F6011092F7011092A6
:10085000F8011092F9018091EA019091EB01A091C9
:10086000EC01B091ED018093EE019093EF01A09324
:10087000F001B093F1010E94B9016093EA01709315
:10088000EB018093EC019093ED010E94B90160931C
:10089000E6017093E7018093E8019093E9010E94DB
:1008A000B9016B017C0186E291E00E94C5014AE03A
:1008B00061E070E080E090E00E94D2018DE291E082
:1008C0000E94C5014AE0C701B6010E94D2018FE231
:1008D00091E00E94C5018091EA019091EB01A09105
:1008E000EC01B091ED01A7019601281B390B4A0BD1
:1008F0005B0BCA01B9014AE00E94D2018FE291E08C
:100900000E94C5016091EA017091EB018091EC01B8
:100910009091ED01C090EE01D090EF01E090F001D8
:10092000F090F1016C197D098E099F094AE00E943F
:10093000D20181E391E00E94C5010E94B9014AE021
:100940000E94D20183E391E00E94C50183E291E01D
:100950000E94C5010E94B9012B013C017C016B0181
:1009600035E0C30ED11CE11CF11C0E94B9016415D5
:1009700075058605970528F0C616D706E806F90618
:10098000A0F70E94B9016093EA017093EB01809394
:10099000EC019093ED0108C00E94B901623071052D
:1009A0008105910508F018CF209709F40ECF0E9419
:1009B000F100882309F409CF0E94000006CF60935C
:1009C000430170934401809345019093460114CFF5
:1009D000A1E21A2EAA1BBB1BFD010DC0AA1FBB1F43
:1009E000EE1FFF1FA217B307E407F50720F0A21BB5
:1009F000B30BE40BF50B661F771F881F991F1A9422
:100A000069F760957095809590959B01AC01BD014B
:100A1000CF010895EE0FFF1F0590F491E02D09948A
:040A2000F894FFCF78
:100A24000000000027018700B4007401E500C30042
:100A3400D700564D4450565F317C315F564D44507B
:100A4400560A000D0A00564D4450455F003A323AAA
:0A0A5400007C005F564D4450450041
:00000001FF
