:100000000C9462000C948A000C948A000C948A0070
:100010000C948A000C948A000C948A000C948A0038
:100020000C948A000C948A000C948A000C948A0028
:100030000C948A000C948A000C948A000C948A0018
:100040000C94C3090C948A000C9491090C946B09CC
:100050000C948A000C948A000C948A000C948A00F8
:100060000C948A000C948A000000000024002700F1
:100070002A0000000000250028002B0000000000DE
:1000800023002600290004040404040404040202DA
:100090000202020203030303030301020408102007
:1000A0004080010204081020010204081020000012
:1000B0000008000201000003040700000000000027
:1000C00000000D0A11241FBECFEFD8E0DEBFCDBF68
:1000D00022E0A4E5B1E001C01D92AA34B207E1F725
:1000E00011E0A0E0B1E0EEE6FAE202C005900D9268
:1000F000A435B107D9F710E0C2E6D0E004C02197DB
:10010000FE010E943D13C136D107C9F70E944C0A77
:100110000C9435150C940000E3E6F1E0A089B18958
:1001200082E08C93A485B5851C92A685B7858FEC5B
:100130008C93108EA489B58986E08C93A289B389AB
:100140008C9180618C93A289B3898C9188608C9307
:10015000A289B3898C9180688C930288F389E02D01
:1001600080818F7D80830895AF92BF92CF92DF927E
:10017000EF92FF920F931F93CF93DF936C017B015C
:100180008B01040F151FEB015E01AE18BF08C017ED
:10019000D10759F06991D601ED91FC910190F08160
:1001A000E02DC6010995892B79F7C501DF91CF9123
:1001B0001F910F91FF90EF90DF90CF90BF90AF9085
:1001C0000895FC01538D448D252F30E0842F90E05D
:1001D000821B930B541710F0CF9608950197089542
:1001E000FC01918D828D981761F0A28DAE0FBF2F0B
:1001F000B11D5D968C91928D9F5F9F73928F90E061
:1002000008958FEF9FEF0895FC01918D828D9817CF
:1002100031F0828DE80FF11D858D90E008958FEF0C
:100220009FEF0895FC01918D228D892F90E0805CD5
:100230009F4F821B91098F739927089583E691E060
:100240000E94120121E0892B09F420E0822F0895F9
:1002500080E090E0892B29F00E941E0181110C940E
:1002600000000895FC01A48DA80FB92FB11DA35A59
:10027000BF4F2C91848D90E001968F739927848FC6
:10028000A689B7892C93A089B1898C9183708064E9
:100290008C93938D848D981306C00288F389E02D8A
:1002A00080818F7D80830895EF92FF920F931F933B
:1002B000CF93DF93EC0181E0888F9B8D8C8D981319
:1002C0001AC0E889F989808185FF15C09FB7F89425
:1002D000EE89FF896083E889F98980818370806471
:1002E00080839FBF81E090E0DF91CF911F910F91BC
:1002F000FF90EF900895F62E0B8D10E00F5F1F4FCB
:100300000F731127E02E8C8D8E110CC00FB607FCD9
:10031000FACFE889F989808185FFF5CFCE010E9467
:100320003201F1CFEB8DEC0FFD2FF11DE35AFF4FA2
:10033000F0829FB7F8940B8FEA89FB8980818062F5
:10034000CFCFCF93DF93EC01888D8823B9F0AA89B2
:10035000BB89E889F9898C9185FD03C0808186FD80
:100360000DC00FB607FCF7CF8C9185FFF2CF8081CF
:1003700085FFEDCFCE010E943201E9CFDF91CF9111
:100380000895833081F028F4813099F08230A9F00B
:1003900008958730A9F08830C9F08430B1F4809195
:1003A00080008F7D03C0809180008F7780938000D4
:1003B000089584B58F7784BD089584B58F7DFBCF74
:1003C0008091B0008F778093B00008958091B00045
:1003D0008F7DF9CFCF93DF93282F30E0F901E255DD
:1003E000FF4F8491F901E656FF4FD491F901EA5786
:1003F000FF4FC491CC23A1F081110E94C101EC2FC9
:10040000F0E0EE0FFF1FE458FF4FA591B491EC917F
:10041000ED2381E090E009F480E0DF91CF91089531
:1004200080E090E0FACF1F93CF93DF93282F30E046
:10043000F901E255FF4F8491F901E656FF4FD4913F
:10044000F901EA57FF4FC491CC23A9F0162F81116F
:100450000E94C101EC2FF0E0EE0FFF1FEE58FF4F9E
:10046000A591B4918FB7F894EC91111108C0D09573
:10047000DE23DC938FBFDF91CF911F910895DE2B98
:10048000F8CFCF93DF9390E0FC01E656FF4F249125
:100490008A579F4FFC0184918823D1F090E0880F08
:1004A000991FFC01E859FF4FA591B491FC01EE584A
:1004B000FF4FC591D49161110EC09FB7F8948C91F4
:1004C000E22FE0958E238C932881E223E8839FBF5F
:1004D000DF91CF9108958FB7F894EC91E22BEC93D4
:1004E0008FBFF6CF1F93CF93DF93182FEB0161E0FF
:1004F0000E944102209739F460E0812FDF91CF9173
:100500001F910C941302CF3FD10511F461E0F5CF98
:10051000E12FF0E0E255FF4FE491E33031F140F498
:10052000E130B1F0E230E1F0C038D1057CF7E4CF42
:10053000E73029F1E83059F1E430B1F780918000DB
:10054000806280938000D0938B00C0938A0004C0A7
:1005500084B5806884BDC7BDDF91CF911F91089598
:1005600084B5806284BDC8BDF7CF8091800080686B
:1005700080938000D0938900C0938800EDCF809154
:10058000B00080688093B000C093B300E5CF809145
:10059000B00080628093B000C093B400DDCF3FB75D
:1005A000F8948091590190915A01A0915B01B0910A
:1005B0005C0126B5A89B05C02F3F19F00196A11D2F
:1005C000B11D3FBFBA2FA92F982F8827BC01CD019D
:1005D000620F711D811D911D42E0660F771F881FFC
:1005E000991F4A95D1F708958F929F92AF92BF922B
:1005F000CF92DF92EF92FF924B015C010E94CF02FB
:100600006B017C010E94CF026C197D098E099F0944
:10061000683E734081059105A8F321E0821A910894
:10062000A108B10888EEC80E83E0D81EE11CF11CB9
:1006300081149104A104B10429F7FF90EF90DF9099
:10064000CF90BF90AF909F908F9008952FB7F89460
:100650006091550170915601809157019091580118
:100660002FBF08954F925F926F927F929F92AF92A9
:10067000BF92CF92DF92EF92FF920F931F93CF938F
:10068000DF93EC016B01142F022F8B859C85892B46
:1006900031F08A85813099F0823009F475C0DF919C
:1006A000CF911F910F91FF90EF90DF90CF90BF906F
:1006B000AF909F907F906F905F904F900895F42E31
:1006C0008D85F816E8F4AF2CB12C88899989F5014D
:1006D000EE0FFF1FEC0DFD1D91838083EB85FC85E4
:1006E000EA0DFB1D61E080810E944102EB85FC85E3
:1006F000EA0DFB1D61E080810E941302F00EE0CF45
:1007000083E290E00197F1F7F8940E94CF022B0169
:10071000F12E8D85F81650F4EB85FC85EF0DF11D5B
:1007200060E080810E944102F00EF3CF7894B12CFA
:10073000A12C88899989A816B90608F0B0CFF89439
:100740000E94CF025B01A418B508912E8D859816E2
:10075000C8F4E92CF12CEB85FC85EE0DFF1D8081A2
:100760000E94EA01892B61F4EE0CFF1CF601EE0DEC
:10077000FF1D80819181A816B90610F4B182A08274
:10078000900EE4CF7894D5CF842F9D85891750F4AF
:10079000E82FF0E0EE0FFF1FEC0DFD1D118210821F
:1007A000800FF3CF20E08A89281770F5912F8D856F
:1007B000981740F5E92FF0E0AB85BC85AE0FBF1F61
:1007C0008C918E3008F08E508770806480937C000E
:1007D00080917A00806480937A0080917A0086FD0F
:1007E000FCCF6091780040917900EE0FFF1FEC0D77
:1007F000FD1D742F40815181460F571F5183408347
:10080000900FD5CF2F5FCFCF8D85181708F047CF2A
:10081000E12FF0E0EE0FFF1FEC0DFD1D6A8970E087
:10082000CB019595879520813181820F931F0E947E
:100830000A1371836083100FE7CFFF920F931F930A
:10084000CF93DF93EC01162FF42E662331F08D89C0
:10085000823079F500E0613089F48B898F3F51F067
:100860000E94EA01019731F460E08B890E94130233
:1008700001E001C000E08D898230B9F41D7FA9F448
:100880008C898F3F91F00E94EA01019771F460E03A
:100890008C890E941302FF2061F08E89882379F0F1
:1008A0008BEB92E10197F1F704C0FF2011F00111E9
:1008B000F4CFDF91CF911F910F91FF9008958BE1BD
:1008C00093E0F0CFCF92DF92EF92FF920F931F93BE
:1008D000CF93DF93EC01EA81FB8105A516A5888102
:1008E0009981B801681B790B072E000C880B990BB6
:1008F0000E94D21028EB3EE145E85DE30E943111F1
:100900000E94CF126B01B801012E000C880B990BCD
:100910000E94D21022E03BE247E05DE30E943111E9
:100920000E94CF12CB018C0D9D1D19830883DF918E
:10093000CF911F910F91FF90EF90DF90CF9008958E
:10094000CF93DF93EC018CE00E94EA0121E0892B38
:1009500009F420E02883822FDF91CF910895CF936F
:10096000DF93EC018FEF90E06F3F710509F034F4F5
:1009700061308FEF7807B4F581E09FEF998388832A
:100980008FEF90E04F3F510509F034F441308FEF85
:1009900058075CF581E09FEF9B838A83888199816A
:1009A00097FD26C060E086E00E94130261E087E0C8
:1009B0000E9413028A819B8197FD2AC060E08AE031
:1009C0000E94130261E089E00E941302688179812C
:1009D00085E00E9472026A817B818BE0DF91CF917A
:1009E0000C94720279836883CBCF5B834A83D6CF22
:1009F00061E086E00E94130260E087E00E9413023B
:100A00008881998191958195910999838883D2CF25
:100A100061E08AE00E94130260E089E00E94130214
:100A20008A819B819195819591099B838A83CECF01
:100A3000FC01A081B1819F968D919C91843F21E022
:100A400092071CF481E0808B0895813D97404CF023
:100A50008089882331F081A592A5019692A781A76C
:100A6000108A0895CF93DF93EC0182E00E94EA019F
:100A7000892B99F48881811110C02AE939E949EA62
:100A800050E46A817B818C819D810E9463126A831C
:100A90007B838C839D8381E0888382E00E94EA01CE
:100AA000019709F4188284E00E94EA01892B99F4E5
:100AB0008981811110C02AE939E949EA50E46E813F
:100AC0007F81888599850E9463126E837F838887E2
:100AD000998781E0898384E00E94EA01019709F403
:100AE00019822E813F81488559856A817B818C815D
:100AF0009D810E94631220E030E040E05FE30E94AD
:100B000031116A877B878C879D87DF91CF9108950C
:100B1000CF92DF92EF92FF920F931F93CF93DF93C9
:100B20008C01C62FFC018689882369F0862F0E94DC
:100B3000EA01019741F460E08C2F0E9413028BEBD5
:100B400092E10197F1F761E08C2F0E9413020E945D
:100B5000CF026B01F80186898823A1F08789882359
:100B600089F0F894D0E0F8018789D81750F460E054
:100B70008C2F0E94130261E08C2F0E941302DF5F12
:100B8000F2CF7894C601DF91CF911F910F91FF9022
:100B9000EF90DF90CF900895EF92FF920F931F9305
:100BA000CF93DF93EC01162F662331F18D898230CC
:100BB00009F100E08D898230A9F51D7F99F58C89B6
:100BC0008F3F81F19E89992349F16C89CE010E9462
:100BD00088057C018E89882371F1C3E2D0E00E94F0
:100BE000CF026E197F096C327140F0F4CE0101978B
:100BF000F1F7F5CF6130E9F68B898F3FD1F29E890D
:100C0000992339F06B89CE010E9488057C0101E0AF
:100C1000D1CF0E94EA01892BA9F3CBCF0E94EA0130
:100C2000892B99F20111D6CFDF91CF911F910F91AE
:100C3000FF90EF9008958BE193E00197F1F7F4CFE7
:100C40004F925F926F927F928F929F92AF92BF92DC
:100C5000CF92DF92EF92FF920F931F93CF93DF9388
:100C6000EC017B01D42E8881882309F44BC060E01D
:100C7000CE010E94CC0521E040E0B701CE010E94E8
:100C8000320341E060E0CE010E941D04C12C8D853D
:100C9000C816C0F50C2D10E0000F111FE981FA8174
:100CA000E00FF11F80819181EB81FC81E00FF11F4A
:100CB0000190F081E02DE81BF90B0E0D1F1D309700
:100CC000D1F0D8012D913C9150E040E0281B390B28
:100CD00041095109A8EEB3E00E9411129F0150E0B2
:100CE00040E00E941E13293EB3E03B0714F028EEBB
:100CF00033E037FF02C030E020E0F8013183208389
:100D0000C394C5CFCD8410E000E0912CF0E0E0E08A
:100D1000412C512C3201812C88EEA82E83E0B82E74
:100D2000C91409F1D7014D915D917D01DD2021F0BC
:100D3000C501841B950BAC01493C510588F4433334
:100D4000510550F09A01D8010E944313460E571ED8
:100D5000681E791EE40FF51F939408511C4FE0CFD5
:100D600088248394EFCF81102BC0AC2DA150BB0BF6
:100D700044EF51E0A49FC001A59F900DB49F900D3A
:100D80001124488D598D4817590728F148EE53E032
:100D9000A49FC001A59F900DB49F900D1124DF91D9
:100DA000CF911F910F91FF90EF90DF90CF90BF9068
:100DB000AF909F908F907F906F905F904F9008952D
:100DC0009F0150E040E0C301B2010E94EF11C90150
:100DD000398F288FE4CF90E080E0E1CFCF93DF938D
:100DE000EC0118AA1FA6FC017B969C01255D3F4FD4
:100DF00090E080E0BF0141915191840F951FE2176F
:100E0000F307C9F798AB8FA7815293408331954080
:100E1000A0F41A8E8A8D41E0811101C040E0CE011C
:100E20000E9420069CA78BA78BA59CA58C5A9D4051
:100E30009EA78DA7DF91CF91089581E08A8FEACF99
:100E4000CF93DF93EC014AE450E069E170E08C81DC
:100E50009D810E94AF04888199810E94EE06E881FD
:100E6000F981838D948D843F91406CF7DF91CF9110
:100E70000895EF92FF920F931F93CF93DF93EC01AE
:100E80008B01888199810E94EE068A819B810E9454
:100E900062049A8F898F8A859B850E94A00488238B
:100EA00071F1EC84FD8488E00E94EA0121E0009762
:100EB00009F420E0F7012083892B09F1898D9A8DAF
:100EC000B801680F791F7C8F6B8FA801481B590BE5
:100ED0005E8F4D8FCB01840F951F97FD03969595DF
:100EE00087959595879598A38F8F8C819D81DF91AC
:100EF000CF911F910F91FF90EF900C94AF0450E0B1
:100F000040E070E060E0F1CFFC0101900020E9F7E3
:100F10003197AF01481B590BBC0183E691E00C945B
:100F2000B4008F929F92AF92BF920F931F93CF9373
:100F3000DF93CDB7DEB7A1970FB6F894DEBF0FBE33
:100F4000CDBF19A2423008F44AE08E010F5D1F4F59
:100F5000842E912CB12CA12CA50194010E94EF119B
:100F6000E62FB901CA01EA30F4F4E05DD801EE934E
:100F70008D01232B242B252B79F790E080E010970F
:100F800019F0CD010E948407A1960FB6F894DEBF38
:100F90000FBECDBFDF91CF911F910F91BF90AF904A
:100FA0009F908F900895E95CE1CF4F925F926F928E
:100FB0007F928F929F92AF92BF92CF92DF92EF92E9
:100FC000FF920F931F93CF93DF93CDB7DEB7C85F28
:100FD000D1090FB6F894DEBF0FBECDBF8C017B01E7
:100FE000C42EDB018C9181115FC01396AD90BC9033
:100FF000F801658570E0660F771FC5010E946F14C8
:10100000D70114969C938E931397892BD9F4C5011D
:101010000E94E613C850DF4F0FB6F894DEBF0FBE34
:10102000CDBFDF91CF911F910F91FF90EF90DF9097
:10103000CF90BF90AF909F908F907F906F905F9078
:101040004F900895F701A180B280D8011D966C9150
:1010500070E0660F771FC5010E946F14AC01F701A5
:101060009283818390E04115510589F2D8011D9644
:101070008C919817B0F4292F30E0220F331FD7013D
:101080001396ED91FC91E20FF31F11821082F8018B
:1010900060897189240F351FD9016D937C939F5FFF
:1010A000E5CF81E0F7018083D12C43E2A42EB12C5F
:1010B000F1E0CF1640F082E08C1508F03FC093E0DD
:1010C000C91609F47AC041E060E0C8010E941D041D
:1010D00021E040E0BE01615C7F4FC8010E94320305
:1010E000D8011D966C90DE01A554BF4F2E01EDE78F
:1010F0004E0E511C9E01215C3F4F712C4D01B201DF
:10110000671409F4B3C0F901819191919F01DD2029
:1011100009F4A3C0F201408151814817590708F42E
:101120009CC04D915C9111978417950708F49AC063
:1011300073941296F2E04F0E511CE2CF60E0C801AA
:101140000E94CC0521E040E0BE01615C7F4FC801F8
:101150000E94320341E060E0C8010E941D04F2E0F9
:10116000CF12BECF21E040E0BE016F5F7F4FC801CC
:101170000E943203D8011D967C91FE01FF96CE019C
:1011800001964C0160E0761709F4AACFD801509679
:101190002D913C91D4014D915D914D0180819181C2
:1011A000820F931F841B950B2817390708F452C030
:1011B000918380836F5F3296E6CF40E062E0C801A2
:1011C0000E941D040E94CF022B0161E0C8010E9411
:1011D000CC05D80156968C91882359F00E94CF02F5
:1011E00064197509603B744020F4C5010197F1F75B
:1011F000F5CF22E040E0BE01615C7F4FC8010E9454
:10120000320340E061E0C8010E941D040E94CF0249
:101210002B0162E0C8010E94CC05F8018689882371
:1012200059F00E94CF0264197509603B744020F4A4
:10123000C5010197F1F7F5CF22E041E0BE01615C05
:101240007F4FC8010E94320341E060E0C8010E9464
:101250001D0446CF31832083ADCFF201918380837B
:10126000D1105FCF11969C938E9362CFD3948AE076
:10127000D8121ECF20E0D8011D968C91281708F0B7
:10128000C9CE822F90E0880F991FF401E80FF91F53
:1012900040815181D7011396ED91FC91E80FF91F20
:1012A000A081B181A417B50710F451834083FB01DD
:1012B000E80FF91F40815181D7011196ED91FC9102
:1012C000E80FF91F808191814817590710F4518365
:1012D00040832F5FD0CF1F920F920FB60F92112431
:1012E0002F933F934F935F936F937F938F939F932E
:1012F000AF93BF93EF93FF9383E691E00E94320197
:10130000FF91EF91BF91AF919F918F917F916F91DD
:101310005F914F913F912F910F900FBE0F901F90B3
:1013200018951F920F920FB60F9211242F938F933F
:101330009F93EF93FF93E0917301F091740180818B
:10134000E0917901F0917A0182FD1BC0908180913A
:101350007C018F5F8F7320917D01821741F0E091B6
:101360007C01F0E0ED59FE4F958F80937C01FF9159
:10137000EF919F918F912F910F900FBE0F901F9023
:1013800018958081F4CF1F920F920FB60F921124FF
:101390002F933F938F939F93AF93BF93809155016A
:1013A00090915601A0915701B0915801309154018C
:1013B00023E0230F2D3758F50196A11DB11D209371
:1013C00054018093550190935601A0935701B09317
:1013D00058018091590190915A01A0915B01B091FF
:1013E0005C010196A11DB11D8093590190935A0192
:1013F000A0935B01B0935C01BF91AF919F918F91DE
:101400003F912F910F900FBE0F901F90189526E8D7
:10141000230F0296A11DB11DD2CFE3E6F1E01382A6
:10142000128288EE93E0A0E0B0E084839583A683E7
:10143000B78382E191E09183808385EC90E095878A
:10144000848784EC90E09787868780EC90E0918B8E
:10145000808B81EC90E0938B828B82EC90E0958B7B
:10146000848B86EC90E0978B868B118E128E138E78
:10147000148EE0E0F2E01682178210861186128642
:1014800013861486158616861786108A118A128A84
:10149000138A148A158A0895789484B5826084BD6D
:1014A00084B5816084BD85B5826085BD85B5816068
:1014B00085BD80916E00816080936E0010928100E6
:1014C00080918100826080938100809181008160A1
:1014D0008093810080918000816080938000809162
:1014E000B10084608093B1008091B00081608093EE
:1014F000B00080917A00846080937A0080917A00B5
:10150000826080937A0080917A00816080937A0073
:1015100080917A00806880937A001092C1001092C6
:10152000420210924302109244021092450210921D
:1015300002021092030210920402109205020E940D
:1015400026036B017C014B015C0128EB820E2BE032
:10155000921EA11CB11C0E9426036C157D058E05F0
:101560009F0528F086169706A806B906A0F768EE2C
:1015700073E080E090E00E94F4020E948C000E94E0
:1015800026036093020270930302809304029093F7
:10159000050280E291E00E9484070E9426036B010D
:1015A0007C014B015C013AE0830E911CA11CB11C33
:1015B0000E9426036C157D058E059F0528F0861672
:1015C0009706A806B906A0F7FF24F394F092160236
:1015D0000E948C008CE290E00E944A138C0181E30F
:1015E00091E00E9484078CE391E00E94840781E3EC
:1015F00090E00E944A13EC0118821A8219821C8220
:101600001B821D821F821E82198618861C861B86DD
:101610001D8684EC99E09F878E8784E08A8B8FEF0C
:101620008B8B8C8B1D8AFE8A1F8A198E188E82E006
:101630008A878FEF93E0998B888B68E070E090E069
:1016400080E00E946F149C878B87892B91F0A6E025
:10165000B1E090E080E02D91EB85FC85E80FF91F6B
:101660002083019688309105B1F788E08D87188234
:101670001D8261E08DE00E94410261E08DE00E94E8
:10168000130274E6E72EF12C41E0BE01CE010E9468
:10169000D50741E0E41AF108B9F760E08DE00E9457
:1016A00013020E948C00D12CC12CE981FA81EC0D2F
:1016B000FD1D6081718190E080E04AE00E94910709
:1016C00060E283E691E00E94540152E0C50ED11C15
:1016D00080E1C816D10449F78CE391E00E948407A9
:1016E000EB81FC81EE0DFF1D6081718190E080E057
:1016F0004AE00E94910760E283E691E00E94540173
:1017000092E0E90EF11CE0E1EE16F10449F78CE3FA
:1017100091E00E9484078CE391E00E94840760EDD1
:1017200077E080E090E00E94F402BE01655E7F4FAA
:1017300041E0CE010E9420069CA78BA7F801D1832F
:10174000C08384E090E00E944A13FC01D383C283EB
:1017500011821082F8019383828384E090E00E94DA
:101760004A13EC0161E085E00E94410261E086E0FD
:101770000E94410261E087E00E94410261E08BE04B
:101780000E94410261E08AE00E94410261E089E03A
:101790000E944102F801D583C48382E090E00E9458
:1017A0004A13EC0161E083E00E944102F801D78313
:1017B000C6838EE090E00E944A13EC0160E082E074
:1017C0000E94410260E084E00E9441021A821B8272
:1017D0001C821D821E821F82188619861A861B860D
:1017E0001C861D8618821982F801D187C08781E086
:1017F00090E00E944A13EC0160E08CE00E944102FC
:10180000F801D387C28781E090E00E944A13EC017F
:1018100060E088E00E944102F801D587C4878AE031
:1018200090E0908F878B15A216A217A210A612A681
:1018300011A6118A128A108A148A138A17861686AC
:10184000168A158A10935E0100935D0152E0252EE1
:10185000312C64EF862E99249394A12CB12C0E94F4
:101860002603672B682B692B09F4DFC00E9426032F
:1018700000915F011091600120916101309162013E
:10188000601771078207930708F4FBC000915F019E
:101890001091600120916101309162016B017C0126
:1018A000C01AD10AE20AF30A970186010A3F11051C
:1018B0002105310508F4C1C060935F017093600198
:1018C000809361019093620180920E0290920F02C8
:1018D000A0921002B0921102109212021092130202
:1018E0001092140210921502809106029091070244
:1018F000A0910802B091090280930A0290930B0212
:10190000A0930C02B0930D020E942603609306027E
:101910007093070280930802909309020E942603A5
:101920006093020270930302809304029093050275
:101930000E9426032B013C018FE391E00E94840763
:101940004AE061E070E080E090E00E94910786E468
:1019500091E00E9484074AE0C301B2010E9491070E
:1019600088E491E00E94840780910602909107022A
:10197000A0910802B0910902A3019201281B390B22
:101980004A0B5B0BCA01B9014AE00E94910788E447
:1019900091E00E9484076091060270910702809195
:1019A00008029091090200910A0210910B02209105
:1019B0000C0230910D02601B710B820B930B4AE0FD
:1019C0000E9491078AE491E00E9484070E94260306
:1019D0004AE00E9491078CE491E00E9484078CE326
:1019E00091E00E9484070E9426036B017C012B0179
:1019F0003C0135E0430E511C611C711C0E94260302
:101A00006C157D058E059F0528F04616570668065D
:101A10007906A0F70E9426036093060270930702DE
:101A2000809308029093090208C00E942603623046
:101A300071058105910508F019CFC0915D01D09124
:101A40005E01888599850E943205CF88D88C40E157
:101A5000C416D10408F09BC3F601EF5CF24F0C945E
:101A60003D134A0D7F0D020E6A0EEE0E2E0F310F42
:101A7000730F970FC80FF50F2A106910F50DF50DAC
:101A8000F50D60935F017093600180936101909305
:101A90006201FCCE60EA70E0CE010E9439078885C1
:101AA00099850E943205E885F98582859385A4850C
:101AB000B58589A39AA3ABA3BCA360EA70E0CE016D
:101AC0000E943907888599850E943205E885F98545
:101AD00029A13AA14BA15CA1628573858485958576
:101AE0000E94621220E030E048EC52E40E940513AC
:101AF00018161CF78CE090E0988F8F8B76C08A8543
:101B00009B850E94A0048111DFC0888599850E9471
:101B10003205E885F98582859385A485B58589A3F5
:101B20009AA3ABA3BCA3CE010E9420078881998110
:101B30000E94EE068A819B810E9462049A8F898F9F
:101B400062E370E0CE010E943907888599850E9482
:101B50003205E885F98529A13AA14BA15CA16285EE
:101B60007385848595850E94621220E030E04CE008
:101B700052E40E9405131816CCF610E000E049E18B
:101B800050E06AE470E08C819D810E94AF048881FE
:101B900099810E94EE06E881F981838D948D853FBD
:101BA00021E092074CF00115110579F00230110582
:101BB00069F403E010E00AC0843F914039F001303D
:101BC000110521F402E010E001C0860181A592A573
:101BD000843F9140A4F60330110589F662E370E07A
:101BE000CE010E943907388E2F8A80E090E0892B41
:101BF00009F435CE0E941E01882309F430CE0E94DC
:101C000000002DCE888199810E94EE06CE010E94AF
:101C1000180589A59AA5029709F056C01AA619A613
:101C200010E0888199810E94EE06E881F981858D16
:101C3000968D843F91401CF0112309F43FC044E885
:101C400050E060EE7FEF8C819D810E94AF04E881BF
:101C5000F98181A592A58935E2E09E0764F02B8980
:101C60003C8921153105F9F4CC24C394D12CDC8AAC
:101C7000CB8A11E0D6CF88359240D9F30B891C89E5
:101C80000130110569F00330110599F71C8A1B8A90
:101C900062E370E0CE010E943907188F0F8BA5CF49
:101CA0003C8A2B8AE6CF8D3B92401CF322303105D3
:101CB00001F783E090E09C8B8B8BDBCF62E370E0DD
:101CC000CE010E943907ADCF62E370E0CE010E94E1
:101CD00039078BCF888599850E943205E885F9857B
:101CE00082859385A485B58589A39AA3ABA3BCA35C
:101CF00062E370E0CE010E943907888599850E94D1
:101D000032050885198529A13AA14BA15CA1F801EA
:101D100062857385848595850E94621220E030E09B
:101D200040EF51E40E940513181614F7C8010E94F1
:101D30003205E885F98582859385A485B58589A3D3
:101D40009AA3ABA3BCA360EA70E0CE010E9439075E
:101D5000888599850E9432050885198529A13AA1AF
:101D60004BA15CA1F80162857385848595850E94ED
:101D7000621220E030E042ED53E40E940513181691
:101D800014F7C8010E943205E885F985828593859C
:101D9000A485B58589A39AA3ABA3BCA366E470E030
:101DA000CE010E943907888599850E943205E88511
:101DB000F98529A13AA14BA15CA16285738584852F
:101DC00095850E94621220E030E042E553E40E94D3
:101DD000051318161CF787E090E08ECE66E470E0DD
:101DE000CE010E943907E881F98187A590A9803A40
:101DF0002FE09207DCF481A592A5843F91408CF4FA
:101E000087A190A5843F914064F485A196A1843F69
:101E100091403CF483A194A1843F914014F481E06B
:101E20008A8B45E050E0588F4F8BDFCE89359B4140
:101E3000C4F38A898823A9F366E470E0CE010E9486
:101E400039071A8A888199810E94EE06E881F98112
:101E500081A592A5843F91407CF7E3CF86E090E096
:101E60004BCE66E470E0CE010E943907E881F9812B
:101E700087A590A9803A5FE09507DCF4838D948D67
:101E8000843F91400CF0A7CF858D968D843F914083
:101E90000CF0A1CF878D90A1843F91400CF09BCF97
:101EA00081A192A1843F91400CF095CF81E0898B74
:101EB00092CF89359B410CF48ECF8989882309F410
:101EC0008ACF66E470E0CE010E943907198A8881C2
:101ED00099810E94EE06E881F981838D948D843F7B
:101EE00091407CF778CF60EA70E0CE010E9439071C
:101EF0008A859B850E94A004811106C0CC24C394CE
:101F0000D12CDF86CE8671CE8A859B850E94A00467
:101F1000882309F46ACE8E859F85019709F065CEE6
:101F200088E090E0988F8F8B3F862E865ECE8885E6
:101F300099850E943205E885F98582859385A48577
:101F4000B58589A39AA3ABA3BCA362E370E0CE01DD
:101F50000E943907888599850E943205E885F985B0
:101F600029A13AA14BA15CA16285738584859585E1
:101F70000E94621220E030E040EA51E40E94051322
:101F800018161CF729E0E22EF12CF88EEF8A2DCEE0
:101F9000888199810E94EE068A859B850E94A00413
:101FA000811104C08E859F85029751F0E881F981E7
:101FB00087A590A989359B4144F460EA70E086CEFC
:101FC00044E050E05F874E8710CE8E859F85049752
:101FD000A1F785E090E09F878E87CE010E942007C1
:101FE000EAE0F0E0F88FEF8B00CE888599850E94BB
:101FF0003205E885F98582859385A485B58589A311
:102000009AA3ABA3BCA360EA70E0CE010E9439079B
:10201000888599850E943205E885F98529A13AA12C
:102020004BA15CA162857385848595850E946212AF
:1020300020E030E048E454E40E94051318161CF731
:1020400061E08DE00E9413029CE0C92ED12CD88E55
:10205000CF8ACBCD888199810E94EE06CE010E9465
:10206000180589A59AA5019709F0A7CF1AA619A660
:10207000888599850E943205E885F9858285938552
:10208000A485B58589A39AA3ABA3BCA38CE0E82E55
:10209000F12CF88EEF8A60EA70E0CE010E943907D9
:1020A000888599850E943205E885F98529A13AA19C
:1020B0004BA15CA162857385848595850E9462121F
:1020C00020E030E040E753E40E9405131816F4F6D0
:1020D0008CCD888199810E94EE06E881F98187A5DF
:1020E00090A9843F21E092070CF045C081E0888BE5
:1020F0008BA5882309F461CF50E040E070E060E0F8
:102100008C819D810E94AF0468EE73E080E090E0D6
:102110000E94F402888599850E943205E885F98538
:1021200082859385A485B58589A39AA3ABA3BCA317
:102130004EE150E06EE170E08C819D810E94AF0421
:10214000888599850E943205E885F98529A13AA1FB
:102150004BA15CA162857385848595850E9462127E
:1021600020E030E040E751E40E940513181604F720
:1021700040E150E058CE89359B410CF4B9CF8889B5
:10218000882309F4B5CF81E08BA7188AB1CF50E03E
:1021900040E070E060E08C819D810E94AF0425CD1D
:1021A000E89409C097FB3EF49095809570956195F1
:1021B0007F4F8F4F9F4F9923A9F0F92F96E9BB27A7
:1021C0009395F695879577956795B795F111F8CF23
:1021D000FAF4BB0F11F460FF1BC06F5F7F4F8F4F8E
:1021E0009F4F16C0882311F096E911C0772321F084
:1021F0009EE8872F762F05C0662371F096E8862F1C
:1022000070E060E02AF09A95660F771F881FDAF772
:10221000880F9695879597F90895990F0008550F9F
:10222000AA0BE0E8FEEF16161706E807F907C0F05C
:1022300012161306E407F50798F0621B730B840B64
:10224000950B39F40A2661F0232B242B252B21F43E
:1022500008950A2609F4A140A6958FEF811D811DDE
:1022600008950E9444110C94B5110E94A71138F0F2
:102270000E94AE1120F0952311F00C949E110C9445
:10228000A41111240C94E9110E94C61170F3959FBA
:10229000C1F3950F50E0551F629FF001729FBB275D
:1022A000F00DB11D639FAA27F00DB11DAA1F649FF9
:1022B0006627B00DA11D661F829F2227B00DA11DAC
:1022C000621F739FB00DA11D621F839FA00D611D32
:1022D000221F749F3327A00D611D231F849F600D53
:1022E000211D822F762F6A2F11249F5750409AF07C
:1022F000F1F088234AF0EE0FFF1FBB1F661F771F08
:10230000881F91505040A9F79E3F510580F00C94D2
:102310009E110C94E9115F3FE4F3983ED4F3869547
:1023200077956795B795F795E7959F5FC1F7FE2B72
:10233000880F911D9695879597F9089597F99F674E
:1023400080E870E060E008959FEF80EC089500243D
:102350000A941616170618060906089500240A940A
:1023600012161306140605060895092E0394000C90
:1023700011F4882352F0BB0F40F4BF2B11F460FF1F
:1023800004C06F5F7F4F8F4F9F4F089557FD905848
:10239000440F551F59F05F3F71F04795880F97FB29
:1023A000991F61F09F3F79F08795089512161306E3
:1023B0001406551FF2CF4695F1DF08C01616170612
:1023C0001806991FF1CF8695710561050894089547
:1023D000E894BB2766277727CB0197F90895A1E2F8
:1023E0001A2EAA1BBB1BFD010DC0AA1FBB1FEE1F8F
:1023F000FF1FA217B307E407F50720F0A21BB30BDA
:10240000E40BF50B661F771F881F991F1A9469F755
:1024100060957095809590959B01AC01BD01CF01B1
:1024200008950E945312A59F900DB49F900DA49FF4
:10243000800D911D112408952F923F924F925F922B
:102440006F927F928F929F92AF92BF92CF92DF92C4
:10245000EF92FF920F931F93CF93DF93CDB7DEB729
:10246000CA1BDB0B0FB6F894DEBF0FBECDBF0994BD
:102470002A88398848885F846E847D848C849B8414
:10248000AA84B984C884DF80EE80FD800C811B8122
:10249000AA81B981CE0FD11D0FB6F894DEBF0FBE51
:1024A000CDBFED010895A29FB001B39FC001A39FCE
:1024B000700D811D1124911DB29F700D811D11247D
:1024C000911D08955058BB27AA270E947A120C9498
:1024D000B5110E94A71138F00E94AE1120F039F416
:1024E0009F3F19F426F40C94A4110EF4E095E7FB39
:1024F0000C949E11E92F0E94C61158F3BA17620777
:1025000073078407950720F079F4A6F50C94E81179
:102510000EF4E0950B2EBA2FA02D0B01B9019001FE
:102520000C01CA01A0011124FF27591B99F0593F42
:1025300050F4503E68F11A16F040A22F232F342F8A
:102540004427585FF3CF469537952795A795F040D8
:102550005395C9F77EF41F16BA0B620B730B840BED
:10256000BAF09150A1F0FF0FBB1F661F771F881FA5
:10257000C2F70EC0BA0F621F731F841F48F48795FD
:1025800077956795B795F7959E3F08F0B0CF9395EF
:10259000880F08F09927EE0F9795879508950E9468
:1025A000D6126894B1110C94E91108950E94CE11CD
:1025B00088F09F5798F0B92F9927B751B0F0E1F004
:1025C000660F771F881F991F1AF0BA95C9F714C0B4
:1025D000B13091F00E94E811B1E008950C94E81137
:1025E000672F782F8827B85F39F0B93FCCF38695ED
:1025F00077956795B395D9F73EF49095809570954A
:1026000061957F4F8F4F9F4F08950E940D1108F4E1
:102610008FEF0895AA1BBB1B51E107C0AA1FBB1F68
:10262000A617B70710F0A61BB70B881F991F5A955E
:10263000A9F780959095BC01CD010895052E97FBD3
:102640001EF400940E94351357FD07D00E94EF112D
:1026500007FC03D04EF40C943513509540953095FB
:1026600021953F4F4F4F5F4F0895909580957095FE
:1026700061957F4F8F4F9F4F0895EE0FFF1F05907D
:10268000F491E02D09940E945312B7FF0895821B24
:10269000930B08950F931F93CF93DF93823091058F
:1026A00010F482E090E0E0914802F091490230E0BD
:1026B00020E0B0E0A0E0309799F42115310509F44D
:1026C0004AC0281B390B24303105D8F58A819B81FB
:1026D0006115710589F1FB0193838283FE0111C0AD
:1026E000408151810281138148175907E0F0481752
:1026F000590799F4109761F012960C93129713965C
:102700001C933296CF01DF91CF911F910F910895C5
:102710000093480210934902F4CF2115310551F07E
:102720004217530738F0A901DB019A01BD01DF010F
:10273000F801C1CFEF01F9CF90934902809348028D
:10274000CDCFFE01E20FF31F819391932250310907
:1027500039832883D7CF2091460230914702232B1B
:1027600041F42091020130910301309347022093FC
:10277000460220910001309101012115310541F4FB
:102780002DB73EB74091040150910501241B350B34
:10279000E0914602F0914702E217F307A0F42E1BE6
:1027A0003F0B2817390778F0AC014E5F5F4F2417B5
:1027B000350748F04E0F5F1F509347024093460283
:1027C000819391939FCFF0E0E0E09CCFCF93DF9394
:1027D0000097E9F0FC01329713821282A09148021F
:1027E000B0914902ED0130E020E01097A1F4208182
:1027F0003181820F931F20914602309147022817A2
:10280000390709F061C0F0934702E0934602DF9177
:10281000CF910895EA01CE17DF07E8F54A815B8181
:102820009E0141155105B1F7E901FB83EA83499106
:102830005991C40FD51FEC17FD0761F48081918178
:102840000296840F951FE901998388838281938181
:102850009B838A83F0E0E0E012968D919C91139720
:102860000097B9F52D913C911197CD010296820FF9
:10287000931F20914602309147022817390739F6F5
:10288000309751F51092490210924802B0934702D6
:10289000A0934602BCCFD383C28340815181840F71
:1028A000951FC817D90761F44E5F5F4F88819981E2
:1028B000480F591F518340838A819B819383828370
:1028C0002115310509F0B0CFF0934902E093480299
:1028D0009ECFFD01DC01C0CF13821282D7CFB0E0C2
:1028E000A0E0E5E7F4E10C941E128C01009751F48E
:1028F000CB010E944A138C01C801CDB7DEB7E0E1DD
:102900000C943A12FC01E60FF71F9C01225031098A
:10291000E217F30708F49DC0D901CD91DC9111971E
:10292000C617D70798F0C530D10530F3CE0104970C
:102930008617970708F3C61BD70B2297C193D1932D
:102940006D937C93CF010E94E613D6CF5B01AC1A46
:10295000BD0A4C018C0E9D1EA0914802B091490207
:10296000512C412CF12CE12C109731F5809146022D
:10297000909147028815990509F05CC046165706E4
:1029800008F058C08091000190910101009741F436
:102990008DB79EB74091040150910501841B950BA2
:1029A000E817F90708F055C0F0934702E093460294
:1029B000F90171836083A0CF8D919C91119712963C
:1029C0006C90129713967C901397A815B90559F53A
:1029D0006C0142E0C40ED11CCA14DB0420F1AC012E
:1029E0004A195B09DA011296159780F062827382A8
:1029F00051834083D9016D937C93E114F10471F00C
:102A0000D7011396FC93EE93129776CF22968C0FF4
:102A10009D1FF90191838083F301EFCFF093490269
:102A2000E093480269CF4816590608F42C017D014D
:102A3000D3019ACFCB010E944A137C01009749F041
:102A4000AE01B8010E942C15C8010E94E61387014F
:102A500053CF10E000E050CFFB01DC0102C0019039
:0E2A60000D9241505040D8F70895F894FFCFE2
:102A6E0000004A0280001514131211100F0E000000
:102A7E0000005401B400E100A1011201F0000401B4
:102A8E00564D4450565F317C315F564D4450560A78
:102A9E00006D616E616765206B7572000D0A0056E0
:102AAE004D4450455F003A323A007C005F564D442B
:042ABE00504500007F
:00000001FF
