:100000000C9462000C948A000C948A000C948A0070
:100010000C948A000C948A000C948A000C948A0038
:100020000C948A000C948A000C948A000C948A0028
:100030000C948A000C948A000C948A000C948A0018
:100040000C9419090C948A000C94E7080C94C108CC
:100050000C948A000C948A000C948A000C948A00F8
:100060000C948A000C948A000000000024002700F1
:100070002A0000000000250028002B0000000000DE
:1000800023002600290004040404040404040202DA
:100090000202020203030303030301020408102007
:1000A0004080010204081020010204081020000012
:1000B0000008000201000003040700000000000027
:1000C0000000630911241FBECFEFD8E0DEBFCDBF13
:1000D00022E0A4E5B1E001C01D92AA34B207E1F725
:1000E00011E0A0E0B1E0E8EFF2E202C005900D926D
:1000F000A435B107D9F710E0C2E6D0E004C02197DB
:10010000FE010E94890FC136D107C9F70E94A209DA
:100110000C947A110C940000E3E6F1E0A089B18917
:1001200082E08C93A485B5851C92A685B7858FEC5B
:100130008C93108EA489B58986E08C93A289B389AB
:100140008C9180618C93A289B3898C9188608C9307
:10015000A289B3898C9180688C930288F389E02D01
:1001600080818F7D80830895AF92BF92CF92DF927E
:10017000EF92FF920F931F93CF93DF936C017B015C
:100180008B01040F151FEB015E01AE18BF08C017ED
:10019000D10759F06991D601ED91FC910190F08160
:1001A000E02DC6010995892B79F7C501DF91CF9123
:1001B0001F910F91FF90EF90DF90CF90BF90AF9085
:1001C0000895FC01538D448D252F30E0842F90E05D
:1001D000821B930B541710F0CF9608950197089542
:1001E000FC01918D828D981761F0A28DAE0FBF2F0B
:1001F000B11D5D968C91928D9F5F9F73928F90E061
:1002000008958FEF9FEF0895FC01918D828D9817CF
:1002100031F0828DE80FF11D858D90E008958FEF0C
:100220009FEF0895FC01918D228D892F90E0805CD5
:100230009F4F821B91098F739927089583E691E060
:100240000E94120121E0892B09F420E0822F0895F9
:1002500080E090E0892B29F00E941E0181110C940E
:1002600000000895FC01A48DA80FB92FB11DA35A59
:10027000BF4F2C91848D90E001968F739927848FC6
:10028000A689B7892C93A089B1898C9183708064E9
:100290008C93938D848D981306C00288F389E02D8A
:1002A00080818F7D80830895EF92FF920F931F933B
:1002B000CF93DF93EC0181E0888F9B8D8C8D981319
:1002C0001AC0E889F989808185FF15C09FB7F89425
:1002D000EE89FF896083E889F98980818370806471
:1002E00080839FBF81E090E0DF91CF911F910F91BC
:1002F000FF90EF900895F62E0B8D10E00F5F1F4FCB
:100300000F731127E02E8C8D8E110CC00FB607FCD9
:10031000FACFE889F989808185FFF5CFCE010E9467
:100320003201F1CFEB8DEC0FFD2FF11DE35AFF4FA2
:10033000F0829FB7F8940B8FEA89FB8980818062F5
:10034000CFCFCF93DF93EC01888D8823B9F0AA89B2
:10035000BB89E889F9898C9185FD03C0808186FD80
:100360000DC00FB607FCF7CF8C9185FFF2CF8081CF
:1003700085FFEDCFCE010E943201E9CFDF91CF9111
:100380000895833081F028F4813099F08230A9F00B
:1003900008958730A9F08830C9F08430B1F4809195
:1003A00080008F7D03C0809180008F7780938000D4
:1003B000089584B58F7784BD089584B58F7DFBCF74
:1003C0008091B0008F778093B00008958091B00045
:1003D0008F7DF9CFCF93DF93282F30E0F901E255DD
:1003E000FF4F8491F901E656FF4FD491F901EA5786
:1003F000FF4FC491CC23A1F081110E94C101EC2FC9
:10040000F0E0EE0FFF1FE458FF4FA591B491EC917F
:10041000ED2381E090E009F480E0DF91CF91089531
:1004200080E090E0FACF1F93CF93DF93282F30E046
:10043000F901E255FF4F8491F901E656FF4FD4913F
:10044000F901EA57FF4FC491CC23A9F0162F81116F
:100450000E94C101EC2FF0E0EE0FFF1FEE58FF4F9E
:10046000A591B4918FB7F894EC91111108C0D09573
:10047000DE23DC938FBFDF91CF911F910895DE2B98
:10048000F8CFCF93DF9390E0FC01E656FF4F249125
:100490008A579F4FFC0184918823D1F090E0880F08
:1004A000991FFC01E859FF4FA591B491FC01EE584A
:1004B000FF4FC591D49161110EC09FB7F8948C91F4
:1004C000E22FE0958E238C932881E223E8839FBF5F
:1004D000DF91CF9108958FB7F894EC91E22BEC93D4
:1004E0008FBFF6CF1F93CF93DF93182FEB0161E0FF
:1004F0000E944102209739F460E0812FDF91CF9173
:100500001F910C941302CF3FD10511F461E0F5CF98
:10051000E12FF0E0E255FF4FE491E33031F140F498
:10052000E130B1F0E230E1F0C038D1057CF7E4CF42
:10053000E73029F1E83059F1E430B1F780918000DB
:10054000806280938000D0938B00C0938A0004C0A7
:1005500084B5806884BDC7BDDF91CF911F91089598
:1005600084B5806284BDC8BDF7CF8091800080686B
:1005700080938000D0938900C0938800EDCF809154
:10058000B00080688093B000C093B300E5CF809145
:10059000B00080628093B000C093B400DDCF3FB75D
:1005A000F8948091590190915A01A0915B01B0910A
:1005B0005C0126B5A89B05C02F3F19F00196A11D2F
:1005C000B11D3FBFBA2FA92F982F8827BC01CD019D
:1005D000620F711D811D911D42E0660F771F881FFC
:1005E000991F4A95D1F708958F929F92AF92BF922B
:1005F000CF92DF92EF92FF924B015C010E94CF02FB
:100600006B017C010E94CF026C197D098E099F0944
:10061000683E734081059105A8F321E0821A910894
:10062000A108B10888EEC80E83E0D81EE11CF11CB9
:1006300081149104A104B10429F7FF90EF90DF9099
:10064000CF90BF90AF909F908F9008952FB7F89460
:100650006091550170915601809157019091580118
:100660002FBF08954F925F926F927F929F92AF92A9
:10067000BF92CF92DF92EF92FF920F931F93CF938F
:10068000DF93EC016B01142F022F8B859C85892B46
:1006900031F08A85813099F0823009F475C0DF919C
:1006A000CF911F910F91FF90EF90DF90CF90BF906F
:1006B000AF909F907F906F905F904F900895F42E31
:1006C0008D85F816E8F4AF2CB12C88899989F5014D
:1006D000EE0FFF1FEC0DFD1D91838083EB85FC85E4
:1006E000EA0DFB1D61E080810E944102EB85FC85E3
:1006F000EA0DFB1D61E080810E941302F00EE0CF45
:1007000083E290E00197F1F7F8940E94CF022B0169
:10071000F12E8D85F81650F4EB85FC85EF0DF11D5B
:1007200060E080810E944102F00EF3CF7894B12CFA
:10073000A12C88899989A816B90608F0B0CFF89439
:100740000E94CF025B01A418B508912E8D859816E2
:10075000C8F4E92CF12CEB85FC85EE0DFF1D8081A2
:100760000E94EA01892B61F4EE0CFF1CF601EE0DEC
:10077000FF1D80819181A816B90610F4B182A08274
:10078000900EE4CF7894D5CF842F9D85891750F4AF
:10079000E82FF0E0EE0FFF1FEC0DFD1D118210821F
:1007A000800FF3CF20E08A89281770F5912F8D856F
:1007B000981740F5E92FF0E0AB85BC85AE0FBF1F61
:1007C0008C918E3008F08E508770806480937C000E
:1007D00080917A00806480937A0080917A0086FD0F
:1007E000FCCF6091780040917900EE0FFF1FEC0D77
:1007F000FD1D742F40815181460F571F5183408347
:10080000900FD5CF2F5FCFCF8D85181708F047CF2A
:10081000E12FF0E0EE0FFF1FEC0DFD1D6A8970E087
:10082000CB019595879520813181820F931F0E947E
:100830004F0F71836083100FE7CFFF920F931F93C9
:10084000CF93DF93EC01162FF42E662331F08D89C0
:10085000823079F500E0613089F48B898F3F51F067
:100860000E94EA01019731F460E08B890E94130233
:1008700001E001C000E08D898230B9F41D7FA9F448
:100880008C898F3F91F00E94EA01019771F460E03A
:100890008C890E941302FF2061F08E89882379F0F1
:1008A0008BEB92E10197F1F704C0FF2011F00111E9
:1008B000F4CFDF91CF911F910F91FF9008958BE1BD
:1008C00093E0F0CFCF92DF92EF92FF920F931F93BE
:1008D000CF93DF93EC01EA81FB8105A516A5888102
:1008E0009981B801681B790B072E000C880B990BB6
:1008F0000E94400D28EB3EE145E85DE30E947B0D40
:100900000E94190F6B01B801012E000C880B990B86
:100910000E94400D22E03BE247E05DE30E947B0D38
:100920000E94190FCB018C0D9D1D19830883DF9147
:10093000CF911F910F91FF90EF90DF90CF9008958E
:10094000CF93DF93EC018FEF90E06F3F710509F0DB
:1009500034F461308FEF7807B4F581E09FEF99832D
:1009600088838FEF90E04F3F510509F034F4413018
:100970008FEF58075CF581E09FEF9B838A83888126
:10098000998197FD26C060E086E00E94130261E035
:1009900087E00E9413028A819B8197FD2AC060E054
:1009A0008AE00E94130261E089E00E9413026881DC
:1009B000798185E00E9472026A817B818BE0DF9100
:1009C000CF910C94720279836883CBCF5B834A8387
:1009D000D6CF61E086E00E94130260E087E00E94CB
:1009E00013028881998191958195910999838883D2
:1009F000D2CF61E08AE00E94130260E089E00E94A9
:100A000013028A819B819195819591099B838A83A9
:100A1000CECF0F931F93CF93DF93EC010A851B85F5
:100A20008CE00E94EA0121E0009709F420E0F8013F
:100A30002083892B11F10C851D8588E00E94EA0135
:100A400021E0009709F420E0F8012083892BA9F028
:100A50008A899B89BC016C597F4F7D8B6C8B44E6E6
:100A600050E0481B590B5F8B4E8B8C819D81DF9131
:100A7000CF911F910F910C94A00450E040E070E0E2
:100A800060E0F3CFCF92DF92EF92FF920F931F932C
:100A9000CF93DF938C01C62FFC018689882369F0F0
:100AA000862F0E94EA01019741F460E08C2F0E949A
:100AB00013028BEB92E10197F1F761E08C2F0E941A
:100AC00013020E94CF026B01F80186898823A1F0EE
:100AD0008789882389F0F894D0E0F8018789D817AE
:100AE00050F460E08C2F0E94130261E08C2F0E9472
:100AF0001302DF5FF2CF7894C601DF91CF911F918F
:100B00000F91FF90EF90DF90CF900895EF92FF92BA
:100B10000F931F93CF93DF93EC01162F662331F1D0
:100B20008D89823009F100E08D898230A9F51D7F21
:100B300099F58C898F3F81F19E89992349F16C89C0
:100B4000CE010E9442057C018E89882371F1C3E2A7
:100B5000D0E00E94CF026E197F096C327140F0F430
:100B6000CE010197F1F7F5CF6130E9F68B898F3F20
:100B7000D1F29E89992339F06B89CE010E944205FA
:100B80007C0101E0D1CF0E94EA01892BA9F3CBCFF0
:100B90000E94EA01892B99F20111D6CFDF91CF9102
:100BA0001F910F91FF90EF9008958BE193E00197D3
:100BB000F1F7F4CF4F925F926F927F928F929F9254
:100BC000AF92BF92CF92DF92EF92FF920F931F935B
:100BD000CF93DF93EC017B01D42E8881882309F425
:100BE0004BC060E0CE010E94860521E040E0B701E5
:100BF000CE010E94320341E060E0CE010E941D045C
:100C0000C12C8D85C816C0F50C2D10E0000F111FEA
:100C1000E981FA81E00FF11F80819181EB81FC81F4
:100C2000E00FF11F0190F081E02DE81BF90B0E0D94
:100C30001F1D3097D1F0D8012D913C9150E040E03C
:100C4000281B390B41095109A8EEB3E00E945B0E45
:100C50009F0150E040E00E94630F293EB3E03B0754
:100C600014F028EE33E037FF02C030E020E0F80156
:100C700031832083C394C5CFCD8410E000E0912C54
:100C8000F0E0E0E0412C512C3201812C88EEA82EBE
:100C900083E0B82EC91409F1D7014D915D917D0112
:100CA000DD2021F0C501841B950BAC01493C5105A9
:100CB00088F44333510550F09A01D8010E94820F05
:100CC000460E571E681E791EE40FF51F93940851B7
:100CD0001C4FE0CF88248394EFCF81102BC0AC2D24
:100CE000A150BB0B44EF51E0A49FC001A59F900D04
:100CF000B49F900D1124488D598D4817590728F13C
:100D000048EE53E0A49FC001A59F900DB49F900DA5
:100D10001124DF91CF911F910F91FF90EF90DF9001
:100D2000CF90BF90AF909F908F907F906F905F908B
:100D30004F9008959F0150E040E0C301B2010E942E
:100D4000390EC901398F288FE4CF90E080E0E1CFE0
:100D5000CF93DF93EC0118AA1FA6FC017B969C01A0
:100D6000255D3F4F90E080E0BF0141915191840F9C
:100D7000951FE217F307C9F798AB8FA781529340ED
:100D800083319540A0F41A8E8A8D41E0811101C013
:100D900040E0CE010E94DA059CA78BA78BA59CA5FD
:100DA0008C5A9D409EA78DA7DF91CF91089581E039
:100DB0008A8FEACFFC0101900020E9F73197AF015B
:100DC000481B590BBC0183E691E00C94B4008F9250
:100DD0009F92AF92BF920F931F93CF93DF93CDB7A4
:100DE000DEB7A1970FB6F894DEBF0FBECDBF19A234
:100DF000423008F44AE08E010F5D1F4F842E912C83
:100E0000B12CA12CA50194010E94390EE62FB90145
:100E1000CA01EA30F4F4E05DD801EE938D01232B92
:100E2000242B252B79F790E080E0109719F0CD0165
:100E30000E94DA06A1960FB6F894DEBF0FBECDBFB2
:100E4000DF91CF911F910F91BF90AF909F908F90A6
:100E50000895E95CE1CF4F925F926F927F928F92FB
:100E60009F92AF92BF92CF92DF92EF92FF920F9339
:100E70001F93CF93DF93CDB7DEB7C85FD1090FB60D
:100E8000F894DEBF0FBECDBF8C017B01C42EDB0109
:100E90008C9181115FC01396AD90BC90F80165856F
:100EA00070E0660F771FC5010E94B410D701149639
:100EB0009C938E931397892BD9F4C5010E942B1014
:100EC000C850DF4F0FB6F894DEBF0FBECDBFDF9125
:100ED000CF911F910F91FF90EF90DF90CF90BF9037
:100EE000AF909F908F907F906F905F904F900895FC
:100EF000F701A180B280D8011D966C9170E0660F59
:100F0000771FC5010E94B410AC01F7019283818361
:100F100090E04115510589F2D8011D968C919817E2
:100F2000B0F4292F30E0220F331FD7011396ED9133
:100F3000FC91E20FF31F11821082F8016089718920
:100F4000240F351FD9016D937C939F5FE5CF81E01E
:100F5000F7018083D12C43E2A42EB12CF1E0CF160F
:100F600040F082E08C1508F03FC093E0C91609F408
:100F70007AC041E060E0C8010E941D0421E040E029
:100F8000BE01615C7F4FC8010E943203D8011D96EB
:100F90006C90DE01A554BF4F2E01EDE74E0E511CA3
:100FA0009E01215C3F4F712C4D01B201671409F481
:100FB000B3C0F901819191919F01DD2009F4A3C093
:100FC000F201408151814817590708F49CC04D91A6
:100FD0005C9111978417950708F49AC07394129640
:100FE000F2E04F0E511CE2CF60E0C8010E9486057E
:100FF00021E040E0BE01615C7F4FC8010E943203E6
:1010000041E060E0C8010E941D04F2E0CF12BECFB3
:1010100021E040E0BE016F5F7F4FC8010E943203B4
:10102000D8011D967C91FE01FF96CE0101964C01E0
:1010300060E0761709F4AACFD80150962D913C9123
:10104000D4014D915D914D0180819181820F931F5B
:10105000841B950B2817390708F452C091838083AD
:101060006F5F3296E6CF40E062E0C8010E941D0447
:101070000E94CF022B0161E0C8010E948605D801C1
:1010800056968C91882359F00E94CF0264197509F5
:10109000603B744020F4C5010197F1F7F5CF22E0E1
:1010A00040E0BE01615C7F4FC8010E94320340E016
:1010B00061E0C8010E941D040E94CF022B0162E082
:1010C000C8010E948605F8018689882359F00E948C
:1010D000CF0264197509603B744020F4C501019783
:1010E000F1F7F5CF22E041E0BE01615C7F4FC8011E
:1010F0000E94320341E060E0C8010E941D0446CF17
:1011000031832083ADCFF20191838083D1105FCFF3
:1011100011969C938E9362CFD3948AE0D8121ECFFF
:1011200020E0D8011D968C91281708F0C9CE822F97
:1011300090E0880F991FF401E80FF91F4081518159
:10114000D7011396ED91FC91E80FF91FA081B181B1
:10115000A417B50710F451834083FB01E80FF91F72
:1011600040815181D7011196ED91FC91E80FF91F53
:10117000808191814817590710F4518340832F5F74
:10118000D0CF1F920F920FB60F9211242F933F933F
:101190004F935F936F937F938F939F93AF93BF937F
:1011A000EF93FF9383E691E00E943201FF91EF916C
:1011B000BF91AF919F918F917F916F915F914F916F
:1011C0003F912F910F900FBE0F901F9018951F9277
:1011D0000F920FB60F9211242F938F939F93EF933B
:1011E000FF93E0917301F09174018081E0917901A6
:1011F000F0917A0182FD1BC0908180917C018F5F0C
:101200008F7320917D01821741F0E0917C01F0E025
:10121000ED59FE4F958F80937C01FF91EF919F9147
:101220008F912F910F900FBE0F901F901895808176
:10123000F4CF1F920F920FB60F9211242F933F936A
:101240008F939F93AF93BF938091550190915601D7
:10125000A0915701B09158013091540123E0230F20
:101260002D3758F50196A11DB11D2093540180938F
:10127000550190935601A0935701B0935801809166
:10128000590190915A01A0915B01B0915C010196C6
:10129000A11DB11D8093590190935A01A0935B0148
:1012A000B0935C01BF91AF919F918F913F912F912E
:1012B0000F900FBE0F901F90189526E8230F0296EF
:1012C000A11DB11DD2CFE3E6F1E01382128288EEB8
:1012D00093E0A0E0B0E084839583A683B78382E1A6
:1012E00091E09183808385EC90E09587848784ECFE
:1012F00090E09787868780EC90E0918B808B81ECE3
:1013000090E0938B828B82EC90E0958B848B86ECC3
:1013100090E0978B868B118E128E138E148EE0E0E8
:10132000F2E01682178210861186128613861486C2
:10133000158616861786108A118A128A138A148ACD
:10134000158A0895789484B5826084BD84B58160DF
:1013500084BD85B5826085BD85B5816085BD809180
:101360006E00816080936E001092810080918100F8
:1013700082608093810080918100816080938100F0
:10138000809180008160809380008091B1008460B2
:101390008093B1008091B00081608093B000809113
:1013A0007A00846080937A0080917A0082608093D2
:1013B0007A0080917A00816080937A0080917A002F
:1013C000806880937A001092C100109242021092BD
:1013D00043021092440210924502109202021092AF
:1013E000030210920402109205020E9426036B0170
:1013F0007C012B013C0128EB420E2BE0521E611CAC
:10140000711C0E9426036C157D058E059F0528F032
:101410004616570668067906A0F768EE73E080E086
:1014200090E00E94F4020E948C000E9426036093C8
:10143000020270930302809304029093050280E2FB
:1014400091E00E94DA060E9426036B017C012B01C9
:101450003C013AE0430E511C611C711C0E942603A2
:101460006C157D058E059F0528F046165706680603
:101470007906A0F7FF24F394F09216020E948C00E4
:101480008CE190E00E948F0F8C0181E391E00E943B
:10149000DA068CE391E00E94DA0681E390E00E9494
:1014A0008F0FEC0118821A8219821C821B821D8206
:1014B0001F821E82198618861C861B861D8684EC58
:1014C00099E09F878E8784E08A8B8FEF8B8B8C8B44
:1014D0001D8AFE8A1F8A198E188E82E08A878FEFF6
:1014E00093E0998B888B68E070E090E080E00E9448
:1014F000B4109C878B87892B91F0A6E0B1E090E037
:1015000080E02D91EB85FC85E80FF91F2083019683
:1015100088309105B1F788E08D8718821D8261E0DF
:101520008DE00E94410261E08DE00E94130224E6FA
:10153000E22EF12C41E0BE01CE010E942B0741E0DA
:10154000E41AF108B9F760E08DE00E9413020E94EE
:101550008C00D12CC12CE981FA81EC0DFD1D60813C
:10156000718190E080E04AE00E94E70660E283E655
:1015700091E00E94540152E0C50ED11C80E1C816D2
:10158000D10449F78CE391E00E94DA06EB81FC81FB
:10159000EE0DFF1D6081718190E080E04AE00E94C5
:1015A000E70660E283E691E00E945401E2E0EE0E7D
:1015B000F11CF0E1EF16F10449F78CE391E00E9491
:1015C000DA068CE391E00E94DA0660ED77E080E0D5
:1015D00090E00E94F402BE01655E7F4F41E0CE01C3
:1015E0000E94DA059CA78BA7F801D183C08384E011
:1015F00090E00E948F0FFC01D383C283118210827E
:10160000F8019383828384E090E00E948F0FEC01C5
:1016100061E085E00E94410261E086E00E944102B3
:1016200061E087E00E94410261E08BE00E9441029C
:1016300061E08AE00E94410261E089E00E9441028B
:10164000F801D583C48382E090E00E948F0FEC0103
:1016500061E083E00E944102F801D783C68382E102
:1016600090E00E948F0FEC0160E082E00E94410256
:1016700060E084E00E9441021B821A821D821C826B
:101680001E821F82188619861A861B861C861D8656
:101690001E861F86188A198A18821982F801D18736
:1016A000C08781E090E00E948F0FEC0160E08CE049
:1016B0000E944102F801D387C28781E090E00E9436
:1016C0008F0FEC0160E088E00E944102F801D587AD
:1016D000C487138E128E1786118A108A168610936D
:1016E0005E0100935D0180E0282E80E0382E94EFAB
:1016F000492E55245394612C712C0E942603672B8C
:10170000682B692B09F4DFC00E94260300915F015A
:1017100010916001209161013091620160177107A1
:101720008207930708F491C100915F011091600155
:1017300020916101309162016B017C01C01AD10AD4
:10174000E20AF30A970186010A3F110521053105D6
:1017500008F4C1C060935F017093600180936101E0
:101760009093620140920E0250920F02609210021A
:10177000709211021092120210921302109214022F
:10178000109215028091060290910702A091080222
:10179000B091090280930A0290930B02A0930C026D
:1017A000B0930D020E942603609306027093070215
:1017B00080930802909309020E942603609302021C
:1017C0007093030280930402909305020E94260303
:1017D0006B017C018FE391E00E94DA064AE061E050
:1017E00070E080E090E00E94E70686E491E00E94CD
:1017F000DA064AE0C701B6010E94E70688E491E0F4
:101800000E94DA068091060290910702A0910802D8
:10181000B0910902A7019601281B390B4A0B5B0BFB
:10182000CA01B9014AE00E94E70688E491E00E94FB
:10183000DA06609106027091070280910802909189
:10184000090200910A0210910B0220910C023091C2
:101850000D02601B710B820B930B4AE00E94E7069E
:101860008AE491E00E94DA060E9426034AE00E9480
:10187000E7068CE491E00E94DA068CE391E00E9496
:10188000DA060E9426034B015C017C016B0135E006
:10189000C30ED11CE11CF11C0E94260368157905BA
:1018A0008A059B0528F0C616D706E806F906A0F7B4
:1018B0000E94260360930602709307028093080239
:1018C0009093090208C00E942603623071058105C9
:1018D000910508F019CFC0915D01D0915E01088596
:1018E000198582E00E94EA01892BD9F4F8018081F0
:1018F000811117C0828193810196938382832AE9A3
:1019000039E949EA50E466817781808591850E94B2
:10191000AD0EF8016683778380879187CC24C394CA
:10192000C08282E00E94EA01019711F4F80110825E
:1019300084E00E94EA01892BD9F4F80181818111A8
:1019400017C0848195810196958384832AE939E9BA
:1019500049EA50E462857385848595850E94AD0EC1
:10196000F8016287738784879587CC24C394C182EA
:1019700084E00E94EA01019711F4F8011182F80154
:10198000228533854485558566817781808591855B
:101990000E94AD0E20E030E040E05FE30E947B0D4E
:1019A000F80166877787808B918B888199810E9467
:1019B000A80688819981FC0127A530A9243FF1E080
:1019C0003F070CF04BC0CC24C394CF862E85211149
:1019D00025C00A851B858CE00E94EA0121E0009762
:1019E00009F420E0F8012083892B19F51B8E1A8E4B
:1019F00045E950E062E370E08C819D810E94A00483
:101A0000888199810E94A80688819981FC0125A579
:101A100036A52153384F2B3B324050F70E94A80681
:101A20008A819B810E9462049B8B8A8BCE010E94DB
:101A300009052114310409F460CE0E941E01882397
:101A400009F45BCE0E94000058CE60935F01709352
:101A50006001809361019093620166CE213D374021
:101A60000CF4B4CF2F85222309F4B0CF2A8D3B8DFF
:101A70002F5F3F4F3B8F2A8F1F86A8CFE89409C066
:101A800097FB3EF490958095709561957F4F8F4FB1
:101A90009F4F9923A9F0F92F96E9BB279395F695C7
:101AA000879577956795B795F111F8CFFAF4BB0F45
:101AB00011F460FF1BC06F5F7F4F8F4F9F4F16C0A9
:101AC000882311F096E911C0772321F09EE8872F33
:101AD000762F05C0662371F096E8862F70E060E0EF
:101AE0002AF09A95660F771F881FDAF7880F969568
:101AF000879597F908950E948E0D0C94FF0D0E9412
:101B0000F10D38F00E94F80D20F0952311F00C949F
:101B1000E80D0C94EE0D11240C94330E0E94100E5F
:101B200070F3959FC1F3950F50E0551F629FF00130
:101B3000729FBB27F00DB11D639FAA27F00DB11D49
:101B4000AA1F649F6627B00DA11D661F829F2227D2
:101B5000B00DA11D621F739FB00DA11D621F839F59
:101B6000A00D611D221F749F3327A00D611D231F2F
:101B7000849F600D211D822F762F6A2F11249F577D
:101B800050409AF0F1F088234AF0EE0FFF1FBB1F80
:101B9000661F771F881F91505040A9F79E3F51053F
:101BA00080F00C94E80D0C94330E5F3FE4F3983E04
:101BB000D4F3869577956795B795F795E7959F5FE9
:101BC000C1F7FE2B880F911D9695879597F908957B
:101BD00097F99F6780E870E060E008959FEF80ECE0
:101BE000089500240A941616170618060906089583
:101BF00000240A9412161306140605060895092EE9
:101C00000394000C11F4882352F0BB0F40F4BF2B57
:101C100011F460FF04C06F5F7F4F8F4F9F4F089597
:101C200057FD9058440F551F59F05F3F71F047958D
:101C3000880F97FB991F61F09F3F79F08795089572
:101C4000121613061406551FF2CF4695F1DF08C091
:101C5000161617061806991FF1CF869571056105AE
:101C600008940895E894BB2766277727CB0197F956
:101C70000895A1E21A2EAA1BBB1BFD010DC0AA1FCD
:101C8000BB1FEE1FFF1FA217B307E407F50720F0E5
:101C9000A21BB30BE40BF50B661F771F881F991F60
:101CA0001A9469F760957095809590959B01AC01A9
:101CB000BD01CF0108950E949D0EA59F900DB49F78
:101CC000900DA49F800D911D112408952F923F9295
:101CD0004F925F926F927F928F929F92AF92BF923C
:101CE000CF92DF92EF92FF920F931F93CF93DF93E8
:101CF000CDB7DEB7CA1BDB0B0FB6F894DEBF0FBE45
:101D0000CDBF09942A88398848885F846E847D8491
:101D10008C849B84AA84B984C884DF80EE80FD8093
:101D20000C811B81AA81B981CE0FD11D0FB6F89409
:101D3000DEBF0FBECDBFED010895A29FB001B39FDE
:101D4000C001A39F700D811D1124911DB29F700DC4
:101D5000811D1124911D08955058BB27AA270E9468
:101D6000C40E0C94FF0D0E94F10D38F00E94F80D86
:101D700020F039F49F3F19F426F40C94EE0D0EF484
:101D8000E095E7FB0C94E80DE92F0E94100E58F344
:101D9000BA17620773078407950720F079F4A6F550
:101DA0000C94320E0EF4E0950B2EBA2FA02D0B01E1
:101DB000B90190010C01CA01A0011124FF27591B90
:101DC00099F0593F50F4503E68F11A16F040A22F96
:101DD000232F342F4427585FF3CF46953795279507
:101DE000A795F0405395C9F77EF41F16BA0B620B06
:101DF000730B840BBAF09150A1F0FF0FBB1F661F4D
:101E0000771F881FC2F70EC0BA0F621F731F841F8F
:101E100048F4879577956795B795F7959E3F08F0B5
:101E2000B0CF9395880F08F09927EE0F9795879577
:101E300008950E94200F6894B1110C94330E0895F8
:101E40000E94180E88F09F5798F0B92F9927B75124
:101E5000B0F0E1F0660F771F881F991F1AF0BA954E
:101E6000C9F714C0B13091F00E94320EB1E008956C
:101E70000C94320E672F782F8827B85F39F0B93F5E
:101E8000CCF3869577956795B395D9F73EF4909501
:101E90008095709561957F4F8F4F9F4F0895AA1B36
:101EA000BB1B51E107C0AA1FBB1FA617B70710F045
:101EB000A61BB70B881F991F5A95A9F78095909577
:101EC000BC01CD010895052E97FB1EF400940E94DD
:101ED0007A0F57FD07D00E94390E07FC03D04EF44D
:101EE0000C947A0F50954095309521953F4F4F4F68
:101EF0005F4F089590958095709561957F4F8F4FB6
:101F00009F4F08950E949D0EB7FF0895821B930B6B
:101F10000895EE0FFF1F0590F491E02D09940F93A3
:101F20001F93CF93DF938230910510F482E090E00D
:101F3000E0914802F091490230E020E0B0E0A0E0FA
:101F4000309799F42115310509F44AC0281B390B43
:101F500024303105D8F58A819B816115710589F19D
:101F6000FB0193838283FE0111C040815181028174
:101F7000138148175907E0F04817590799F410974B
:101F800061F012960C93129713961C933296CF0120
:101F9000DF91CF911F910F91089500934802109304
:101FA0004902F4CF2115310551F04217530738F09B
:101FB000A901DB019A01BD01DF01F801C1CFEF01E9
:101FC000F9CF9093490280934802CDCFFE01E20FF2
:101FD000F31F819391932250310939832883D7CFFE
:101FE0002091460230914702232B41F420910201B7
:101FF0003091030130934702209346022091000163
:10200000309101012115310541F42DB73EB74091C2
:10201000040150910501241B350BE0914602F0911B
:102020004702E217F307A0F42E1B3F0B28173907CE
:1020300078F0AC014E5F5F4F2417350748F04E0F24
:102040005F1F5093470240934602819391939FCF25
:10205000F0E0E0E09CCFCF93DF930097E9F0FC0144
:10206000329713821282A0914802B0914902ED0189
:1020700030E020E01097A1F420813181820F931F7E
:1020800020914602309147022817390709F061C0B4
:10209000F0934702E0934602DF91CF910895EA0161
:1020A000CE17DF07E8F54A815B819E014115510596
:1020B000B1F7E901FB83EA8349915991C40FD51F18
:1020C000EC17FD0761F4808191810296840F951FC2
:1020D000E90199838883828193819B838A83F0E0DD
:1020E000E0E012968D919C9113970097B9F52D9190
:1020F0003C911197CD010296820F931F20914602C9
:10210000309147022817390739F6309751F5109268
:10211000490210924802B0934702A0934602BCCFF6
:10212000D383C28340815181840F951FC817D9077B
:1021300061F44E5F5F4F88819981480F591F518329
:1021400040838A819B81938382832115310509F025
:10215000B0CFF0934902E09348029ECFFD01DC012D
:10216000C0CF13821282D7CFB0E0A0E0EAEBF0E15B
:102170000C94680E8C01009751F4CB010E948F0FD4
:102180008C01C801CDB7DEB7E0E10C94840EFC01F0
:10219000E60FF71F9C0122503109E217F30708F4FC
:1021A0009DC0D901CD91DC911197C617D70798F042
:1021B000C530D10530F3CE0104978617970708F391
:1021C000C61BD70B2297C193D1936D937C93CF01FC
:1021D0000E942B10D6CF5B01AC1ABD0A4C018C0EAD
:1021E0009D1EA0914802B0914902512C412CF12C26
:1021F000E12C109731F580914602909147028815A5
:10220000990509F05CC04616570608F058C0809141
:10221000000190910101009741F48DB79EB7409164
:10222000040150910501841B950BE817F90708F08C
:1022300055C0F0934702E0934602F9017183608331
:10224000A0CF8D919C91119712966C901297139636
:102250007C901397A815B90559F56C0142E0C40E9E
:10226000D11CCA14DB0420F1AC014A195B09DA0164
:102270001296159780F06282738251834083D90150
:102280006D937C93E114F10471F0D7011396FC93E4
:10229000EE93129776CF22968C0F9D1FF9019183B2
:1022A0008083F301EFCFF0934902E093480269CFB6
:1022B0004816590608F42C017D01D3019ACFCB01B1
:1022C0000E948F0F7C01009749F0AE01B8010E9477
:1022D0007111C8010E942B10870153CF10E000E05C
:1022E00050CFFB01DC0102C001900D9241505040E3
:0822F000D8F70895F894FFCF20
:1022F80000004A0280001514131211100F0E00007E
:1023080000005401B400E100A1011201F000040131
:10231800564D4450565F317C315F564D4450560AF5
:10232800006D616E616765206B7572000D0A00565D
:102338004D4450455F003A323A007C005F564D44A8
:0423480050450000FC
:107800000C94343C0C94513C0C94513C0C94513CE1
:107810000C94513C0C94513C0C94513C0C94513CB4
:107820000C94513C0C94513C0C94513C0C94513CA4
:107830000C94513C0C94513C0C94513C0C94513C94
:107840000C94513C0C94513C0C94513C0C94513C84
:107850000C94513C0C94513C0C94513C0C94513C74
:107860000C94513C0C94513C11241FBECFEFD8E036
:10787000DEBFCDBF11E0A0E0B1E0ECE9FFE702C060
:1078800005900D92A230B107D9F712E0A2E0B1E065
:1078900001C01D92AD30B107E1F70E942D3D0C945F
:1078A000CC3F0C94003C982F959595959595959582
:1078B000905D8F708A307CF0282F295A8091C0000B
:1078C00085FFFCCF9093C6008091C00085FFFCCF60
:1078D0002093C6000895282F205DF0CF982F809127
:1078E000C00085FFFCCF9093C6000895EF92FF92F1
:1078F0000F931F93EE24FF2487018091C00087FD22
:1079000017C00894E11CF11C011D111D81E4E8164B
:1079100082E4F8068FE0080780E0180770F3E09132
:107920000401F091050109958091C00087FFE9CF1E
:107930008091C6001F910F91FF90EF9008950E94D3
:10794000763C982F8091C00085FFFCCF9093C600B5
:1079500091362CF490330CF09053892F089597555D
:10796000892F08951F930E949F3C182F0E949F3CCF
:107970001295107F810F1F9108951F93182F882350
:1079800021F00E94763C1150E1F71F9108951F935A
:10799000182F0E94763C803249F0809103018F5F5E
:1079A000809303018530C1F01F9108958091C0003C
:1079B00085FFFCCF84E18093C6008091C00085FFE5
:1079C000FCCF1093C6008091C00085FFFCCF80E102
:1079D0008093C6001F910895E0910401F091050184
:1079E00009951F9108950E94763C803241F0809164
:1079F00003018F5F80930301853081F008958091AA
:107A0000C00085FFFCCF84E18093C6008091C00058
:107A100085FFFCCF80E18093C6000895E0910401CA
:107A2000F09105010995089540E951E08823A1F0FE
:107A30002D9A28EE33E0FA013197F1F721503040CA
:107A4000D1F72D9828EE33E0FA013197F1F7215064
:107A50003040D1F7815061F708953F924F925F9285
:107A60006F927F928F929F92AF92BF92CF92DF924E
:107A7000EF92FF920F931F93CF93DF93000080E16B
:107A80008093C4001092C50088E18093C10086E015
:107A90008093C2005098589A259A81E00E94143D24
:107AA00024E1F22E9EE1E92E85E9D82E0FE0C02ECA
:107AB00010E1B12EAA24A394B1E49B2EA6E58A2E50
:107AC000F2E57F2EE0E26E2E79E4572E63E5462E36
:107AD00050E5352E0E94763C8033B1F18133B9F107
:107AE000803409F46FC0813409F476C0823409F41B
:107AF00085C0853409F488C0803531F1823521F1A3
:107B0000813511F1853509F485C0863509F48DC0BC
:107B1000843609F496C0843709F403C1853709F423
:107B200072C1863709F466C0809103018F5F80932C
:107B30000301853079F6E0910401F0910501099582
:107B40000E94763C803351F60E94F33CC3CF0E94E2
:107B5000763C803249F78091C00085FFFCCFF092DF
:107B6000C6008091C00085FFFCCF9092C600809136
:107B7000C00085FFFCCF8092C6008091C00085FFC9
:107B8000FCCF7092C6008091C00085FFFCCF609250
:107B9000C6008091C00085FFFCCF5092C600809146
:107BA000C00085FFFCCF4092C6008091C00085FFD9
:107BB000FCCF3092C6008091C00085FFFCCFB09210
:107BC000C60088CF0E94763C863808F4BDCF0E945C
:107BD000763C0E94F33C7ECF0E94763C803809F4CC
:107BE0009CC0813809F40BC1823809F43CC1883942
:107BF00009F48FC080E00E94C73C6CCF84E10E94F2
:107C0000BD3C0E94F33C66CF85E00E94BD3C0E94D3
:107C1000F33C60CF0E94763C809306010E94763C44
:107C2000809307010E94F33C55CF0E94763C80333D
:107C300009F41DC183E00E94BD3C80E00E94C73C66
:107C400049CF0E94763C809309020E94763C809343
:107C5000080280910C028E7F80930C020E94763C79
:107C6000853409F415C18091080290910902892B8D
:107C700089F000E010E00E94763CF801E85FFE4FDA
:107C800080830F5F1F4F80910802909109020817AF
:107C9000190788F30E94763C803209F045CF809125
:107CA0000C0280FF01C16091060170910701660F0F
:107CB000771F7093070160930601A0910802B091AD
:107CC00009021097C9F0E8E0F1E09B01AD014E0F09
:107CD0005F1FF999FECF32BD21BD819180BDFA9A17
:107CE000F99A2F5F3F4FE417F50799F76A0F7B1F4B
:107CF00070930701609306018091C00085FFFCCF5F
:107D0000F092C6008091C00085FFFCCFB092C60003
:107D1000E1CE83E00E94C73CDDCE82E00E94C73CFA
:107D2000D9CE0E94763C809309020E94763C8093D3
:107D300008028091060190910701880F991F909386
:107D40000701809306010E94763C853409F4A6C0A1
:107D500080910C028E7F80930C020E94763C8032D0
:107D600009F0B8CE8091C00085FFFCCFF092C6002C
:107D7000609108027091090261157105B9F140E046
:107D800050E080910C02A82FA170B82FB27011C0E2
:107D9000BB2309F45CC0E0910601F0910701319624
:107DA000F0930701E09306014F5F5F4F46175707B7
:107DB000E8F4AA2369F3F999FECF209106013091E6
:107DC000070132BD21BDF89A90B58091C00085FFB2
:107DD000FCCF9093C6002F5F3F4F30930701209355
:107DE00006014F5F5F4F4617570718F38091C00099
:107DF00085FDE5CE8091C00085FFF8CFE0CE81E023
:107E00000E94C73C67CE0E94763C803209F08CCE3F
:107E10008091C00085FFFCCFF092C6008091C00029
:107E200085FFFCCFE092C6008091C00085FFFCCFAB
:107E3000D092C6008091C00085FFFCCFC092C600E2
:107E40008091C00085FFFCCFB092C60043CEE09188
:107E50000601F091070194918091C00085FFFCCF4D
:107E60009093C6009CCF80E10E94C73C33CE0E9415
:107E7000763C0E94763C182F0E94763C112309F430
:107E800083C0113009F484C08FE00E94C73C22CE29
:107E900080910C02816080930C02E5CE80910C02EF
:107EA000816080930C0259CF809107018823880F4D
:107EB000880B8A2180930B02809106019091070123
:107EC000880F991F90930701809306018091080203
:107ED00080FF09C080910802909109020196909359
:107EE000090280930802F894F999FECF1127E091D6
:107EF0000601F0910701C8E0D1E08091080290915D
:107F00000902103091F40091570001700130D9F34B
:107F100003E000935700E89500915700017001308D
:107F2000D9F301E100935700E89509901990009169
:107F3000570001700130D9F301E000935700E89534
:107F40001395103498F011270091570001700130FB
:107F5000D9F305E000935700E895009157000170B0
:107F60000130D9F301E100935700E895329602976A
:107F700009F0C7CF103011F00296E5CF112480919F
:107F8000C00085FFB9CEBCCE8EE10E94C73CA2CD19
:0C7F900085E90E94C73C9ECDF894FFCF0D
:027F9C00800063
:040000030000780081
:00000001FF