:100000000C945E000C9486000C9486000C94860080
:100010000C9486000C9486000C9486000C94860048
:100020000C9486000C9486000C9486000C94860038
:100030000C9486000C9486000C9486000C94860028
:100040000C94A8030C9486000C9476030C94500333
:100050000C9486000C9486000C9486000C94860008
:100060000C9486000C9486000000000024002700F9
:100070002A0000000000250028002B0004040404CE
:100080000404040402020202020203030303030342
:10009000010204081020408001020408102001021F
:1000A00004081020000000080002010000030407FB
:1000B0000000000000000000F2032D0711241FBE05
:1000C000CFEFD8E0DEBFCDBF22E0A8E6B1E001C0AF
:1000D0001D92A239B207E1F711E0A0E0B1E0E6E835
:1000E000F3E102C005900D92A836B107D9F710E0F0
:1000F000CDE5D0E004C02197FE010E94C507CC35B4
:10010000D107C9F70E94DC040C94B6090C940000D6
:10011000EBEBF1E0A089B18982E08C93A485B585F1
:100120001C92A685B7858FEC8C93108EA489B58917
:1001300086E08C93A289B3898C9180618C93A2898B
:10014000B3898C9188608C93A289B3898C918068E3
:100150008C930288F389E02D80818F7D80830895C0
:10016000AF92BF92CF92DF92EF92FF920F931F93C5
:10017000CF93DF936C017B018B01040F151FEB0103
:100180005E01AE18BF08C017D10759F06991D601BA
:10019000ED91FC910190F081E02DC6010995892B2C
:1001A00079F7C501DF91CF911F910F91FF90EF90EB
:1001B000DF90CF90BF90AF900895FC01538D448D98
:1001C000252F30E0842F90E0821B930B541710F002
:1001D000CF96089501970895FC01918D828D98170F
:1001E00061F0A28DAE0FBF2FB11D5D968C91928DE7
:1001F0009F5F9F73928F90E008958FEF9FEF089518
:10020000FC01918D828D981731F0828DE80FF11DE0
:10021000858D90E008958FEF9FEF0895FC01918DFB
:10022000228D892F90E0805C9F4F821B91098F73F4
:10023000992708958BEB91E00E940E0121E0892B14
:1002400009F420E0822F089580E090E0892B29F0C6
:100250000E941A0181110C9400000895FC01A48DE4
:10026000A80FB92FB11DA35ABF4F2C91848D90E0D8
:1002700001968F739927848FA689B7892C93A089BB
:10028000B1898C91837080648C93938D848D981345
:1002900006C00288F389E02D80818F7D80830895D8
:1002A000EF92FF920F931F93CF93DF93EC0181E0C6
:1002B000888F9B8D8C8D98131AC0E889F98980816D
:1002C00085FF15C09FB7F894EE89FF896083E889A0
:1002D000F98980818370806480839FBF81E090E092
:1002E000DF91CF911F910F91FF90EF900895F62E1F
:1002F0000B8D10E00F5F1F4F0F731127E02E8C8DB9
:100300008E110CC00FB607FCFACFE889F9898081FD
:1003100085FFF5CFCE010E942E01F1CFEB8DEC0FC2
:10032000FD2FF11DE35AFF4FF0829FB7F8940B8F1A
:10033000EA89FB8980818062CFCF682F8BEB91E0C7
:100340000C945001CF93DF93EC01888D8823B9F092
:10035000AA89BB89E889F9898C9185FD03C08081D0
:1003600086FD0DC00FB607FCF7CF8C9185FFF2CF4D
:10037000808185FFEDCFCE010E942E01E9CFDF9174
:10038000CF91089590E0FC01EC55FF4F2491FC01C2
:10039000E057FF4F3491FC01E458FF4FE491EE2306
:1003A000C9F0222339F0233001F1A8F4213019F1EA
:1003B000223029F1F0E0EE0FFF1FEE58FF4FA5911C
:1003C000B4918FB7F894EC91611126C030953E231B
:1003D0003C938FBF08952730A9F02830C9F024300E
:1003E00049F7809180008F7D03C0809180008F77D6
:1003F00080938000DFCF84B58F7784BDDBCF84B559
:100400008F7DFBCF8091B0008F778093B000D2CFEB
:100410008091B0008F7DF9CF3E2BDACFCF93DF9361
:1004200090E0FC01E057FF4F249184589F4FFC015E
:1004300084918823D1F090E0880F991FFC01E8593E
:10044000FF4FA591B491FC01EE58FF4FC591D49197
:1004500061110EC09FB7F8948C91E22FE0958E2326
:100460008C932881E223E8839FBFDF91CF91089589
:100470008FB7F894EC91E22BEC938FBFF6CF1F93DC
:10048000CF93DF93182FEB0161E00E940E022097BB
:1004900039F460E0812FDF91CF911F910C94C2015C
:1004A000CF3FD10511F461E0F5CFE12FF0E0EC553D
:1004B000FF4FE491E33031F140F4E130B1F0E2304C
:1004C000E1F0C038D1057CF7E4CFE73029F1E8301E
:1004D00059F1E430B1F78091800080628093800010
:1004E000D0938B00C0938A0004C084B5806884BD1B
:1004F000C7BDDF91CF911F91089584B5806284BDFF
:10050000C8BDF7CF80918000806880938000D09331
:100510008900C0938800EDCF8091B00080688093FF
:10052000B000C093B300E5CF8091B00080628093AB
:10053000B000C093B400DDCF3FB7F89480916D0157
:1005400090916E01A0916F01B091700126B5A89BAA
:1005500005C02F3F19F00196A11DB11D3FBFBA2F55
:10056000A92F982F8827BC01CD01620F711D811D15
:10057000911D42E0660F771F881F991F4A95D1F79A
:1005800008958F929F92AF92BF92CF92DF92EF9297
:10059000FF924B015C010E949C026B017C010E9456
:1005A0009C026C197D098E099F09683E7340810584
:1005B0009105A8F321E0821A9108A108B10888EEFC
:1005C000C80E83E0D81EE11CF11C81149104A10423
:1005D000B10429F7FF90EF90DF90CF90BF90AF90DC
:1005E0009F908F9008952FB7F89460916901709152
:1005F0006A0180916B0190916C012FBF0895FC01FD
:1006000001900020E9F73197AF01481B590BBC015D
:100610008BEB91E00C94B0008F929F92AF92BF92BF
:100620000F931F93CF93DF93CDB7DEB7A1970FB68C
:10063000F894DEBF0FBECDBF19A2423008F44AE0E5
:100640008E010F5D1F4F842E912CB12CA12CA50182
:1006500094010E946C07E62FB901CA01EA30F4F454
:10066000E05DD801EE938D01232B242B252B79F708
:1006700090E080E0109719F0CD010E94FF02A19652
:100680000FB6F894DEBF0FBECDBFDF91CF911F91A3
:100690000F91BF90AF909F908F900895E95CE1CF4C
:1006A0001F920F920FB60F9211242F933F934F93E7
:1006B0005F936F937F938F939F93AF93BF93EF93CA
:1006C000FF938BEB91E00E942E01FF91EF91BF9180
:1006D000AF919F918F917F916F915F914F913F91DA
:1006E0002F910F900FBE0F901F9018951F920F9291
:1006F0000FB60F9211242F938F939F93EF93FF9335
:10070000E091CB01F091CC018081E091D101F09199
:10071000D20182FD1BC090818091D4018F5F8F73C5
:100720002091D501821741F0E091D401F0E0E55429
:10073000FE4F958F8093D401FF91EF919F918F9100
:100740002F910F900FBE0F901F9018958081F4CFBE
:100750001F920F920FB60F9211242F933F938F93F6
:100760009F93AF93BF938091690190916A01A0918B
:100770006B01B0916C013091680123E0230F2D379C
:1007800058F50196A11DB11D209368018093690160
:1007900090936A01A0936B01B0936C0180916D01FD
:1007A00090916E01A0916F01B09170010196A11D11
:1007B000B11D80936D0190936E01A0936F01B09372
:1007C0007001BF91AF919F918F913F912F910F90A9
:1007D0000FBE0F901F90189526E8230F0296A11DBB
:1007E000B11DD2CFCF93DF931092BE011092BD0105
:1007F00088EE93E0A0E0B0E08093BF019093C00149
:10080000A093C101B093C2018AE091E09093BC0132
:100810008093BB0185EC90E09093C8018093C70161
:1008200084EC90E09093CA018093C90180EC90E041
:100830009093CC018093CB0181EC90E09093CE011A
:100840008093CD0182EC90E09093D0018093CF0112
:1008500086EC90E09093D2018093D1011092D40164
:100860001092D5011092D6011092D70110927B01FF
:1008700010927C0110927D0110927E0110927F01F6
:1008800010928001109281011092820110928301D6
:1008900010928401109285011092860110928701B6
:1008A000109288011092890110928A018FEF90E0D6
:1008B00090938702809386028CE99FEF9093890240
:1008C000809388021092580210925A021092590294
:1008D00010925C0210925B0210925D0210925F0215
:1008E00010925E02109261021092600210926202F7
:1008F00010926402109263021092650284EC99E0F7
:1009000090936702809366029093690280936802D5
:1009100084E080936A028FEF80936B0280936C0275
:1009200010926D0281E080936E0210926F0210921D
:1009300071021092700289E00E949D0180E291E0B4
:100940000E94FF0289E00E949D0182E08093620282
:100950008FEF93E09093690280936802C0916302E5
:10096000D091640268E070E0CE010E94F00890939C
:10097000640280936302892B29F4CE01DF91CF9129
:100980000C946708A8E1B1E090E080E02D91E0913F
:100990006302F0916402E80FF91F2083019688300A
:1009A0009105A1F788E08093650210925802109299
:1009B0005D02DF91CF910895789484B5826084BD03
:1009C00084B5816084BD85B5826085BD85B5816053
:1009D00085BD80916E00816080936E0010928100D1
:1009E000809181008260809381008091810081608C
:1009F000809381008091800081608093800080914D
:100A0000B10084608093B1008091B00081608093D8
:100A1000B00080917A00846080937A0080917A009F
:100A2000826080937A0080917A00816080937A005E
:100A300080917A00806880937A001092C1001092B1
:100A4000B7011092B8011092B9011092BA01109238
:100A50007701109278011092790110927A010E9428
:100A6000F3026B017C014B015C0128EB820E2BE051
:100A7000921EA11CB11C0E94F3026C157D058E050F
:100A80009F0528F086169706A806B906A0F768EE17
:100A900073E080E090E00E94C1020E9488000E9402
:100AA000F3026093770170937801809379019093BA
:100AB0007A0188E291E00E94FF020E94F3026B013A
:100AC0007C014B015C013AE0830E911CA11CB11C1E
:100AD0000E94F3026C157D058E059F0528F0861691
:100AE0009706A806B906A0F781E080938B010E94C3
:100AF000880000E010E084EF882E99249394A12CC4
:100B0000B12C0E94F302672B682B692B09F4E0C01B
:100B10000E94F302C0907101D0907201E0907301C5
:100B2000F09074016C157D058E059F0508F46FC16A
:100B3000C0907101D0907201E0907301F090740147
:100B40009B01AC012C193D094E095F0969017A012D
:100B50003AEFC316D104E104F10408F4C1C0609374
:100B6000710170937201809373019093740180926C
:100B7000830190928401A0928501B0928601109227
:100B80008701109288011092890110928A01809148
:100B90007B0190917C01A0917D01B0917E018093B9
:100BA0007F0190938001A0938101B09382010E9404
:100BB000F30260937B0170937C0180937D0190939D
:100BC0007E010E94F3026093770170937801809315
:100BD000790190937A010E94F3026B017C0189E311
:100BE00091E00E94FF024AE061E070E080E090E066
:100BF0000E940C0380E491E00E94FF024AE0C701DA
:100C0000B6010E940C0382E491E00E94FF028091F1
:100C10007B0190917C01A0917D01B0917E01A701A3
:100C20009601281B390B4A0B5B0BCA01B9014AE03C
:100C30000E940C0382E491E00E94FF0260917B011C
:100C400070917C0180917D0190917E01C0907F0127
:100C5000D0908001E0908101F09082016C197D09B3
:100C60008E099F094AE00E940C0384E491E00E94EF
:100C7000FF020E94F3024AE00E940C0386E491E026
:100C80000E94FF028DE491E00E94FF020E94F302A5
:100C90002B013C017C016B0135E0C30ED11CE11C32
:100CA000F11C0E94F302641575058605970528F06E
:100CB000C616D706E806F906A0F70E94F30260936D
:100CC0007B0170937C0180937D0190937E0108C02D
:100CD0000E94F302623071058105910508F018CF7A
:100CE000CCEFDEEF80918602909187028C179D07F2
:100CF0000CF096C090938B0280938A0290938D02A1
:100D000080938C0280918A0290918B0297FF99C008
:100D100060E086E00E94C20161E087E00E94C201BB
:100D200080918C0290918D0297FF91C060E08AE0E3
:100D30000E94C20161E089E00E94C20160918A02C2
:100D400070918B0285E00E943F0260918C0270914D
:100D50008D028BE00E943F0280E591E00E94FF023D
:100D6000C0908A02D0908B020D2C000CEE08FF0878
:100D70004AE0C701B601F7FE0BC08DE20E949D015B
:100D800066277727CB016C197D098E099F094AE0F8
:100D90000E940C0389E00E949D018BE591E00E9476
:100DA000FF02C0908C02D0908D020D2C000CEE083A
:100DB000FF084AE0C701B601F7FE0BC08DE20E94B2
:100DC0009D0166277727CB016C197D098E099F0944
:100DD0004AE00E940C038DE491E00E94FF0264E669
:100DE00070E080E090E00E94C1022196C83641E0A8
:100DF000D40709F077CF0115110509F482CE0E94BE
:100E00001A01882309F47DCE0E9400007ACE6093F7
:100E1000710170937201809373019093740188CE75
:100E20008091880290918902C817D9070CF462CF8B
:100E3000D0938B02C0938A02D0938D02C0938C0210
:100E400061CF61E086E00E94C20160E066CF61E0B0
:100E50008AE00E94C20160E06ECF80916B028F3FFA
:100E600031F060E00E940E028FEF80936B02809160
:100E70006C028F3F31F060E00E940E028FEF809392
:100E80006C0210926D02809163029091640200974F
:100E900011F00E94670880915B0290915C020097BC
:100EA00011F00E94670880916002909161020097A2
:100EB00011F00E9467088091590290915A020097A0
:100EC00011F00E94670880915E0290915F02009786
:100ED00011F00C9467080895A1E21A2EAA1BBB1BFF
:100EE000FD010DC0AA1FBB1FEE1FFF1FA217B307F6
:100EF000E407F50720F0A21BB30BE40BF50B661F0C
:100F0000771F881F991F1A9469F7609570958095CF
:100F100090959B01AC01BD01CF0108952F923F92A6
:100F20004F925F926F927F928F929F92AF92BF92F9
:100F3000CF92DF92EF92FF920F931F93CF93DF93A5
:100F4000CDB7DEB7CA1BDB0B0FB6F894DEBF0FBE02
:100F5000CDBF09942A88398848885F846E847D844F
:100F60008C849B84AA84B984C884DF80EE80FD8051
:100F70000C811B81AA81B981CE0FD11D0FB6F894C7
:100F8000DEBF0FBECDBFED010895EE0FFF1F059030
:100F9000F491E02D09940F931F93CF93DF93823048
:100FA000910510F482E090E0E0919002F0919102BE
:100FB00030E020E0B0E0A0E0309799F42115310551
:100FC00009F44AC0281B390B24303105D8F58A8131
:100FD0009B816115710589F1FB0193838283FE0179
:100FE00011C0408151810281138148175907E0F0F7
:100FF0004817590799F4109761F012960C931297BD
:1010000013961C933296CF01DF91CF911F910F91D0
:1010100008950093900210939102F4CF21153105A9
:1010200051F04217530738F0A901DB019A01BD01C5
:10103000DF01F801C1CFEF01F9CF909391028093C6
:101040009002CDCFFE01E20FF31F819391932250C6
:10105000310939832883D7CF20918E0230918F02B6
:10106000232B41F4209102013091030130938F0230
:1010700020938E022091000130910101211531054C
:1010800041F42DB73EB74091040150910501241B56
:10109000350BE0918E02F0918F02E217F307A0F476
:1010A0002E1B3F0B2817390778F0AC014E5F5F4FBE
:1010B0002417350748F04E0F5F1F50938F0240935F
:1010C0008E02819391939FCFF0E0E0E09CCFCF938D
:1010D000DF930097E9F0FC01329713821282A0910E
:1010E0009002B0919102ED0130E020E01097A1F460
:1010F00020813181820F931F20918E0230918F02C7
:101100002817390709F061C0F0938F02E0938E022F
:10111000DF91CF910895EA01CE17DF07E8F54A8104
:101120005B819E0141155105B1F7E901FB83EA831B
:1011300049915991C40FD51FEC17FD0761F48081C7
:1011400091810296840F951FE9019983888382819A
:1011500093819B838A83F0E0E0E012968D919C91CD
:1011600013970097B9F52D913C911197CD010296F7
:10117000820F931F20918E0230918F02281739071A
:1011800039F6309751F51092910210929002B09377
:101190008F02A0938E02BCCFD383C2834081518142
:1011A000840F951FC817D90761F44E5F5F4F888180
:1011B0009981480F591F518340838A819B81938372
:1011C00082832115310509F0B0CFF0939102E093AD
:1011D00090029ECFFD01DC01C0CF13821282D7CFD7
:1011E000B0E0A0E0E6EFF8E00C9490078C010097E7
:1011F00051F4CB010E94CB078C01C801CDB7DEB7FB
:10120000E0E10C94AC07FC01E60FF71F9C012250B3
:101210003109E217F30708F49DC0D901CD91DC91A3
:101220001197C617D70798F0C530D10530F3CE0116
:1012300004978617970708F3C61BD70B2297C1930D
:10124000D1936D937C93CF010E946708D6CF5B0149
:10125000AC1ABD0A4C018C0E9D1EA0919002B0915B
:101260009102512C412CF12CE12C109731F58091F9
:101270008E0290918F028815990509F05CC0461680
:10128000570608F058C08091000190910101009725
:1012900041F48DB79EB74091040150910501841B24
:1012A000950BE817F90708F055C0F0938F02E0930B
:1012B0008E02F90171836083A0CF8D919C9111976B
:1012C00012966C90129713967C901397A815B905F7
:1012D00059F56C0142E0C40ED11CCA14DB0420F1A4
:1012E000AC014A195B09DA011296159780F0628207
:1012F000738251834083D9016D937C93E114F1048F
:1013000071F0D7011396FC93EE93129776CF229645
:101310008C0F9D1FF90191838083F301EFCFF09330
:101320009102E093900269CF4816590608F42C0107
:101330007D01D3019ACFCB010E94CB077C0100979E
:1013400049F0AE01B8010E94AD09C8010E946708CA
:10135000870153CF10E000E050CFFB01DC0102C059
:1013600001900D9241505040D8F7089510E0CDE51E
:10137000D0E004C0FE010E94C5072196CE35D107FA
:06138000C9F7F894FFCF4D
:10138600000092028000000000005001B000DD0065
:10139600A2010E01EC0000011514131211100F0E1C
:1013A6006B75722071747200564D4450565F317CD5
:1013B600315F564D4450560A00564D4450455F0025
:1013C6003A323A007C005F564D445045000D0A0003
:1013D6006C65667453706565643A00726967687413
:0813E60053706565643A0000D4
:107800000C94343C0C94513C0C94513C0C94513CE1
:107810000C94513C0C94513C0C94513C0C94513CB4
:107820000C94513C0C94513C0C94513C0C94513CA4
:107830000C94513C0C94513C0C94513C0C94513C94
:107840000C94513C0C94513C0C94513C0C94513C84
:107850000C94513C0C94513C0C94513C0C94513C74
:107860000C94513C0C94513C11241FBECFEFD8E036
:10787000DEBFCDBF11E0A0E0B1E0ECE9FFE702C060
:1078800005900D92A230B107D9F712E0A2E0B1E065
:1078900001C01D92AD30B107E1F70E942D3D0C945F
:1078A000CC3F0C94003C982F959595959595959582
:1078B000905D8F708A307CF0282F295A8091C0000B
:1078C00085FFFCCF9093C6008091C00085FFFCCF60
:1078D0002093C6000895282F205DF0CF982F809127
:1078E000C00085FFFCCF9093C6000895EF92FF92F1
:1078F0000F931F93EE24FF2487018091C00087FD22
:1079000017C00894E11CF11C011D111D81E4E8164B
:1079100082E4F8068FE0080780E0180770F3E09132
:107920000401F091050109958091C00087FFE9CF1E
:107930008091C6001F910F91FF90EF9008950E94D3
:10794000763C982F8091C00085FFFCCF9093C600B5
:1079500091362CF490330CF09053892F089597555D
:10796000892F08951F930E949F3C182F0E949F3CCF
:107970001295107F810F1F9108951F93182F882350
:1079800021F00E94763C1150E1F71F9108951F935A
:10799000182F0E94763C803249F0809103018F5F5E
:1079A000809303018530C1F01F9108958091C0003C
:1079B00085FFFCCF84E18093C6008091C00085FFE5
:1079C000FCCF1093C6008091C00085FFFCCF80E102
:1079D0008093C6001F910895E0910401F091050184
:1079E00009951F9108950E94763C803241F0809164
:1079F00003018F5F80930301853081F008958091AA
:107A0000C00085FFFCCF84E18093C6008091C00058
:107A100085FFFCCF80E18093C6000895E0910401CA
:107A2000F09105010995089540E951E08823A1F0FE
:107A30002D9A28EE33E0FA013197F1F721503040CA
:107A4000D1F72D9828EE33E0FA013197F1F7215064
:107A50003040D1F7815061F708953F924F925F9285
:107A60006F927F928F929F92AF92BF92CF92DF924E
:107A7000EF92FF920F931F93CF93DF93000080E16B
:107A80008093C4001092C50088E18093C10086E015
:107A90008093C2005098589A259A81E00E94143D24
:107AA00024E1F22E9EE1E92E85E9D82E0FE0C02ECA
:107AB00010E1B12EAA24A394B1E49B2EA6E58A2E50
:107AC000F2E57F2EE0E26E2E79E4572E63E5462E36
:107AD00050E5352E0E94763C8033B1F18133B9F107
:107AE000803409F46FC0813409F476C0823409F41B
:107AF00085C0853409F488C0803531F1823521F1A3
:107B0000813511F1853509F485C0863509F48DC0BC
:107B1000843609F496C0843709F403C1853709F423
:107B200072C1863709F466C0809103018F5F80932C
:107B30000301853079F6E0910401F0910501099582
:107B40000E94763C803351F60E94F33CC3CF0E94E2
:107B5000763C803249F78091C00085FFFCCFF092DF
:107B6000C6008091C00085FFFCCF9092C600809136
:107B7000C00085FFFCCF8092C6008091C00085FFC9
:107B8000FCCF7092C6008091C00085FFFCCF609250
:107B9000C6008091C00085FFFCCF5092C600809146
:107BA000C00085FFFCCF4092C6008091C00085FFD9
:107BB000FCCF3092C6008091C00085FFFCCFB09210
:107BC000C60088CF0E94763C863808F4BDCF0E945C
:107BD000763C0E94F33C7ECF0E94763C803809F4CC
:107BE0009CC0813809F40BC1823809F43CC1883942
:107BF00009F48FC080E00E94C73C6CCF84E10E94F2
:107C0000BD3C0E94F33C66CF85E00E94BD3C0E94D3
:107C1000F33C60CF0E94763C809306010E94763C44
:107C2000809307010E94F33C55CF0E94763C80333D
:107C300009F41DC183E00E94BD3C80E00E94C73C66
:107C400049CF0E94763C809309020E94763C809343
:107C5000080280910C028E7F80930C020E94763C79
:107C6000853409F415C18091080290910902892B8D
:107C700089F000E010E00E94763CF801E85FFE4FDA
:107C800080830F5F1F4F80910802909109020817AF
:107C9000190788F30E94763C803209F045CF809125
:107CA0000C0280FF01C16091060170910701660F0F
:107CB000771F7093070160930601A0910802B091AD
:107CC00009021097C9F0E8E0F1E09B01AD014E0F09
:107CD0005F1FF999FECF32BD21BD819180BDFA9A17
:107CE000F99A2F5F3F4FE417F50799F76A0F7B1F4B
:107CF00070930701609306018091C00085FFFCCF5F
:107D0000F092C6008091C00085FFFCCFB092C60003
:107D1000E1CE83E00E94C73CDDCE82E00E94C73CFA
:107D2000D9CE0E94763C809309020E94763C8093D3
:107D300008028091060190910701880F991F909386
:107D40000701809306010E94763C853409F4A6C0A1
:107D500080910C028E7F80930C020E94763C8032D0
:107D600009F0B8CE8091C00085FFFCCFF092C6002C
:107D7000609108027091090261157105B9F140E046
:107D800050E080910C02A82FA170B82FB27011C0E2
:107D9000BB2309F45CC0E0910601F0910701319624
:107DA000F0930701E09306014F5F5F4F46175707B7
:107DB000E8F4AA2369F3F999FECF209106013091E6
:107DC000070132BD21BDF89A90B58091C00085FFB2
:107DD000FCCF9093C6002F5F3F4F30930701209355
:107DE00006014F5F5F4F4617570718F38091C00099
:107DF00085FDE5CE8091C00085FFF8CFE0CE81E023
:107E00000E94C73C67CE0E94763C803209F08CCE3F
:107E10008091C00085FFFCCFF092C6008091C00029
:107E200085FFFCCFE092C6008091C00085FFFCCFAB
:107E3000D092C6008091C00085FFFCCFC092C600E2
:107E40008091C00085FFFCCFB092C60043CEE09188
:107E50000601F091070194918091C00085FFFCCF4D
:107E60009093C6009CCF80E10E94C73C33CE0E9415
:107E7000763C0E94763C182F0E94763C112309F430
:107E800083C0113009F484C08FE00E94C73C22CE29
:107E900080910C02816080930C02E5CE80910C02EF
:107EA000816080930C0259CF809107018823880F4D
:107EB000880B8A2180930B02809106019091070123
:107EC000880F991F90930701809306018091080203
:107ED00080FF09C080910802909109020196909359
:107EE000090280930802F894F999FECF1127E091D6
:107EF0000601F0910701C8E0D1E08091080290915D
:107F00000902103091F40091570001700130D9F34B
:107F100003E000935700E89500915700017001308D
:107F2000D9F301E100935700E89509901990009169
:107F3000570001700130D9F301E000935700E89534
:107F40001395103498F011270091570001700130FB
:107F5000D9F305E000935700E895009157000170B0
:107F60000130D9F301E100935700E895329602976A
:107F700009F0C7CF103011F00296E5CF112480919F
:107F8000C00085FFB9CEBCCE8EE10E94C73CA2CD19
:0C7F900085E90E94C73C9ECDF894FFCF0D
:027F9C00800063
:040000030000780081
:00000001FF