:100000000C9462000C948A000C948A000C948A0070
:100010000C948A000C948A000C948A000C948A0038
:100020000C948A000C948A000C948A000C948A0028
:100030000C948A000C948A000C948A000C948A0018
:100040000C944D070C948A000C941B070C94F50635
:100050000C948A000C948A000C948A000C948A00F8
:100060000C948A000C948A000000000024002700F1
:100070002A0000000000250028002B0000000000DE
:1000800023002600290004040404040404040202DA
:100090000202020203030303030301020408102007
:1000A0004080010204081020010204081020000012
:1000B0000008000201000003040700000000000027
:1000C0000000970711241FBECFEFD8E0DEBFCDBFE1
:1000D00022E0A0E7B1E001C01D92A636B207E1F729
:1000E00011E0A0E0B1E0E4E5F0E202C005900D927D
:1000F000A037B107D9F710E0C2E6D0E004C02197DD
:10010000FE010E94370EC136D107C9F70E94D607FB
:100110000C9428100C940000EFE7F1E0A089B1895D
:1001200082E08C93A485B5851C92A685B7858FEC5B
:100130008C93108EA489B58986E08C93A289B389AB
:100140008C9180618C93A289B3898C9188608C9307
:10015000A289B3898C9180688C930288F389E02D01
:1001600080818F7D80830895AF92BF92CF92DF927E
:10017000EF92FF920F931F93CF93DF936C017B015C
:100180008B01040F151FEB015E01AE18BF08C017ED
:10019000D10759F06991D601ED91FC910190F08160
:1001A000E02DC6010995892B79F7C501DF91CF9123
:1001B0001F910F91FF90EF90DF90CF90BF90AF9085
:1001C0000895FC01538D448D252F30E0842F90E05D
:1001D000821B930B541710F0CF9608950197089542
:1001E000FC01918D828D981761F0A28DAE0FBF2F0B
:1001F000B11D5D968C91928D9F5F9F73928F90E061
:1002000008958FEF9FEF0895FC01918D828D9817CF
:1002100031F0828DE80FF11D858D90E008958FEF0C
:100220009FEF0895FC01918D228D892F90E0805CD5
:100230009F4F821B91098F73992708958FE791E053
:100240000E94120121E0892B09F420E0822F0895F9
:1002500080E090E0892B29F00E941E0181110C940E
:1002600000000895FC01A48DA80FB92FB11DA35A59
:10027000BF4F2C91848D90E001968F739927848FC6
:10028000A689B7892C93A089B1898C9183708064E9
:100290008C93938D848D981306C00288F389E02D8A
:1002A00080818F7D80830895EF92FF920F931F933B
:1002B000CF93DF93EC0181E0888F9B8D8C8D981319
:1002C0001AC0E889F989808185FF15C09FB7F89425
:1002D000EE89FF896083E889F98980818370806471
:1002E00080839FBF81E090E0DF91CF911F910F91BC
:1002F000FF90EF900895F62E0B8D10E00F5F1F4FCB
:100300000F731127E02E8C8D8E110CC00FB607FCD9
:10031000FACFE889F989808185FFF5CFCE010E9467
:100320003201F1CFEB8DEC0FFD2FF11DE35AFF4FA2
:10033000F0829FB7F8940B8FEA89FB8980818062F5
:10034000CFCFCF93DF93EC01888D8823B9F0AA89B2
:10035000BB89E889F9898C9185FD03C0808186FD80
:100360000DC00FB607FCF7CF8C9185FFF2CF8081CF
:1003700085FFEDCFCE010E943201E9CFDF91CF9111
:100380000895833081F028F4813099F08230A9F00B
:1003900008958730A9F08830C9F08430B1F4809195
:1003A00080008F7D03C0809180008F7780938000D4
:1003B000089584B58F7784BD089584B58F7DFBCF74
:1003C0008091B0008F778093B00008958091B00045
:1003D0008F7DF9CFCF93DF93282F30E0F901E255DD
:1003E000FF4F8491F901E656FF4FD491F901EA5786
:1003F000FF4FC491CC23A1F081110E94C101EC2FC9
:10040000F0E0EE0FFF1FE458FF4FA591B491EC917F
:10041000ED2381E090E009F480E0DF91CF91089531
:1004200080E090E0FACF1F93CF93DF93282F30E046
:10043000F901E255FF4F8491F901E656FF4FD4913F
:10044000F901EA57FF4FC491CC23A9F0162F81116F
:100450000E94C101EC2FF0E0EE0FFF1FEE58FF4F9E
:10046000A591B4918FB7F894EC91111108C0D09573
:10047000DE23DC938FBFDF91CF911F910895DE2B98
:10048000F8CFCF93DF9390E0FC01E656FF4F249125
:100490008A579F4FFC0184918823D1F090E0880F08
:1004A000991FFC01E859FF4FA591B491FC01EE584A
:1004B000FF4FC591D49161110EC09FB7F8948C91F4
:1004C000E22FE0958E238C932881E223E8839FBF5F
:1004D000DF91CF9108958FB7F894EC91E22BEC93D4
:1004E0008FBFF6CF1F93CF93DF93182FEB0161E0FF
:1004F0000E944102209739F460E0812FDF91CF9173
:100500001F910C941302CF3FD10511F461E0F5CF98
:10051000E12FF0E0E255FF4FE491E33031F140F498
:10052000E130B1F0E230E1F0C038D1057CF7E4CF42
:10053000E73029F1E83059F1E430B1F780918000DB
:10054000806280938000D0938B00C0938A0004C0A7
:1005500084B5806884BDC7BDDF91CF911F91089598
:1005600084B5806284BDC8BDF7CF8091800080686B
:1005700080938000D0938900C0938800EDCF809154
:10058000B00080688093B000C093B300E5CF809145
:10059000B00080628093B000C093B400DDCF3FB75D
:1005A000F8948091750190917601A0917701B091B6
:1005B000780126B5A89B05C02F3F19F00196A11D13
:1005C000B11D3FBFBA2FA92F982F8827BC01CD019D
:1005D000620F711D811D911D42E0660F771F881FFC
:1005E000991F4A95D1F708958F929F92AF92BF922B
:1005F000CF92DF92EF92FF920E94CF024B015C01FB
:1006000088EEC82E83E0D82EE12CF12C0E94CF0278
:10061000681979098A099B09683E7340810591052B
:10062000A8F321E0C21AD108E108F10888EE880E8B
:1006300083E0981EA11CB11CC114D104E104F10493
:1006400029F7FF90EF90DF90CF90BF90AF909F90F1
:100650008F9008952FB7F894609171017091720195
:1006600080917301909174012FBF08954F925F9212
:100670006F927F929F92AF92BF92CF92DF92EF9252
:10068000FF920F931F93CF93DF93EC016B01142F15
:10069000022F8B859C85892B31F08A85813099F0DA
:1006A000823009F475C0DF91CF911F910F91FF90B7
:1006B000EF90DF90CF90BF90AF909F907F906F9022
:1006C0005F904F900895F42E8D85F816E8F4AF2CC6
:1006D000B12C88899989F501EE0FFF1FEC0DFD1DE6
:1006E00091838083EB85FC85EA0DFB1D61E08081B1
:1006F0000E944102EB85FC85EA0DFB1D61E08081D3
:100700000E941302F00EE0CF83E290E00197F1F730
:10071000F8940E94CF022B01F12E8D85F81650F42B
:10072000EB85FC85EF0DF11D60E080810E944102A8
:10073000F00EF3CF7894B12CA12C88899989A81652
:10074000B90608F0B0CFF8940E94CF025B01A4185C
:10075000B508912E8D859816C8F4E92CF12CEB85FF
:10076000FC85EE0DFF1D80810E94EA01892B61F45A
:10077000EE0CFF1CF601EE0DFF1D80819181A81685
:10078000B90610F4B182A082900EE4CF7894D5CF50
:10079000842F9D85891750F4E82FF0E0EE0FFF1F9E
:1007A000EC0DFD1D11821082800FF3CF20E08A89AD
:1007B000281770F5912F8D85981740F5E92FF0E0F7
:1007C000AB85BC85AE0FBF1F8C918E3008F08E506C
:1007D0008770806480937C0080917A00806480932D
:1007E0007A0080917A0086FDFCCF6091780040917C
:1007F0007900EE0FFF1FEC0DFD1D742F408151811C
:10080000460F571F51834083900FD5CF2F5FCFCF17
:100810008D85181708F047CFE12FF0E0EE0FFF1F8E
:10082000EC0DFD1D6A8970E0CB01959587952081BF
:100830003181820F931F0E94FD0D71836083100F21
:10084000E7CFFF920F931F93CF93DF93EC01162F07
:10085000F42E662331F08D89823079F500E0613025
:1008600089F48B898F3F51F00E94EA01019731F49E
:1008700060E08B890E94130201E001C000E08D89D5
:100880008230B9F41D7FA9F48C898F3F91F00E94CA
:10089000EA01019771F460E08C890E941302FF2045
:1008A00061F08E89882379F08BEB92E10197F1F763
:1008B00004C0FF2011F00111F4CFDF91CF911F91FF
:1008C0000F91FF9008958BE193E0F0CFFC01019030
:1008D0000020E9F73197AF01481B590BBC018FE7A6
:1008E00091E00C94B40080E291E00C9466048F9245
:1008F0009F92AF92BF920F931F93CF93DF93CDB789
:10090000DEB7A1970FB6F894DEBF0FBECDBF19A218
:10091000423008F44AE08E010F5D1F4F842E912C67
:10092000B12CA12CA50194010E94540DE62FB90110
:10093000CA01EA30F4F4E05DD801EE938D01232B77
:10094000242B252B79F790E080E0109719F0CD014A
:100950000E946604A1960FB6F894DEBF0FBECDBF0D
:10096000DF91CF911F910F91BF90AF909F908F908B
:100970000895E95CE1CFCF93DF930E946604EC0118
:100980000E9473048C0F9D1FDF91CF910895CF9229
:10099000DF92EF92FF920F931F93CF93DF938C011F
:1009A000C62FFC018689882369F0862F0E94EA0100
:1009B000019741F460E08C2F0E9413028BEB92E1CF
:1009C0000197F1F761E08C2F0E9413020E94CF0281
:1009D0006B01F80186898823A1F08789882389F033
:1009E000F894D0E0F8018789D81750F460E08C2F94
:1009F0000E94130261E08C2F0E941302DF5FF2CF8E
:100A00007894C601DF91CF911F910F91FF90EF90E5
:100A1000DF90CF900895EF92FF920F931F93CF93A3
:100A2000DF93EC01162F662331F18D89823009F1B5
:100A300000E08D898230A9F51D7F99F58C898F3F63
:100A400081F19E89992349F16C89CE010E94C704E6
:100A50007C018E89882371F1C3E2D0E00E94CF022D
:100A60006E197F096C327140F0F4CE010197F1F7F5
:100A7000F5CF6130E9F68B898F3FD1F29E899923BA
:100A800039F06B89CE010E94C7047C0101E0D1CF0F
:100A90000E94EA01892BA9F3CBCF0E94EA01892B9E
:100AA00099F20111D6CFDF91CF911F910F91FF9055
:100AB000EF9008958BE193E00197F1F7F4CF4F9217
:100AC0005F926F927F928F929F92AF92BF92CF92DE
:100AD000DF92EF92FF920F931F93CF93DF93CDB7E7
:100AE000DEB7C85FD1090FB6F894DEBF0FBECDBF29
:100AF0008C017B01C42EDB018C9181115FC01396A8
:100B0000AD90BC90F801658570E0660F771FC50158
:100B10000E94620FD70114969C938E931397892B92
:100B2000D9F4C5010E94D90EC850DF4F0FB6F89412
:100B3000DEBF0FBECDBFDF91CF911F910F91FF9010
:100B4000EF90DF90CF90BF90AF909F908F907F906D
:100B50006F905F904F900895F701A180B280D80107
:100B60001D966C9170E0660F771FC5010E94620FA1
:100B7000AC01F7019283818390E04115510589F220
:100B8000D8011D968C919817B0F4292F30E0220FD0
:100B9000331FD7011396ED91FC91E20FF31F1182E1
:100BA0001082F80160897189240F351FD9016D9376
:100BB0007C939F5FE5CF81E0F7018083D12C43E2F6
:100BC000A42EB12CF1E0CF1640F082E08C1508F095
:100BD0003FC093E0C91609F47AC041E060E0C80163
:100BE0000E94210421E040E0BE01615C7F4FC8010A
:100BF0000E943603D8011D966C90DE01A554BF4FAC
:100C00002E01EDE74E0E511C9E01215C3F4F712CD1
:100C10004D01B201671409F4B3C0F90181919191BA
:100C20009F01DD2009F4A3C0F201408151814817E2
:100C3000590708F49CC04D915C9111978417950752
:100C400008F49AC073941296F2E04F0E511CE2CF52
:100C500060E0C8010E940B0521E040E0BE01615C3C
:100C60007F4FC8010E94360341E060E0C8010E9446
:100C70002104F2E0CF12BECF21E040E0BE016F5F61
:100C80007F4FC8010E943603D8011D967C91FE015A
:100C9000FF96CE0101964C0160E0761709F4AACFC9
:100CA000D80150962D913C91D4014D915D914D010B
:100CB00080819181820F931F841B950B2817390720
:100CC00008F452C0918380836F5F3296E6CF40E094
:100CD00062E0C8010E9421040E94CF022B0161E062
:100CE000C8010E940B05D80156968C91882359F0B3
:100CF0000E94CF0264197509603B744020F4C5015D
:100D00000197F1F7F5CF22E040E0BE01615C7F4F33
:100D1000C8010E94360340E061E0C8010E9421043E
:100D20000E94CF022B0162E0C8010E940B05F8016E
:100D30008689882359F00E94CF0264197509603BA7
:100D4000744020F4C5010197F1F7F5CF22E041E0AE
:100D5000BE01615C7F4FC8010E94360341E060E044
:100D6000C8010E94210446CF31832083ADCFF20118
:100D700091838083D1105FCF11969C938E9362CF25
:100D8000D3948AE0D8121ECF20E0D8011D968C9112
:100D9000281708F0C9CE822F90E0880F991FF40120
:100DA000E80FF91F40815181D7011396ED91FC9115
:100DB000E80FF91FA081B181A417B50710F4518382
:100DC0004083FB01E80FF91F40815181D701119643
:100DD000ED91FC91E80FF91F808191814817590727
:100DE00010F4518340832F5FD0CF1F920F920FB624
:100DF0000F9211242F933F934F935F936F937F93A1
:100E00008F939F93AF93BF93EF93FF938FE791E0FF
:100E10000E943201FF91EF91BF91AF919F918F910D
:100E20007F916F915F914F913F912F910F900FBEE6
:100E30000F901F9018951F920F920FB60F921124CA
:100E40002F938F939F93EF93FF93E0918F01F091F6
:100E500090018081E0919501F091960182FD1BC087
:100E60009081809198018F5F8F73209199018217F3
:100E700041F0E0919801F0E0E158FE4F958F8093AA
:100E80009801FF91EF919F918F912F910F900FBE3D
:100E90000F901F9018958081F4CF1F920F920FB67C
:100EA0000F9211242F933F938F939F93AF93BF93F0
:100EB0008091710190917201A0917301B0917401C0
:100EC0003091700123E0230F2D3758F50196A11DB5
:100ED000B11D209370018093710190937201A093D2
:100EE0007301B09374018091750190917601A09186
:100EF0007701B09178010196A11DB11D8093750114
:100F000090937601A0937701B0937801BF91AF9150
:100F10009F918F913F912F910F900FBE0F901F9037
:100F2000189526E8230F0296A11DB11DD2CFEFE739
:100F3000F1E01382128288EE93E0A0E0B0E08483B7
:100F40009583A683B78382E191E09183808385ECCA
:100F500090E09587848784EC90E09787868780EC83
:100F600090E0918B808B81EC90E0938B828B82EC74
:100F700090E0958B848B86EC90E0978B868B118E1E
:100F8000128E138E148EECE1F2E016821782108618
:100F90001186128613861486158616861786108A81
:100FA000118A128A138A148A158A0895CF93DF93BF
:100FB00000D01F92CDB7DEB7789484B5826084BD2F
:100FC00084B5816084BD85B5826085BD85B581604D
:100FD00085BD80916E00816080936E0010928100CB
:100FE0008091810082608093810080918100816086
:100FF0008093810080918000816080938000809147
:10100000B10084608093B1008091B00081608093D2
:10101000B00080917A00846080937A0080917A0099
:10102000826080937A0080917A00816080937A0058
:1010300080917A00806880937A001092C1001092AB
:101040005E0210925F021092600210926102109292
:101050001E0210921F0210922002109221020E9482
:101060002A036B017C012B013C0128EB420E2BE093
:10107000521E611C711C0E942A036C157D058E0591
:101080009F0528F04616570668067906A0F70E94C5
:10109000F4020E948C000E942A0360931E02709347
:1010A0001F02809320029093210283E291E00E942C
:1010B00066040E942A036B017C012B013C013AE08B
:1010C000430E511C611C711C0E942A036C157D0586
:1010D0008E059F0528F04616570668067906A0F784
:1010E000FF24F394F09232020E948C0080E190E0A1
:1010F0000E943D0E8C0184E391E00E94BB048FE2CC
:1011000090E00E943D0E3C01DC011C9212961C9264
:101110001E92119714961C921E92139715961C926C
:10112000159717961C921E92169719961C921E924E
:1011300018971C961C921E921B971D961C921D9729
:1011400084EC99E01F969C938E931E9784E05296B0
:101150008C9352978FEF53968C93539754968C930E
:10116000549755961C9255975696FC9256975796BB
:101170001C92579759961C921E92589782E01A9685
:101180008C931A978FEF93E051969C938E93509780
:1011900068E070E090E080E00E94620FF3019487C5
:1011A0008387892BC1F0A6E0B1E090E080E02D912B
:1011B000F30143855485FA01E80FF91F2083019656
:1011C00088309105A1F788E0D3011D968C931D9777
:1011D0001C9215961C9261E08DE00E94410261E034
:1011E0008DE00E94130244E6E42EF12C41E0B301AD
:1011F000C3010E945F05B1E0EB1AF108B9F760E0A6
:101200008DE00E9413020E948C00D12CC12CD301CE
:101210001196ED91FC91EC0DFD1D6081718190E0C6
:1012200080E04AE00E94770460E28FE791E00E944C
:101230005401B2E0CB0ED11CE0E1CE16D10439F757
:101240000E947304D3011396ED91FC91EE0DFF1DE6
:101250006081718190E080E04AE00E94770460E262
:101260008FE791E00E945401B2E0EB0EF11CE0E147
:10127000EE16F10439F70E9473040E9473040E9471
:10128000F402D8016D927C9284E090E00E943D0EC1
:101290005C018FE391E00E94BB04F50173826282DE
:1012A0001182108287E491E00E946604D5011296B3
:1012B000ED91FC91C3A4D4A40D2C000CEE08FF0802
:1012C0004AE0C701B601F7FE0DC06DE28FE791E07D
:1012D0000E94540166277727CB016C197D098E097E
:1012E0009F094AE00E9477040E947304F801B382C8
:1012F000A28284E090E00E943D0E9B838A8361E09D
:1013000085E00E94410261E086E00E94410261E0C6
:1013100087E00E94410261E08BE00E94410261E0AF
:101320008AE00E94410261E089E00E944102CA8095
:10133000DB80D8011596DC92CE92149710937A0137
:101340000093790138EE832E33E0932E22242A94E1
:10135000312C0E942A03672B682B692B09F4DFC00C
:101360000E942A0300917B0110917C0120917D0154
:1013700030917E01601771078207930708F440C11E
:1013800000917B0110917C0120917D0130917E01C3
:101390006B017C01C01AD10AE20AF30A97018601A7
:1013A0000A3F11052105310508F4C1C060937B0196
:1013B00070937C0180937D0190937E0124EF31E056
:1013C00040E050E020932A0230932B0240932C02FD
:1013D00050932D0210922E0210922F021092300282
:1013E000109231028091220290912302A091240256
:1013F000B09125028093260290932702A0932802A1
:10140000B09329020E942A03609322027093230260
:1014100080932402909325020E942A0360931E0267
:1014200070931F0280932002909321020E942A034E
:101430006B017C018BE591E00E9466044AE061E06B
:1014400070E080E090E00E94770482E691E00E94E4
:1014500066044AE0C701B6010E94770484E691E081
:101460000E9466048091220290912302A09124029E
:10147000B0912502A7019601281B390B4A0B5B0B83
:10148000CA01B9014AE00E94770484E691E00E9413
:10149000660460912202709123028091240290914F
:1014A00025020091260210912702209128023091F6
:1014B0002902601B710B820B930B4AE00E94770498
:1014C00086E691E00E9466040E942A034AE00E9498
:1014D000770488E691E00E94BB040E942A032B0156
:1014E0003C017C016B0135E0C30ED11CE11CF11CF9
:1014F0000E942A03641575058605970528F0C6160F
:10150000D706E806F906A0F70E942A036093220294
:1015100070932302809324029093250208C00E94B6
:101520002A03623071058105910508F019CFE0901A
:101530007901F0907A01D7010D90BC91A02DBB8369
:10154000AA836D01BBE1CB0ED11CEA81FB818081B6
:10155000882309F45EC060E0CF010E940B0521E002
:1015600040E0B6018A819B810E94360341E060E041
:101570008A819B810E942104B12CAA81BB811D9686
:101580008C911D97B81608F044C00B2D10E0000F89
:10159000111F1196ED91FC911297E00FF11F8081C0
:1015A00091811396ED91FC91E00FF11F0190F08174
:1015B000E02DE81BF90B0C0D1D1D3097D1F0D80163
:1015C0002D913C9150E040E0281B390B4109510915
:1015D000A8EEB3E00E94760D9F0150E040E00E942B
:1015E000110E293EB3E03B0714F028EE33E037FF3D
:1015F00002C030E020E0F80131832083B394BDCFF6
:1016000060937B0170937C0180937D0190937E01B8
:10161000B7CEAA81BB811D961C91F601B12CA12CDD
:1016200000E050E040E0412C512C320119821017AB
:1016300001F1819191916401C81AD90AB9ECCB16D4
:10164000D104A0F423E3C216D10450F09601D501D1
:101650000E94300E460E571E681E791E4C0D5D1DF1
:101660000F5F88E1A81A8CEFB80AE1CF31E0398327
:10167000EDCFE981E111C1C0212F2150330BC90108
:1016800044EF51E0849F9001859F300D949F300D71
:101690001124AA81BB8158964D915C9170E060E065
:1016A0004217530738F0889DB001899D700D989DB1
:1016B000700D1124AA81BB819C967C936E939B979D
:1016C000AB014C5A5D409E965C934E939D97F701FB
:1016D0000280F381E02DFB83EA830280F381E02D19
:1016E00005A516A5AA81BB818D919C91B801681BA7
:1016F000790B072E000C880B990B0E945B0C2DECCC
:101700003CEC4CE45DE30E94960C0E94C70D2B015B
:10171000B801012E000C880B990B0E945B0C2AE08B
:1017200037ED43EA5CE30E94960C0E94C70D460E1B
:10173000571EEA81FB8111830083C2018A569F4FA5
:10174000D7011B969C938E931A9726E930E02419B3
:1017500035091D963C932E931C971496CD90DC90E2
:10176000DB82CA828F3F910509F00CF453C0D60189
:101770002D923C922F3F310509F00CF45DC0EA81B7
:10178000FB8133822282EA81FB818081918197FDF6
:1017900067C060E086E00E94130261E087E00E947B
:1017A0001302EA81FB818281938197FD6CC060E026
:1017B0008AE00E94130261E089E00E941302EA813C
:1017C000FB816081718185E00E947202AA81BB81E8
:1017D00012966D917C918BE00E9472020E947304BC
:1017E000E0E0F0E0EF2B09F4B4CD0E941E01882365
:1017F00009F4ACCD0E940000A9CD9A0150E040E070
:10180000C301B2010E94540DB901EA81FB81318FFD
:10181000208F50CF8130BFEF9B074CF4CC24C39472
:10182000DD24DA94EA81FB81D182C082A3CFAA8130
:10183000BB818D939C939ECF2130FFEF3F074CF4EB
:10184000E1E0FFEFAA81BB811396FC93EE93129720
:101850009ACFAA81BB8113963C932E93129793CF74
:1018600061E086E00E94130260E087E00E941302BC
:10187000AA81BB818D919C91119791958195910938
:101880008D939C938ECF61E08AE00E94130260E00A
:1018900089E00E941302AA81BB8112968D919C91CE
:1018A000139791958195910913969C938E93129716
:1018B00086CFE89409C097FB3EF49095809570958B
:1018C00061957F4F8F4F9F4F9923A9F0F92F96E98C
:1018D000BB279395F695879577956795B795F11101
:1018E000F8CFFAF4BB0F11F460FF1BC06F5F7F4F9E
:1018F0008F4F9F4F16C0882311F096E911C07723B0
:1019000021F09EE8872F762F05C0662371F096E8B8
:10191000862F70E060E02AF09A95660F771F881F87
:10192000DAF7880F9695879597F908950E94A90C84
:101930000C941A0D0E940C0D38F00E94130D20F02B
:10194000952311F00C94030D0C94090D11240C94A3
:101950004E0D0E942B0D70F3959FC1F3950F50E033
:10196000551F629FF001729FBB27F00DB11D639F51
:10197000AA27F00DB11DAA1F649F6627B00DA11DF7
:10198000661F829F2227B00DA11D621F739FB00D9D
:10199000A11D621F839FA00D611D221F749F33270D
:1019A000A00D611D231F849F600D211D822F762FA6
:1019B0006A2F11249F5750409AF0F1F088234AF083
:1019C000EE0FFF1FBB1F661F771F881F91505040EF
:1019D000A9F79E3F510580F00C94030D0C944E0D19
:1019E0005F3FE4F3983ED4F3869577956795B79576
:1019F000F795E7959F5FC1F7FE2B880F911D969590
:101A0000879597F9089597F99F6780E870E060E0FF
:101A100008959FEF80EC089500240A941616170687
:101A200018060906089500240A94121613061406CF
:101A300005060895092E0394000C11F4882352F032
:101A4000BB0F40F4BF2B11F460FF04C06F5F7F4FEA
:101A50008F4F9F4F089557FD9058440F551F59F0D1
:101A60005F3F71F04795880F97FB991F61F09F3F8B
:101A700079F087950895121613061406551FF2CFB4
:101A80004695F1DF08C0161617061806991FF1CF04
:101A900086957105610508940895E894BB2766272B
:101AA0007727CB0197F90895A1E21A2EAA1BBB1B39
:101AB000FD010DC0AA1FBB1FEE1FFF1FA217B3071A
:101AC000E407F50720F0A21BB30BE40BF50B661F30
:101AD000771F881F991F1A9469F7609570958095F4
:101AE00090959B01AC01BD01CF0108950E94B80DF6
:101AF000A59F900DB49F900DA49F800D911D112462
:101B000008952F923F924F925F926F927F928F92A1
:101B10009F92AF92BF92CF92DF92EF92FF920F937C
:101B20001F93CF93DF93CDB7DEB7CA1BDB0B0FB686
:101B3000F894DEBF0FBECDBF09942A883988488843
:101B40005F846E847D848C849B84AA84B984C884D9
:101B5000DF80EE80FD800C811B81AA81B981CE0FD0
:101B6000D11D0FB6F894DEBF0FBECDBFED010895B5
:101B7000A29FB001B39FC001A39F700D811D1124CE
:101B8000911DB29F700D811D1124911D08950E9419
:101B9000CE0D6894B1110C944E0D08950E94330D32
:101BA00088F09F5798F0B92F9927B751B0F0E1F01E
:101BB000660F771F881F991F1AF0BA95C9F714C0CE
:101BC000B13091F00E944D0DB1E008950C944D0D8F
:101BD000672F782F8827B85F39F0B93FCCF3869507
:101BE00077956795B395D9F73EF490958095709564
:101BF00061957F4F8F4F9F4F0895AA1BBB1B51E1EB
:101C000007C0AA1FBB1FA617B70710F0A61BB70B6C
:101C1000881F991F5A95A9F780959095BC01CD0111
:101C20000895052E97FB1EF400940E94280E57FD80
:101C300007D00E94540D07FC03D04EF40C94280EDC
:101C400050954095309521953F4F4F4F5F4F0895E8
:101C500090958095709561957F4F8F4F9F4F089518
:101C60000E94B80DB7FF0895821B930B0895EE0FE5
:101C7000FF1F0590F491E02D09940F931F93CF93CC
:101C8000DF938230910510F482E090E0E0916402ED
:101C9000F091650230E020E0B0E0A0E0309799F4E8
:101CA0002115310509F44AC0281B390B24303105B0
:101CB000D8F58A819B816115710589F1FB019383B8
:101CC0008283FE0111C04081518102811381481736
:101CD0005907E0F04817590799F4109761F01296E8
:101CE0000C93129713961C933296CF01DF91CF91EC
:101CF0001F910F9108950093640210936502F4CF31
:101D00002115310551F04217530738F0A901DB01C5
:101D10009A01BD01DF01F801C1CFEF01F9CF909326
:101D2000650280936402CDCFFE01E20FF31F819321
:101D300091932250310939832883D7CF20916202B1
:101D400030916302232B41F4209102013091030171
:101D500030936302209362022091000130910101CF
:101D60002115310541F42DB73EB740910401509142
:101D70000501241B350BE0916202F0916302E2172A
:101D8000F307A0F42E1B3F0B2817390778F0AC019E
:101D90004E5F5F4F2417350748F04E0F5F1F50937B
:101DA000630240936202819391939FCFF0E0E0E061
:101DB0009CCFCF93DF930097E9F0FC013297138219
:101DC0001282A0916402B0916502ED0130E020E042
:101DD0001097A1F420813181820F931F209162021C
:101DE000309163022817390709F061C0F09363024C
:101DF000E0936202DF91CF910895EA01CE17DF07E9
:101E0000E8F54A815B819E0141155105B1F7E90171
:101E1000FB83EA8349915991C40FD51FEC17FD0745
:101E200061F4808191810296840F951FE901998365
:101E30008883828193819B838A83F0E0E0E012961D
:101E40008D919C9113970097B9F52D913C91119725
:101E5000CD010296820F931F20916202309163029E
:101E60002817390739F6309751F51092650210920C
:101E70006402B0936302A0936202BCCFD383C28397
:101E800040815181840F951FC817D90761F44E5FB7
:101E90005F4F88819981480F591F518340838A8100
:101EA0009B81938382832115310509F0B0CFF09394
:101EB0006502E09364029ECFFD01DC01C0CF138276
:101EC0001282D7CFB0E0A0E0E8E6FFE00C94830DEB
:101ED0008C01009751F4CB010E943D0E8C01C8018A
:101EE000CDB7DEB7E0E10C949F0DFC01E60FF71FC4
:101EF0009C0122503109E217F30708F49DC0D90173
:101F0000CD91DC911197C617D70798F0C530D10550
:101F100030F3CE0104978617970708F3C61BD70B3B
:101F20002297C193D1936D937C93CF010E94D90ED8
:101F3000D6CF5B01AC1ABD0A4C018C0E9D1EA09140
:101F40006402B0916502512C412CF12CE12C1097C8
:101F500031F580916202909163028815990509F02C
:101F60005CC04616570608F058C080910001909159
:101F70000101009741F48DB79EB740910401509143
:101F80000501841B950BE817F90708F055C0F0937D
:101F90006302E0936202F90171836083A0CF8D91A7
:101FA0009C91119712966C90129713967C901397B0
:101FB000A815B90559F56C0142E0C40ED11CCA142C
:101FC000DB0420F1AC014A195B09DA01129615977E
:101FD00080F06282738251834083D9016D937C9338
:101FE000E114F10471F0D7011396FC93EE9312976C
:101FF00076CF22968C0F9D1FF90191838083F30188
:10200000EFCFF0936502E093640269CF481659065A
:1020100008F42C017D01D3019ACFCB010E943D0E23
:102020007C01009749F0AE01B8010E941F10C80161
:102030000E94D90E870153CF10E000E050CFFB0182
:10204000DC0102C001900D9241505040D8F7089534
:04205000F894FFCF32
:102054000000660280001514131211100F0E000008
:1020640000005401B400E100A1011201F0000401D8
:102074000D0A00564D4450565F317C315F564D4435
:1020840050560A006D616E616765206B7572007051
:102094006964206B757200706964206C696E652ECA
:1020A400706F736974696F6E3A2000564D445045E1
:1020B4005F003A323A007C005F564D4450450000C0
:107800000C94343C0C94513C0C94513C0C94513CE1
:107810000C94513C0C94513C0C94513C0C94513CB4
:107820000C94513C0C94513C0C94513C0C94513CA4
:107830000C94513C0C94513C0C94513C0C94513C94
:107840000C94513C0C94513C0C94513C0C94513C84
:107850000C94513C0C94513C0C94513C0C94513C74
:107860000C94513C0C94513C11241FBECFEFD8E036
:10787000DEBFCDBF11E0A0E0B1E0ECE9FFE702C060
:1078800005900D92A230B107D9F712E0A2E0B1E065
:1078900001C01D92AD30B107E1F70E942D3D0C945F
:1078A000CC3F0C94003C982F959595959595959582
:1078B000905D8F708A307CF0282F295A8091C0000B
:1078C00085FFFCCF9093C6008091C00085FFFCCF60
:1078D0002093C6000895282F205DF0CF982F809127
:1078E000C00085FFFCCF9093C6000895EF92FF92F1
:1078F0000F931F93EE24FF2487018091C00087FD22
:1079000017C00894E11CF11C011D111D81E4E8164B
:1079100082E4F8068FE0080780E0180770F3E09132
:107920000401F091050109958091C00087FFE9CF1E
:107930008091C6001F910F91FF90EF9008950E94D3
:10794000763C982F8091C00085FFFCCF9093C600B5
:1079500091362CF490330CF09053892F089597555D
:10796000892F08951F930E949F3C182F0E949F3CCF
:107970001295107F810F1F9108951F93182F882350
:1079800021F00E94763C1150E1F71F9108951F935A
:10799000182F0E94763C803249F0809103018F5F5E
:1079A000809303018530C1F01F9108958091C0003C
:1079B00085FFFCCF84E18093C6008091C00085FFE5
:1079C000FCCF1093C6008091C00085FFFCCF80E102
:1079D0008093C6001F910895E0910401F091050184
:1079E00009951F9108950E94763C803241F0809164
:1079F00003018F5F80930301853081F008958091AA
:107A0000C00085FFFCCF84E18093C6008091C00058
:107A100085FFFCCF80E18093C6000895E0910401CA
:107A2000F09105010995089540E951E08823A1F0FE
:107A30002D9A28EE33E0FA013197F1F721503040CA
:107A4000D1F72D9828EE33E0FA013197F1F7215064
:107A50003040D1F7815061F708953F924F925F9285
:107A60006F927F928F929F92AF92BF92CF92DF924E
:107A7000EF92FF920F931F93CF93DF93000080E16B
:107A80008093C4001092C50088E18093C10086E015
:107A90008093C2005098589A259A81E00E94143D24
:107AA00024E1F22E9EE1E92E85E9D82E0FE0C02ECA
:107AB00010E1B12EAA24A394B1E49B2EA6E58A2E50
:107AC000F2E57F2EE0E26E2E79E4572E63E5462E36
:107AD00050E5352E0E94763C8033B1F18133B9F107
:107AE000803409F46FC0813409F476C0823409F41B
:107AF00085C0853409F488C0803531F1823521F1A3
:107B0000813511F1853509F485C0863509F48DC0BC
:107B1000843609F496C0843709F403C1853709F423
:107B200072C1863709F466C0809103018F5F80932C
:107B30000301853079F6E0910401F0910501099582
:107B40000E94763C803351F60E94F33CC3CF0E94E2
:107B5000763C803249F78091C00085FFFCCFF092DF
:107B6000C6008091C00085FFFCCF9092C600809136
:107B7000C00085FFFCCF8092C6008091C00085FFC9
:107B8000FCCF7092C6008091C00085FFFCCF609250
:107B9000C6008091C00085FFFCCF5092C600809146
:107BA000C00085FFFCCF4092C6008091C00085FFD9
:107BB000FCCF3092C6008091C00085FFFCCFB09210
:107BC000C60088CF0E94763C863808F4BDCF0E945C
:107BD000763C0E94F33C7ECF0E94763C803809F4CC
:107BE0009CC0813809F40BC1823809F43CC1883942
:107BF00009F48FC080E00E94C73C6CCF84E10E94F2
:107C0000BD3C0E94F33C66CF85E00E94BD3C0E94D3
:107C1000F33C60CF0E94763C809306010E94763C44
:107C2000809307010E94F33C55CF0E94763C80333D
:107C300009F41DC183E00E94BD3C80E00E94C73C66
:107C400049CF0E94763C809309020E94763C809343
:107C5000080280910C028E7F80930C020E94763C79
:107C6000853409F415C18091080290910902892B8D
:107C700089F000E010E00E94763CF801E85FFE4FDA
:107C800080830F5F1F4F80910802909109020817AF
:107C9000190788F30E94763C803209F045CF809125
:107CA0000C0280FF01C16091060170910701660F0F
:107CB000771F7093070160930601A0910802B091AD
:107CC00009021097C9F0E8E0F1E09B01AD014E0F09
:107CD0005F1FF999FECF32BD21BD819180BDFA9A17
:107CE000F99A2F5F3F4FE417F50799F76A0F7B1F4B
:107CF00070930701609306018091C00085FFFCCF5F
:107D0000F092C6008091C00085FFFCCFB092C60003
:107D1000E1CE83E00E94C73CDDCE82E00E94C73CFA
:107D2000D9CE0E94763C809309020E94763C8093D3
:107D300008028091060190910701880F991F909386
:107D40000701809306010E94763C853409F4A6C0A1
:107D500080910C028E7F80930C020E94763C8032D0
:107D600009F0B8CE8091C00085FFFCCFF092C6002C
:107D7000609108027091090261157105B9F140E046
:107D800050E080910C02A82FA170B82FB27011C0E2
:107D9000BB2309F45CC0E0910601F0910701319624
:107DA000F0930701E09306014F5F5F4F46175707B7
:107DB000E8F4AA2369F3F999FECF209106013091E6
:107DC000070132BD21BDF89A90B58091C00085FFB2
:107DD000FCCF9093C6002F5F3F4F30930701209355
:107DE00006014F5F5F4F4617570718F38091C00099
:107DF00085FDE5CE8091C00085FFF8CFE0CE81E023
:107E00000E94C73C67CE0E94763C803209F08CCE3F
:107E10008091C00085FFFCCFF092C6008091C00029
:107E200085FFFCCFE092C6008091C00085FFFCCFAB
:107E3000D092C6008091C00085FFFCCFC092C600E2
:107E40008091C00085FFFCCFB092C60043CEE09188
:107E50000601F091070194918091C00085FFFCCF4D
:107E60009093C6009CCF80E10E94C73C33CE0E9415
:107E7000763C0E94763C182F0E94763C112309F430
:107E800083C0113009F484C08FE00E94C73C22CE29
:107E900080910C02816080930C02E5CE80910C02EF
:107EA000816080930C0259CF809107018823880F4D
:107EB000880B8A2180930B02809106019091070123
:107EC000880F991F90930701809306018091080203
:107ED00080FF09C080910802909109020196909359
:107EE000090280930802F894F999FECF1127E091D6
:107EF0000601F0910701C8E0D1E08091080290915D
:107F00000902103091F40091570001700130D9F34B
:107F100003E000935700E89500915700017001308D
:107F2000D9F301E100935700E89509901990009169
:107F3000570001700130D9F301E000935700E89534
:107F40001395103498F011270091570001700130FB
:107F5000D9F305E000935700E895009157000170B0
:107F60000130D9F301E100935700E895329602976A
:107F700009F0C7CF103011F00296E5CF112480919F
:107F8000C00085FFB9CEBCCE8EE10E94C73CA2CD19
:0C7F900085E90E94C73C9ECDF894FFCF0D
:027F9C00800063
:040000030000780081
:00000001FF